:100000000C9455050C9472050C9472050C947205B1
:100010000C9472050C9472050C9472050C94720584
:100020000C9472050C9472050C94B72E0C948B2FC3
:100030000C9468280C9472050C9472050C9472054B
:100040000C9472050C9472050C9472050C94720554
:100050000C9472050C940B290C9472050C94720587
:100060000C9472050C9472050C9472050C94720534
:100070000C9472050C9472050C9472050C94720524
:100080000C9472050C9472050C9472050C94720514
:100090000C9472050C9472050C9472050C94720504
:1000A0000C9472050C9472050C9472054333202055
:1000B0002044332020204533202020463300004CAC
:1000C0004159522052534554204733202020413378
:1000D0000000454449542020202020204233202085
:1000E000204334000028524F204C20524F205229E8
:1000F0002020204D49444900564941202044524186
:10010000472053414C4C2044454C5400004C41592D
:1001100052205253455420554E444F205452414B87
:1001200000004544495420202020202045534350BE
:10013000204D4F5645000028524F204C20524F2052
:1001400052292020204B49434144004241434B2047
:1001500053544F5020464F52572044454C540000B2
:100160004C4159522052534554204B465241205A3B
:100170004F4D2D0000585858582020202020204254
:1001800052414B205A4F4D2B0000284652412D2002
:100190004652412B29202020204643505800454DEF
:1001A0004F4A205F5F5F5F205F5F5F5F202D4F5092
:1001B0005400005F5F5F5F205F5F5F5F20425249D6
:1001C0002D20544F474700005F5F5F5F20202020B5
:1001D00020204252492B20414E494D00005F5F5F75
:1001E0005F205F5F5F5F202020202020302D4D4F5B
:1001F00044004D524556204D504C41204D465744E9
:10020000202B4F505400004C41595220525345541A
:10021000203130424B203130465700004D55544577
:10022000202020202020534C4F572046415354007B
:100230000028564F4C2D20564F4C2B2920204C4146
:100240005945523000A900AA00010001004F00509A
:10025000001502150001000100A800000036023759
:1002600002425200000D000F00AC00AE00AB006176
:10027000520100000049784378010000004A7842AA
:10028000782C09010001006152050A000005082EC2
:1002900008435200000E042D080D000E000F002A26
:1002A000000800000029001000405200001D081B3B
:1002B000001900070018002A008571000032713310
:1002C00071405200002E713071277129712B712CF1
:1002D000710001010101010101010102020202029A
:1002E00002020202030303030303030304040404DE
:1002F00004040405050505050606060606070707A6
:10030000070708080808090909090A0A0A0B0B0B5C
:100310000C0C0C0D0D0D0E0E0E0F0F0F10101111F9
:10032000111212131314141515161617171818197D
:10033000191A1A1B1B1C1D1D1E1E1F2020212222E4
:10034000232424252626272829292A2B2C2D2D2E27
:100350002F30313232333435363738393A3B3C3D41
:100360003E3F404142434445464748494A4C4D4E32
:100370004F50515354555658595A5B5D5E5F6162F8
:1003800064656668696B6C6D6F7072737577787A87
:100390007B7D7E8082838587888A8C8E8F919395E2
:1003A00096989A9C9EA0A2A3A5A7A9ABADAFB1B306
:1003B000B5B7BABCBEC0C2C4C6C9CBCDCFD1D4D6E6
:1003C000D8DBDDDFE2E4E7E9EBEEF0F3F5F8FAFD88
:1003D000FF00AE00AF00DA1281FFD9F1DB20A4A646
:1003E0002EAF00A0C0D30000A1C8D30000AED580BE
:1003F000A83F408D14200007087F0807003E5B4F90
:100400005B3E003E6B4F6B3E001C3E7C3E1C00186A
:100410003C7E3C18001C577D571C001C5E7F5E1CF8
:100420000000183C180000FFE7C3E7FF0000182495
:10043000180000FFE7DBE7FF0030483A060E002611
:100440002979292600407F05050700407F05253FC3
:10045000005A3CE73C5A007F3E1C1C0800081C1C4C
:100460003E7F0014227F2214005F5F005F5F000662
:10047000097F017F00006689956A006060606060A6
:100480000094A2FFA2940008047E04080010207EBD
:1004900020100008082A1C0800081C2A0808001E52
:1004A00010101010000C1E0C1E0C0030383E38309E
:1004B00000060E3E0E060000000000000000005F77
:1004C000000000000700070000147F147F140024C0
:1004D0002A7F2A12002313086462003649562050EE
:1004E00000000807030000001C2241000000412218
:1004F0001C00002A1C7F1C2A0008083E0808000077
:1005000080703000000808080808000000606000E3
:10051000002010080402003E5149453E0000427F81
:100520004000007249494946002141494D330018B5
:1005300014127F10002745454539003C4A4949318E
:100540000041211109070036494949360046494909
:10055000291E0000001400000000403400000000CC
:100560000814224100141414141400004122140829
:10057000000201590906003E415D594E007C1211EE
:10058000127C007F49494936003E41414122007FAB
:100590004141413E007F49494941007F0909090124
:1005A000003E41415173007F0808087F0000417FF1
:1005B0004100002040413F01007F08142241007F9C
:1005C00040404040007F021C027F007F0408107FF3
:1005D000003E4141413E007F09090906003E41516C
:1005E000215E007F09192946002649494932000346
:1005F000017F0103003F4040403F001F2040201F7B
:10060000003F4038403F006314081463000304783F
:100610000403006159494D4300007F4141410002FC
:100620000408102000004141417F0004020102043F
:1006300000404040404000000307080000205454A0
:100640007840007F28444438003844444428003827
:100650004444287F0038545454180000087E09028E
:100660000018A4A49C78007F080404780000447D4E
:100670004000002040403D00007F10284400000062
:10068000417F4000007C04780478007C08040478F2
:1006900000384444443800FC18242418001824244A
:1006A00018FC007C08040408004854545424000436
:1006B000043F4424003C4040207C001C2040201C7F
:1006C000003C4030403C004428102844004C9090AE
:1006D000907C004464544C44000008364100000003
:1006E0000077000000004136080000020102040209
:1006F000003C2623263C0000000000000040404053
:10070000F0F8F8FF38FFF8F83FF8F8FF38FFF8F88E
:10071000F040404000000000000080C0C0C08000E9
:1007200000C0C08000000080C0C000C0C0000080C9
:10073000C0C00000000000C0C0C0C0C000C0C000F9
:1007400000000000000000000000000000000000A9
:100750000000000000000000000000000000000099
:100760000000000000000000000000000000000089
:10077000000000000000C0F0F8FC3E1E0601000072
:10078000007F4141417F007F4141417F000080C0A7
:10079000E07E5B4F5BFEC00000C000DCD7DEDEDE2B
:1007A000D7DC00C0000000000000000000000000D6
:1007B000000000000000000000000000004949495E
:1007C000FFFFFFFFE0DFBFBF00BFBFDFE0FFFFFFB6
:1007D000FF49494900000000001F3F6060E0BF1F63
:1007E000007F7F071E381E077F7F007F7F0E1F3B25
:1007F000716000000000007F7F0C0C0C007E7E000A
:100800007F7E0303007F7E03037E7E03037F7E00E3
:100810000F3E703C063C703E0F00327B49493F7EE4
:10082000007F7E0303001E3F69696F260000000001
:10083000000000000000030F1F3F3C7870600000C4
:10084000007F4141417F007F4141417F00307B7FFC
:100850007830202030787F3B0003000F7F0F0F0F90
:100860007F0F0003000000000000000000000000F7
:100870000000000000000000000000000001010175
:10088000070F0F7F0F7F0F0F7E0F0F7F0F7F0F0F51
:10089000070101010000000000000000000001014C
:1008A0000000000000000000000000000000000048
:1008B0000000000000000000000000000000000038
:1008C0000000000000000000000000000000000028
:1008D0000000000000000000000000000000000018
:1008E0000000000000000000000000000000000008
:1008F00000000000000000000000000000000000F8
:1009000000000000000000000000000000000000E7
:1009100000000000000000000000000000000000D7
:1009200000000000000000000000000000000000C7
:10093000000000000000000C036A00630070006DFE
:10094000003200000018036A006500720065006D47
:10095000007900730063006F006F006B00000004FB
:1009600003090409023B00020100A0FA0904000087
:1009700001030101000921110100012244000705C2
:10098000810308000109040100010300000009219E
:100990001101000122B600070582032000011201A7
:1009A000000200000008EDFE00000001010200014D
:1009B00005010902A10185020901A100050919012A
:1009C00029081500250195087501810205010930E6
:1009D00009311581257F9502750881060938158131
:1009E000257F950175088106050C0A3802158125B9
:1009F0007F950175088106C0C005010980A10185A8
:100A00000319012AB700150126B700950175108159
:100A100000C0050C0901A101850419012AA00215D5
:100A20000126A002950175108100C005010906A1EB
:100A3000018506050719E029E715002501950875C8
:100A40000181020507190029EF1500250195F075B0
:100A50000181020508190129059505750191029585
:100A60000175039101C005010906A101050719E0FF
:100A700029E7150025019508750181029501750882
:100A800081010507190029FF150026FF009506754D
:100A9000088100050819012905150025019505752E
:100AA000019102950175039101C011241FBECFEF82
:100AB000DAE0DEBFCDBF12E0A0E0B1E0E8E5F6E6A7
:100AC00002C005900D92AC30B107D9F727E0ACE039
:100AD000B2E001C01D92AE3AB207E1F70E947D1666
:100AE0000C94D3320C94000082E0089520912002EF
:100AF000309121028091220290912302822B932B2C
:100B00000E943908823009F475C038F4882361F1F5
:100B1000813009F44DC080E00895833009F48CC021
:100B20008430C9F760E085EE90E00E94CF1E60E05F
:100B300084EE90E00E94CF1E60E082ED90E00E9483
:100B4000CF1E60E081ED90E00E94CF1E60E08FEB51
:100B500090E00E94CF1E60E08EEB90E00E94CF1EDE
:100B600060E08CEA90E021C060E081E392E00E94C6
:100B7000CF1E60E080E392E00E94CF1E60E08CE137
:100B800092E00E94CF1E60E08BE192E00E94CF1EB7
:100B900060E087E092E00E94CF1E60E086E092E095
:100BA0000E94CF1E60E082EF91E00E94CF1EB3CF83
:100BB00060E08DED91E00E94CF1E60E08CED91E051
:100BC0000E94CF1E60E088EC91E00E94CF1E60E0A2
:100BD00087EC91E00E94CF1E60E083EB91E00E94E1
:100BE000CF1E60E082EB91E00E94CF1E60E08EE9B4
:100BF00091E0DBCF60E08AE891E00E94CF1E60E0E8
:100C000089E891E00E94CF1E60E085E791E00E94B4
:100C1000CF1E60E084E791E00E94CF1E60E080E696
:100C200091E00E94CF1E60E08FE591E00E94CF1E10
:100C300060E08BE491E0B9CF60E087E391E00E944F
:100C4000CF1E60E086E391E00E94CF1E60E082E26A
:100C500091E00E94CF1E60E081E291E00E94CF1EF1
:100C600060E08DE091E00E94CF1E60E08CE091E0BA
:100C70000E94CF1E60E088EF90E097CFCF93DF9384
:100C8000C82FD62FCD1720F080E0DF91CF910895A7
:100C90002091200230912102809122029091230222
:100CA000822B932B0E9439088230F1F140F4882383
:100CB00009F46FC0813009F44FC0CF5FE3CF8330B8
:100CC000D1F08430D1F72EE14EE160E08BE090E08E
:100CD0000E9404192EE14EE160E08AE090E00E945B
:100CE00004192EE14EE160E089E090E00E940419D1
:100CF0002EE14EE117C02CE340E060E08BE090E095
:100D00000E9404192CE340E060E08AE090E00E9439
:100D100004192CE340E060E089E090E00E940419AF
:100D20002CE340E060E030C020E04CE360E08BE08A
:100D300090E00E94041920E04CE360E08AE090E03B
:100D40000E94041920E04CE360E089E090E00E94FA
:100D5000041920E04CE3E6CF2EE140E06EE18BE0A9
:100D600090E00E9404192EE140E06EE18AE090E0FC
:100D70000E9404192EE140E06EE189E090E00E94BB
:100D800004192EE140E06EE188E090E00E94041931
:100D900094CF20E040E06CE38BE090E00E940419E7
:100DA00020E040E06CE38AE090E00E94041920E03B
:100DB00040E06CE389E090E00E94041920E040E00C
:100DC0006CE3E2CF8530C0F46330B0F44430A0F47B
:100DD000E62FF0E093E0899FE00DF11D1124EE0F66
:100DE000FF1FEE0FFF1FE40FF11DEE0FFF1FE75A6D
:100DF000FD4F85919491089581E090E008950E94BF
:100E0000E2060895853088F461110FC090E0880FE4
:100E1000991FE1E0E427E80FF92FF11DEE0FFF1F06
:100E2000EB5BFD4F85919491089581E090E00895EA
:100E30000E940207089581E008950E941B0708950B
:100E400081E008950E941B0708950E9422070895DB
:100E500008950E9428070895A6E0B0E0E2E3F7E0D5
:100E60000C949D3149835A839E833091130289816A
:100E70009A8131111AC03E81332399F0222389F0DF
:100E80000E94250D182F682F89819A810E94F30CEA
:100E900069817A81812F0E945E142696E3E00C948A
:100EA000B9310E940C0D182FF3CF0E94250D6981D6
:100EB0007A81F1CFFC01262F4081518162817381BB
:100EC000848195810E942C070895CF93DF93EC01D4
:100ED00061E00E945A07BE010E941D07DF91CF9179
:100EE0000895CF93DF93EC0160E00E945A07BE01A2
:100EF0000E942907DF91CF91089521E030E0A901F8
:100F000002C0440F551F8A95E2F7CA010E94150CD2
:100F10000895CF93C82F81E090E00C2E02C0880F77
:100F2000991F0A94E2F70E9491118C2F0E947D076D
:100F3000CF91089581E008950E949A070895CF9374
:100F4000C82F0E94C80B8C2F0E949C072FEF84E3B0
:100F50009CE0215080409040E1F700C00000CF911C
:100F6000089581E00E949F070E942F29089580E044
:100F70000E949F070E94402908950F931F93CF93CB
:100F8000DF938C0161E00E945A07EC01B8010E94D6
:100F90002507811106C080E0DF91CF911F910F914D
:100FA0000895B801CE010E94E7258823A1F3B80176
:100FB000CE010E942322882371F3B801CE010E9442
:100FC000F921882341F3B801CE010E9497168823A6
:100FD00011F3B801CE010E94E9168823E1F2B801AD
:100FE000CE010E946F158823B1F2F8018581882314
:100FF00061F0C330FCE7DF07E9F058F4C115ECE716
:10100000DE07A9F0C130DC47B9F0C8010E94200713
:10101000C3CFCB358CE7D807A9F0CC35ECE7DE079A
:1010200071F0CA35DC4789F70E946C11EECF0E943F
:10103000B107B1CF0E9474110E94B707ACCF0E94D4
:101040006211E3CF0E947011E0CF0E9445280E94F8
:10105000A71B0E94730881E00E94251C0E94E81FC4
:1010600008950E94770880E00E94251C0E944A286B
:101070000895292F332740E02115310511F0C901CA
:1010800048E09C0164E0369527956A95E1F72115C3
:10109000310511F04C5FC9019C01369527953695B5
:1010A00027952115310511F04E5FC9019695879559
:1010B000892B09F04F5F842F089581E008950895EA
:1010C000CF93DF93D82F0E945D08C82F882319F093
:1010D0008D2F0E945F088C2FDF91CF910895089586
:1010E0000E946008089580E00E94700808950E94A0
:1010F00030260E9470080895CF930E943026C82F92
:1011000080910E028C1779F0C0930E020E94D428B1
:1011100060930F0270931002809311029093120259
:101120008C2F0E947008CF910895ADE0B0E0EBE9FC
:10113000F8E00C949E31488759876A877B878C87B3
:101140009D8791110E9472101F8286E0FE013896E1
:10115000DE01119601900D928A95E1F78D81811142
:101160000DC029813A814B815C816D817E818F81A7
:101170000E94BC0F2D96E2E00C94BA31CE0101968C
:101180000E9465078111EDCFF5CFFC01248121304C
:1011900021F4808191810E94570D0895662329F0E2
:1011A0000E9484230E94572408950E94DE23FACFD0
:1011B000CF93C82F882399F08CEF8C0F813A88F455
:1011C0008C2F0E94D026882329F08C2F0E9476270E
:1011D0000E9406118C2F0E945C270E940611CF915D
:1011E000089580E28C0F883048F4C77081E001C018
:1011F000880FCA95EAF70E945510EFCFEBE5EC0F88
:10120000E33040F4F0E0EC56FE4F808190E00E9425
:101210006426E5CFE8E5EC0FEB3150F4F0E0EE0F9B
:10122000FF1FE25AFE4F808191810E948926D7CF0D
:1012300083E38C0F833198F661E08C2F0E94CE08F7
:10124000CECF882381F19CEF980F913A28F40E9429
:1012500076270E940611089590E2980F983050F476
:10126000877091E001C0990F8A95EAF7892F0E9453
:101270005B10EFCF9BE5980F933028F490E080E06F
:101280000E946426089598E5980F9B3128F490E019
:1012900080E00E948926089593E3980F933118F413
:1012A00060E00E94CE0808951F93CF93DF93182F1C
:1012B000EB010E94D808209739F4812F0E94210960
:1012C000DF91CF911F9108958FE99FE00197F1F78A
:1012D00000C000002197EFCF70E060E0893311F487
:1012E00060E570E00E9454090895882321F00E946F
:1012F00055100E9406110895882321F00E945B106A
:101300000E9406110895B0E0A0E0E9E8F9E00C942D
:1013100097316C01D62FC72FFC01158106810295EC
:101320000F700E944B10E82E8823F9F0E12E112354
:10133000E1F08C2F807F803461F080E28D0F883067
:1013400008F18C2F807E803221F4D230D8F0002337
:10135000C9F08091600382FF15C082E00E943611BF
:101360000E944B1091E0E82EE926BC2EB2949FE03B
:10137000B922FBE0FB15B8F1EB2DF0E0EB52FD4C90
:101380000C948831E12CF1CF0C2F0F70C07F11F03D
:101390000295007F112399F0002359F080E28D0F10
:1013A000883010F0D11107C0802F0E9455100E9484
:1013B00006118D2F5AC0802F0E946510F8CF8D2FF7
:1013C0000E942109002379F080E28D0F883010F00F
:1013D000D11104C0802F0E945B1003C0802F0E9497
:1013E0006B100E940611EB2DE850FF0B349720F490
:1013F0000E9430260E947008EE2089F00E9447105B
:1014000080FD0DC0F60115820E9441100E94510C12
:10141000C6010E948F0B0E9441100E94610CCDB743
:10142000DEB7E9E00C94B3312C2F2F70F22EC07F81
:10143000C03219F0F29480EFF822DD2341F0D13070
:10144000D1F1112309F444C00023F1F0B2CF80910F
:10145000600382FD15C0112359F0FF2029F08F2D64
:101460000E9455100E94061180E00E94D808BBCF50
:1014700080E00E942109FF2009F4B5CF8F2DABCF6A
:10148000112369F0011104C08F2D0E947509ABCFA3
:10149000013009F0A8CF8F2D0E948910A4CF01112F
:1014A000A2CF8F2D0E947C098F2D0E9495108F2D29
:1014B0000E94791098CF112321F0063008F093CFC5
:1014C000E3CF053008F08FCF8F2D0E947C098BCFA2
:1014D0000023D1F3D93349F43FEF87EE93E0315045
:1014E00080409040E1F700C000008D2F0E9421094C
:1014F0007ACF8C2F86958695837069F0813009F0BC
:1015000072CF8D2F9C2F9370111102C080E090E05C
:101510000E94892668CF8D2F9C2F9370111102C0D5
:1015200080E090E00E9464265ECF612F8D2F0E94A4
:10153000CE0859CF8C2F8370A1F5111154CF4D2FA8
:10154000429546954770440F440F2D2F2F7030E081
:10155000042E02C0220F331F0A94E2F790E080E0CD
:10156000D4FF09C08FE090E002C0880F991F4A9510
:10157000E2F780959095C695C695C370822B932B04
:10158000C23049F058F4C13019F00E94210C2BCF21
:101590000E94180C28CF0E942A0C25CF0E94150CFF
:1015A00022CF8695112311F08C2F8170882309F4A6
:1015B0001ACF4D2F429546954770440F440F2D2F5B
:1015C0002F7030E0042E02C0220F331F0A94E2F77E
:1015D00090E080E0D4FF09C08FE090E002C0880F67
:1015E000991F4A95E2F780959095C695C695C37068
:1015F000822B932BC23049F058F4C13019F00E946D
:101600008C0CF1CE0E94830CEECE0E94950CEBCE9A
:101610000E94390CE8CECF70112329F08C2F0E9444
:10162000510C8D2F32CF8D2F0E947C098C2F0E9460
:10163000610CD9CED23F41F160F4D03FB9F0D13F37
:1016400081F0112309F443C00111B3CE8C2F8F71A7
:101650001FC0D33F01F1D43FA1F78091600382FD09
:1016600024C08C2F8F71112311F312C0112341F06C
:10167000053008F0B8CE8C2F8F710E94730CB3CE5A
:10168000063008F0B0CEF7CF8C2F8F711111CFCF6D
:101690000E94510CA8CE112329F08C2F8F710E942B
:1016A000450CA1CE0E94400C9ECE112331F063E088
:1016B0008C2F8F710E94181196CE81E00E943611F6
:1016C000023008F490CE82E00E9436118CCE0023C6
:1016D00059F0D93309F009CFEFEFF7EE23E0E150ED
:1016E000F0402040E1F7FFCE8C2F8F71A0CF0F93F9
:1016F0001F93CF93DF93EC01688179818D810E94E4
:10170000620D8C010E949E0C0E94140CB801CE0147
:101710000E948309DF91CF911F910F910895CF937C
:10172000DF93EC018C81882399F0CE010E94BD07E4
:10173000811111C00E944B10882351F08D818823A4
:1017400039F08091600382FF03C082E00E9436116D
:10175000DF91CF910895CE010E94770BCE010E94B8
:101760007107F6CF90E080E00E94642690E080E070
:101770000E9489260E9472100E9406110E94732402
:101780000E94572408950E9490270E94B20B08954A
:101790000E9462100E94C30B089592959F7096302C
:1017A00091F058F4925F9F70923058F4803F19F096
:1017B00030F4883E30F481E008959A5FF4CF843F9E
:1017C000D1F380E00895883EB0F3813FD1F7F3CFA5
:1017D000FC012481222339F0808191810E94570DE0
:1017E0000E94CD0B089580E00895A6E0B0E0EBEFF5
:1017F000FBE00C949E312696E2E00C94BA31A7E00F
:10180000B0E0E5E0FCE00C949E312796E2E00C9419
:10181000BA3108950E94090C08950E940A0C909311
:10182000230280932202089508950E940D0C0895CA
:101830002091220230912302822B932B0E940D0CC7
:1018400008952091220230912302822393230E9443
:101850000D0C0895209122023091230282279327B4
:101860000E940D0C08950E94090C08950E94330CEB
:1018700008950E94360C90932102809320020895CF
:1018800090E080E00E94390C089521E030E0A90149
:1018900002C0440F551F8A95E2F7CA010E94390C15
:1018A000089521E030E002C0220F331F8A95E2F74D
:1018B0008091200290912102822B932B0E94390C5F
:1018C000089521E030E002C0220F331F8A95E2F72D
:1018D00020953095809120029091210282239323BC
:1018E0000E94390C089521E030E002C0220F331F1E
:1018F0008A95E2F780912002909121028227932716
:101900000E94390C08952091200230912102822BEF
:10191000932B0E94390C08952091200230912102CE
:10192000822393230E94390C089520912002309144
:101930002102822793270E94390C08950895262FAB
:10194000277091E001C0990F2A95EAF723E0769578
:1019500067952A95E1F7660F771F660F771FFA01E3
:10196000E60FF71F50E040E0682F70E08191DF0143
:1019700011979B01042E02C0369527950A94E2F731
:10198000217021952827292328272C934F5F5F4F0B
:101990004430510559F70895A82FA77023E0969574
:1019A00087952A95E1F7880F991F880F991FFB01EA
:1019B000E80FF91F50E040E080E0219130E00A2E6E
:1019C00002C0369527950A94E2F721703327042E3A
:1019D00001C0220F0A94EAF7822B4F5F5F4F443019
:1019E000510559F70895282F862F933068F4243035
:1019F00050F434E0939FB0011124620F711D48E14F
:101A000052E00E949F0C08959C5F9230E0F7622F95
:101A100070E044E152E0F5CF933070F4843098F4F4
:101A200044E0949F9001112468E172E0820F932FAB
:101A3000911D0E94CC0C08959C5F923020F464E1CB
:101A400072E090E0F6CF80E00895B0E0A0E0EBE235
:101A5000FDE00C9497317C0100912002109121024D
:101A60008091220290912302082B192BCFE0D0E025
:101A7000CC24C394D12CBC2EC6010C2E02C0880FDE
:101A8000991F0A94E2F780239123892B49F4219727
:101A900090F7B12C8B2DCDB7DEB7E9E00C94B331C4
:101AA000B7018C2F0E947714019789F3F3CFCF935E
:101AB000DF93EC010E94250DBE010E947714DF9197
:101AC000CF9108951F93CF93DF93EB019091130271
:101AD000992339F0CB010E94570DDF91CF911F91CF
:101AE0000895882369F0CB010E94250D182F682FD7
:101AF000CE010E94F30CBE01812F0E947714EDCF1E
:101B0000CB010E940C0D182FF6CF1F93CF93DF93BC
:101B1000C091240217E0809125028C1304C0DF914C
:101B2000CF911F910895D0E01C9FF0011D9FF00DF3
:101B30001124EA5DFD4F208131814281538164810E
:101B4000758186810E94FF0B2196C770E4CF20919A
:101B50005E0230915F02409160025091610260919B
:101B6000620270916302809164020E94FF0B0895EB
:101B7000CF93DF9380916402807F09F04DC0809104
:101B80006302882309F448C0E091240250912502A1
:101B9000C0915F02D0915E0260916002709161021B
:101BA00047E05E17C9F18E2F90E0E49FF001112409
:101BB000EA5DFD4F2481222391F1489FF001499F66
:101BC000F00D1124DF01AA5DBD4F11962C911197E4
:101BD0002C1325C02C912D1322C015962C911597EE
:101BE00021111DC012962D913C91261B370B283CCC
:101BF0003105A8F4809164028F7080618093640243
:101C0000E45DFD4F80818F70806180838EE592E07E
:101C10000E948F0B0E94850DDF91CF910895FC01EA
:101C20003196E770BECF482F209124029091250273
:101C300057E0291302C080E0089530E0529FF00180
:101C4000539FF00D1124EA5DFD4F8181681306C09A
:101C50008081481303C085818111EECF2F5F3F4FF4
:101C60002770E7CFA4E1B0E0E8E3FEE00C94943104
:101C70008C0186E0F801DE011F9601900D928A9595
:101C8000E1F7F8018481E5809EE5A92E92E0B92E66
:101C90009091620291111FC08823D1F0EE20A9F02B
:101CA000C8010E94E80BF82E882379F087E0F8013C
:101CB000D50101900D928A95E1F7C5010E94C508F2
:101CC0000E94B80D0E94A70D5FC0C8010E948F0B33
:101CD000FF24F39459C0C080D18082809380F0901B
:101CE00063022091600230916102A401421B530BF8
:101CF000FF2009F4F9C0483C510508F0A7C088232B
:101D000009F442C090915F0280916402282F207FE5
:101D100009F05CC09D1116C090915E02C91212C0FC
:101D2000E1104EC08F708061809364020E94A70D05
:101D30008EE592E00E948F0B80916402F801868309
:101D4000F12C22C0E1103CC06D2D8C2D0E94130E91
:101D50006D2D8C2D0E94130EE82E8111F1CFCF86B0
:101D6000D88A8F8598890E94570D292F22952F7028
:101D7000243078F49F702230A8F09923B9F0F8014C
:101D80009681907F99F4FE2C8F2D6496ECE00C9454
:101D9000B0312A5F2F70223068F0C8010E948F0B8B
:101DA000EF2CF1CF992311F0882369F3805E8830FE
:101DB00050F3F3CF803F38F3815F833070F7E3CF88
:101DC00080916402816080936402BACF9D1113C038
:101DD00090915E02C9120FC0E1100DC08683C80148
:101DE0000E948F0B87E0F801AEE5B2E001900D9202
:101DF0008A95E1F767CFC8010E94E80B882309F4B0
:101E000064CFEE2009F461CF80916402803288F0C3
:101E100020915E0230915F02398728879B868A86EF
:101E2000909162029C871D868E87CE0108960E9443
:101E30008F0B87E0F801AEE5B2E001900D928A9534
:101E4000E1F70E94B80D0E94A70D42CF9091640265
:101E5000292F207FA1F4682D9A8A898AA6017A8980
:101E60009E2D0E94F50B8EE592E00E948F0B87E07D
:101E7000F50111928A95E9F70E94A70D61CF882399
:101E800009F482CF80915F028D1110C080915E02B3
:101E9000C8120CC0E1100AC09683C8010E948F0BC3
:101EA00087E0F50111928A95E9F76ECFC8010E948B
:101EB000E80B882309F409CFEE2009F406CF8091BE
:101EC0006402803208F4B5CF20915E0230915F0247
:101ED0003A8329839C828B82909162029D831E8229
:101EE0008F83CE010196A3CF483C5105B8F58823D6
:101EF00009F4EECEFE2CEE2009F4E7CE80915F02CD
:101F00008D111EC080915E02C8121AC080916402B9
:101F100080FD0DC0982F907F51F08683903F09F48B
:101F20005ECF982F907F905F8F70892B57CF87E07F
:101F3000F801AEE5B2E001900D928A95E1F724CF69
:101F4000C8010E94E80B811174CF80916402816006
:101F500080936402C8010E948F0B16CF682D9A8A65
:101F6000898AA6017A899E2D0E94F50B87E0F501EA
:101F700011928A95E9F7A6CEAEE0B0E0E2ECFFE080
:101F80000C949D31288739874A875B876C877D87CA
:101F90008E87CE0108960E94320E8823B1F06C85A0
:101FA000662341F0288539854A855B857D858E8548
:101FB0000E94FF0B17E08091240290912502891363
:101FC0003DC02E96E3E00C94B93187E0FE013896CF
:101FD000DE01119601900D928A95E1F78C85882398
:101FE00049F32091250230E0C901019687709927B5
:101FF000409124024817190699F097E0929FD0016A
:10200000939FB00D1124AA5DBD4FFE013196019042
:102010000D929A95E1F7809325020E94850DCACF13
:102020000E94C80B109225021092240287E0EEE570
:10203000F2E0DF011D928A95E9F7BCCF819FC001D4
:1020400011248A5D9D4F0E94320E882309F4B9CF76
:10205000E09124021E9FF0011124EA5DFD4F2081D2
:102060003181428153816481758186810E94FF0B99
:102070008091240290E00196877099278093240232
:102080009ACF80918D028695869586950895809148
:102090008D028770089590918D02977081E009F408
:1020A00080E008958091B90208959091B902892B3A
:1020B0008093B902089580959091B90298239093E6
:1020C000B90208951092B90208959091B802892B2F
:1020D0008093B802089580959091B80298239093C8
:1020E000B80208951092B802089508950E947510DC
:1020F000089590918E02292F282331F0809589230D
:1021000080938E020E947610089508950E94851093
:10211000089590918F02292F2823281729F0982BB2
:1021200090938F020E948610089590918F02292F1C
:10213000282331F08095892380938F020E94861096
:10214000089580918F02882329F010928F0280E0F9
:102150000E9486100895CF93C091B9028091B80271
:10216000C82B80918F02882331F0C82B0E94AE26A5
:1021700081110E94A1108C2FCF910895CF93DF93EE
:10218000C0913601D09137010E94AB108883C09175
:102190003601D091370148E050E065E872E0CE01A9
:1021A0000E942A32892B59F088E0FE01A5E8B2E0AE
:1021B00001900D928A95E1F7CE010E943D26DF91B4
:1021C000CF910895CF93DF93C0913401D091350121
:1021D0000E94AB108983C0913401D091350140E257
:1021E00050E065E672E0CE010E942A32892B59F058
:1021F00080E2FE01A5E6B2E001900D928A95E1F73A
:10220000CE010E944826DF91CF9108950E94202898
:10221000813039F480915F0387FF03C00E94E21090
:1022200008950E94BE10089508950E941411089503
:102230009091600392FF11C098E0899F9001112452
:10224000622B60938D020E94510C80918D028695C5
:10225000869586950E94151108950E94510C089547
:1022600010928D0280E00E941511089590918D02C8
:102270008095892380938D02282F277069F4891710
:1022800059F09091600392FF07C0869586958695D8
:102290000E94610C0E94301108959091600392FB9E
:1022A000222720F9281769F080FB92F990936003A8
:1022B00080915F03909160030E949C1182E00E94D4
:1022C000361108958091600382FB882780F991E0A0
:1022D00089270E944D11089581E00E944D110895B3
:1022E00080E00E944D1108956FEF7FEF90E080E055
:1022F0000E948C32089590E080E00E94583221E0E4
:10230000853E9E4F09F020E0822F089582E090E004
:102310000E945032089583E090E00E94503290E095
:102320000895682F83E090E00E946E32089584E063
:1023300090E00E9458320895BC0184E090E00E9431
:102340008C320895AB01BC018FE090E00E94803296
:102350000895AB01BC0183E190E00E9480320895B2
:1023600060E070E0CB010E94A911089560E070E088
:10237000CB010E94A2110E94B0110895A8E0B0E024
:10238000E4ECF1E10C949E3165EE7EEF90E080E0AC
:102390000E948C3260E082E090E00E946E3281E028
:1023A00090E090932302809322020E94911160E0BA
:1023B00074E184E090E00E948C3260E086E090E07E
:1023C0000E946E3260E087E090E00E946E3240E052
:1023D00050E0BA0188E090E00E94803260E083E241
:1023E00090E00E946E3260E08CE090E00E946E32DD
:1023F00060E08DE090E00E946E3219821A821B82AA
:102400001C821D821E821F82188648E050E067E110
:1024100070E0CE0101960E945E3240E050E0BA01C9
:102420008FE190E00E9480320E94B6112896E2E08F
:102430000C94BA310E94BE110895682F8EE090E08E
:102440000E946E320895A6E0B0E0E9E2F2E10C9459
:102450009C310E94C8288C018091BA029091BB02E5
:102460008017910781F019821A820E94C828682F6C
:1024700049815A81792F80E090E00E94950810935D
:10248000BB020093BA022696E4E00C94B8310E9495
:10249000D4286093C7027093C8028093C9029093B6
:1024A000CA026093C3027093C4028093C5029093E2
:1024B000C60208950E94D4286093C7027093C80290
:1024C0008093C9029093CA026093BF027093C002C6
:1024D0008093C1029093C2020895089508950E94C6
:1024E0006D12089508950E94721208958DE695E187
:1024F0000E9492160E946E120E946F12089581E04F
:1025000008950E947F1208950E947F1208950895F1
:1025100008950E9487120E94881208950E947B11DC
:10252000811102C00E941A120E9486118093CB0270
:102530000E9497119093600380935F030E948B1118
:102540000E94150C80912002909121020E94360C6D
:1025500008950E94BF280E9434200E94EB150E941B
:102560008E120E946F080E940C1C80E00E948F1D3A
:102570000E9473120895A6E0B0E0E1ECF2E10C9441
:1025800094310E948112C82E811111C00E94231221
:10259000C12C0E94A71B0E949B20882309F464C0C1
:1025A0000E945A120E9406200E94D51E61C00E94FD
:1025B00001161091BC0280E00E94891518130EC00C
:1025C0001091BD0281E00E948915811307C010910E
:1025D000BE0282E00E9489151817C1F28091CB02D9
:1025E00081FD0E948F150E948412882E8CEBA82EEC
:1025F00082E0B82E10E0812F0E948915F82EF50197
:1026000081915F01F81651F1DF2CD82600E0EE240D
:10261000E3948D2D8E21D9F0992493948F2D8E21C2
:1026200009F4912C882071F009831A830E94C8282C
:10263000682F8B839C8349815A81792F81E0992D62
:102640000E949508492D602F812F0E94EF190F5F7E
:10265000EE0C0430F1F6F5013197F0821F5F133074
:1026600051F60E94471295CF0E940620C1109CCFC0
:102670000E9495240E947C082696ECE00C94B031D0
:102680001F93CF93DF930E947C14EC01C11580E56A
:10269000D807F0F5C11580E4D80708F09CC0C03E0B
:1026A000D10520F5CD3CD10508F082C0C83AD1054E
:1026B00078F4C53AD10508F073C0C130D10519F1DD
:1026C000209709F1C430D105F0F4D0E0C0E01BC080
:1026D000C33CD105D0F7C85AD0E0CC0FDD1FC95696
:1026E000DE4F0990D881C02DD4640DC0C11580E2A1
:1026F000D80708F0D1C0C11581E0D80708F05AC04A
:10270000C83ED10510F7CE01DF91CF911F910895FA
:10271000C03682E5D80718F5C03482E5D80708F03E
:102720006BC0C03282E5D80708F05FC0C11582E5F2
:10273000D80708F497C02C2F2695269580E2289F6D
:10274000900111248C2F8370C1E0D0E002C0CC0F27
:10275000DD1F8A95E2F7C22BD32BDD68D4CFC03AB8
:1027600082E5D80760F4C03882E5D80708F459C07C
:10277000CF71D0E0DC2FCC27C46FD06AC4CFC03C6F
:1027800082E5D80708F462C0C03E82E5D80708F0A9
:102790009CCFDC2FCC27CC27DF71C06FD06AB3CFA2
:1027A000C55AD0E0C353DE4FC881D0E0D064ABCF70
:1027B000D065A9CF8D2F0E941E15182FCE01992705
:1027C0000E947C14C12FD0E0DC2FCC27CC27DF71F6
:1027D000C82BD92B98CFCE0199270E947C14CC27E7
:1027E000DF70C82BD92BD06A8ECFCF71D0E0DC2F11
:1027F000CC27C16FD06A87CF2C2F269526952770BE
:1028000080E2289F900111248C2F8370C1E0D0E0DA
:1028100002C0CC0FDD1F8A95E2F7C22BD32BDC68F8
:1028200072CF2C2F26952695277080E2289F900145
:1028300011248C2F8370C1E0D0E002C0CC0FDD1FCB
:102840008A95E2F7C22BD32BDA685DCF8C2F8F717C
:102850000E941E15C82FD0E0DC2FCC27CC27DF71BB
:10286000D06251CF8C2F8F710E941E1555E0D695E6
:10287000C7955A95E1F7CF70D0E0DC2FCC27282FF1
:1028800030E084FF05C044E0220F331F4A95E1F792
:10289000C22BD32BD06937CF8D2F8F710E941E157D
:1028A000182FCE0199270E947C14C12FD0E0DC2F75
:1028B000CC27CC27DF71C82BD92BD2CF462F672F3F
:1028C000733028F4443080F40E94FF0608957D3F61
:1028D00039F4411109C041E060E00E9418070895F1
:1028E0007C3F11F44423C1F390E080E008950E94FE
:1028F0005E140E944013089582389105B9F1B0F436
:102900008133910509F47DC048F48932910509F4B9
:102910006DC08A32910509F47BC008958533910515
:1029200009F45FC08933910509F10895833E91054B
:10293000D9F138F4803E910529F1823E910579F173
:102940000895863E9105D9F1873E910509F43EC070
:10295000843E910541F52091600321FF24C08091C0
:102960005F0384FD19C087EE90E0089520915F0316
:10297000237009F05AC02091600323FF14C089E23C
:1029800090E0089520915F0320FD38C030916003EE
:1029900030FF09C024FF43C090E080E008952091FB
:1029A0005F0322FDF7CF089520915F0322FD3AC017
:1029B0003091600330FD39C024FFF5CFEDCF209179
:1029C0005F0323FFF0CF24FDE7CFCDCF20915F033E
:1029D00023FD2EC03091600331FFEECF84EE90E0F6
:1029E000089520915F0325FFDECFC9CF20915F03BB
:1029F00025FD21C02091600323FFD5CF89E390E01E
:102A0000D2CF20915F0326FFCECF8AE290E00895D7
:102A100020915F0326FFC7CF81E390E0089583EE06
:102A200090E0089582EE90E0089580EE90E00895A1
:102A300086EE90E0089585E390E0089590915F031D
:102A400092FF10C041E0282F2471243009F040E0AB
:102A500031E0282F2871283009F030E0431711F0B9
:102A60002CE0822793FF10C041E0282F24712431ED
:102A700009F040E031E0282F2871283109F030E0DA
:102A8000431711F02CE082273091600330FF10C013
:102A900051E0282F2171213009F050E041E0282F2A
:102AA0002871283009F040E0541711F029E08227FE
:102AB00031FF10C041E0282F2171213109F040E0A1
:102AC00031E0282F2871283109F030E0431711F048
:102AD00029E0822794FD877E089580E00895CF93B2
:102AE0009C01205E3245C1E02032310538F4FB0103
:102AF000C581C11103C08F710E9489078C2FCF91AE
:102B0000089508950E948115089508950E948515DD
:102B10000895E82FF0E0EC59FC4F80810895089566
:102B20001F93CF93DF9320ED31E0C1E0D0E0D901D6
:102B300050E040E08D918F3F91F0E82FE295EF70EB
:102B4000F0E011A18F70BE0101C0660F8A95EAF70F
:102B5000962F9095912391A382A1862B82A34F5FFC
:102B60005F4F4430510531F72C5F3F4F81E02C3DE2
:102B70003807E9F6DF91CF911F910895CF93DF9346
:102B8000AC0170E0FB01EE0FFF1FEE0FFF1FE053E3
:102B9000FE4FA4E0B1E080E091919F3FD1F0C92FBA
:102BA000C295CF70D0E028A130E09F7002C035956B
:102BB00027959A95E2F720FD0CC02B2F822BBB0F97
:102BC000A15051F7640F751FFB018083DF91CF91F6
:102BD000089520E0F3CF0E94901583E0E4E6F3E04F
:102BE000DF01982F1D929A95E9F7E1E6F3E0DF0106
:102BF0001D928A95E9F783E00E9440160E94821593
:102C00000895A3E0B0E0E7E0F6E10C949D3119826D
:102C10001A821B8260E0CE0101960E94BE1561E01F
:102C2000CE0101960E94BE1562E0CE0101960E947F
:102C3000BE1543E050E0BE016F5F7F4F81E693E039
:102C40000E942A3221E0009709F420E0892B49F004
:102C500089819A81AB818093610390936203A093F1
:102C6000630343E064E673E081E693E00E9441166B
:102C7000182F0E948615812F2396E3E00C94B9311A
:102C80000895B0E0A0E0E7E4F6E10C9498316C011F
:102C90007B01042FC22F222379F081E08093CE02A2
:102CA0000E94C8289093CD028093CC0280E0CDB7DB
:102CB000DEB7E8E00C94B431D091CE02DD23B1F35D
:102CC0008091CC029091CD020E94E028059770F38C
:102CD00010E0A801B601C7010E942A32892B31F009
:102CE000A801B601C7010E943732CD2F1092CE0243
:102CF0008C2FDDCF0E94BB1208950E9461280E9494
:102D0000EE2B0E9476120E94082C0E94A9120E94AB
:102D1000152C0E941A2C0E947A160E94342C0E94B4
:102D20008912F7CF90930D0280930C0208950F93B0
:102D30001F93CF938C01FB01C581CC2309F447C0BD
:102D40000E9452108272F801E052F847EB30F10510
:102D500038F4EF51FD4C0C9488310E944A1CC0E0BD
:102D60008C2FCF911F910F910895882329F00E94F5
:102D7000A81CF5CF8823D9F30E94981CF0CF882394
:102D800029F00E94DC1CEBCF8823D9F30E94CB1CD6
:102D9000E6CF882329F00E94021DE1CF8823D9F3D2
:102DA0000E94EF1CDCCF882329F00E94281DD7CF7A
:102DB0008823D9F30E94151DD2CF882329F00E94C1
:102DC000461DCDCF8823D9F30E94371DC8CFC1E05F
:102DD000C7CF1F93CF93DF93EC01FB011581111136
:102DE00010C00E9452108272FE01E054F847ED308C
:102DF000F10508F043C0E451FD4C0C9488310E9469
:102E00005B1C812FDF91CF911F9108950E946D1C53
:102E1000F8CF0E944A1CF5CF882329F00E94A81CF5
:102E2000F0CF8823D9F30E94981CEBCF882329F098
:102E30000E94DC1CE6CF8823D9F30E94CB1CE1CF93
:102E4000882329F00E94021DDCCF8823D9F30E9439
:102E5000EF1CD7CF882329F00E94281DD2CF8823CA
:102E6000D9F30E94151DCDCF882329F00E94461D5D
:102E7000C8CF8823D9F30E94371DC3CF11E0C1CF3B
:102E8000EF92FF920F931F93CF93DF939B01682FD5
:102E900031110EC0442329F0E82FF0E0EF52FD4F2E
:102EA0006491762F862FCDB7DEB7E6E00C94B6316D
:102EB000C32FD0E0E82FF0E0442321F0EF52FD4F84
:102EC000E491F0E046E0249FC00111240FEF10E0F0
:102ED000B8010E943E31AB01822F90E0880F991F0C
:102EE00025E5249FB001259F700D1124861B970BAB
:102EF000982F990F980FB8016C1B7D0B6E9FD00116
:102F00006F9FB00D7E9FB00D11248B2F939F90016A
:102F10001124232F3327B801621B730B6E9F90017E
:102F20006F9F300D7E9F300D11247801E91AF10852
:102F3000EC9EB001ED9E700DFC9E700D1124672F6C
:102F40007727061B170B0E9FE0010F9FD00D1E9FCA
:102F5000D00D11247D2F9E2F4230510599F048F459
:102F60004115510569F04130510581F07B2F832FC8
:102F700007C04430510569F080F046305105B1F783
:102F8000692F91CF9B2F8D2F7E2FFACF7E2F932FDE
:102F9000F7CF9D2F7B2F8E2FF3CF732F9B2FFBCF40
:102FA00041E00E944017089530E020E0869F212DE7
:102FB000969F200D311D1124C9010895AC01823066
:102FC000910508F408959FEF413E8EE1580740F4C3
:102FD0009A0195E0369527959A95E1F798E0920F3A
:102FE00061E0E62FE90FFF27FF1F9F013595279529
:102FF000822F229FF001239FF00DF00D11244E1718
:103000005F0738F49FEF920F961758F78FEF860FF0
:1030100008952F3FE9F361E0620FF6CFE82F86FDB8
:10302000E0952E2F2F7086FD2F5FE695E695E695AD
:10303000E670F0E0E452FE4F9181929F902D212D99
:10304000112492959F702295207F922B2081920FC0
:1030500087FD919580E8890F08959091D102892B81
:103060008093D102089548E050E067E170E087E680
:1030700093E00E945E321092D10208950E94D01710
:103080000895B0E0A0E0E7E4F8E10C949131782EE7
:10309000662E862F90E024E0729E80011124F801B4
:1030A000EC5FFE4FE80FF91FC081CF3FA9F1B12CB3
:1030B000A12C812CD0E09E01220F331FA901405F7B
:1030C0005E4F6A01E901CF5EDE4F09521D4F080FC6
:1030D000191F7501912C88E2582EF701EC5FFE4F05
:1030E00080818F3F59F078101CC069101AC0F80118
:1030F000208130E2230F08F42FEF208393944FEFC9
:10310000E41AF40A54E09512E8CF839484E0A80E00
:10311000B11CE3E08E12DDCFCDB7DEB7EFE00C944B
:10312000AD3190E0F6012081FC01EE0FFF1FE05F62
:10313000FE4F3081231B330B4881880F991FFC0100
:10314000EC5FFE4F8585481B550B229FB001239FE6
:10315000700D700D1124449FC001459F900D900D7E
:103160001124860F971F0E94DE17893238F6252D0D
:10317000382F231B08F420E0F701E952FD4F2131DD
:1031800008F020E13081320F08F43FEF3083B6CFF2
:10319000E7E6F3E08DE0808380915B0190915C0134
:1031A000A0915D0181839283A3838FE784838FEF56
:1031B00085830E943318089580E008950F931F932C
:1031C000CF93DF93C82FD62F8A010E94DC1894E09A
:1031D000C99FB00111246C5F7E4F6D0F711DFB0103
:1031E00090819F3F29F0F801E80FF11D90838F5FD8
:1031F000DF91CF911F910F910895E091EA01F09135
:10320000EB01099508950895FF920F931F93CF93B3
:10321000DF93162F042FF22EC091E601D091E70123
:103220000E9403192F2D402F612FFE010995CDB764
:10323000DEB7E5E00C94B731E091E801F091E901E7
:1032400009950895A8E0B0E0E8E2F9E10C94913125
:10325000FC0110916A0323E0129F70011124F6947F
:10326000E794F694E7945E2C812E912C8FEF90E0FA
:10327000B4010E945231762E8281882371F040E0A1
:1032800060E080E00E941C19E7EDF2E08CE0DF01D5
:103290001D928A95E9F71092D0028091CF028F5F3C
:1032A0008093CF0287EDA82E82E0B82E612C8E1875
:1032B0009F08650100E08091D002802B09F06FC06B
:1032C0000E941132853595400CF069C0F5011083DC
:1032D000AE014F5F5F4F662D802F0E94DE1888235E
:1032E000C9F0F6012081E981F0E0521608F066C0CD
:1032F00030E02E193F092E9DC0012F9D900D3E9D5F
:10330000900D1124B4010E943E31262F412FCF0190
:103310000E9404190F5FF4E0CF0ED11C033059F660
:1033200063942FEFA21AB20A64E06612C2CF8091B2
:10333000CF02871102C01092CF028091D0028F5F1E
:103340008D3108F445C01092D00222E030E082E0D6
:103350004BED52E09FEF910FA4E08A9FF001112402
:10336000ED52FD4FA7EDB2E0823041F418966C911A
:103370001897161303C018969C93189760816117CD
:1033800010F090831483119631964A175B0761F70A
:1033900081E021303105F1F021E030E0DDCFD601D0
:1033A0008C91882309F494CF811708F091CF9091E4
:1033B000CF0297118DCF81508C938ACF129FC0017D
:1033C0001124B7010E943E31462F20E060E09FCFDC
:1033D0008093D00280E02896EFE00C94AD311F93EB
:1033E000CF93DF93C82FD62F142F0E947F128823EC
:1033F00059F0112349F0809167038C7F8C3021F4C0
:103400006D2F8C2F0E944118DF91CF911F9108954D
:1034100081E008950E94081A0895982F990F890F46
:1034200093E0980F9D3008F09CE00895B0E0A0E094
:10343000ECE1FAE10C9498317C01FC0180810E945E
:103440000D1AC82F192F609168037091690380913C
:103450006A030E943E18062FD72EC82ED0E0C1174F
:1034600048F081E01C3008F080E0CDB7DEB7E8E03E
:103470000C94B431FE01EC5FFE4F84A1F701918101
:10348000892331F02C2D4D2D602FCE010E9404197F
:103490002196E5CFB0E0A0E0E0E5FAE10C949831A8
:1034A0008C01FC0180810E940D1AC82FF92ED0904A
:1034B0006903E0906A03D091680360916B0366959D
:1034C0006695669580916F03909170030E94D41762
:1034D0000E940E18805887FD8195880F682F2CE078
:1034E000629F612D11246D0F7D2D8E2D0E94D017AE
:1034F000E62ED72EC82ED0E0CF1550F081E09BE00D
:103500009F1508F480E0CDB7DEB7E8E00C94B43145
:10351000FE01EC5FFE4F84A1F8019181892331F017
:103520002C2D4D2D6E2DCE010E9404192196E4CF35
:10353000B0E0A0E0EEE9FAE10C9493317C01DC010B
:103540008C910E940D1A782E992EF7018281882382
:1035500061F040E060E080E00E941C19E7EDF2E0DD
:103560008CE0DF011D928A95E9F7F70180818111D6
:1035700015C08091E4029091E5020E94E02821E0CC
:103580008931910508F420E02093E302499730F057
:103590000E94C8289093E5028093E402B12C00E0D9
:1035A000A12C8AEA882E05C082E08A1508F457C04B
:1035B00000E0802F90E0F4E0BF9EE00111249E0126
:1035C0002C5F3E4F6901C80ED91ED601EC91E7155C
:1035D00008F43DC0E91508F03AC0A394F0E0EC5FB0
:1035E000FE4F24A1F7013181232309F430C0C952D1
:1035F000DD4FC80FD91F1881212F35E5231B08F493
:1036000020E0682D621B70916903282D210F08F4BA
:103610002FEF30916A03822F880F820F8E5F282F41
:10362000239F212D1124822F0E943E18472FD6015F
:103630009C91282F892F90E00E9404198091E30229
:10364000882329F021E0121B08F410E018830F5F93
:10365000043009F0AECFB39433E0B312A5CF81E0CC
:103660009BE0991508F480E0CDB7DEB7EDE00C944F
:10367000AF31CF93C82F80913C018C1338C090910B
:103680006703937020913D0130E081E092171306AB
:1036900009F480E0817080933B0180916C039091EC
:1036A0003A01981739F080933A0140E060E080E0F9
:1036B0000E941C19C230A9F1E0F4CC2319F1C130E9
:1036C00059F180E0909139019F5F90933901811108
:1036D0000CC082E08093380180913B01811105C0CC
:1036E000C11103C083E080933801CF91089581E038
:1036F000D1CFC330D9F0C43021F789E391E00E94E3
:103700002219E0CF80913B018823E1F240E060E0A4
:1037100080E00E941C19D5CF89E391E00E94161A1F
:10372000D1CF89E391E00E944A1ACCCF89E391E09E
:103730000E94981AC7CF0E943E060895FC0180811E
:1037400081500E940D1A692F0E949B1B0895CF93F0
:103750000E94D4286093D2027093D3028093D40243
:103760009093D5022091D602C0E0211108C020918B
:103770006703C22FC37019F0C22FC695C69520915A
:1037800038012130B1F0222331F0223011F1233001
:1037900059F1CF9108951092390160936F0370939E
:1037A0007003809371039093720381E080933801DA
:1037B000F0CF8C2F0E94391BCC2359F38091380114
:1037C000823011F40E940A1A89E391E00E949E1B44
:1037D000E0CFC0933C0180916703837080933D01EB
:1037E0000E94FD1883E0E2CF8091D10281110E94F6
:1037F000331860916F037091700380917103909101
:1038000072030E94EF28603171058105910508F46B
:10381000C0CF10923801BDCFE091E401F091E501F5
:10382000099581E08093D10248E050E067E170E0C3
:1038300087E693E00E9440321092D10280916703A4
:103840008C7F11F40E94C8180895CF93C82F882345
:1038500091F08091D60281110EC00E94391B109206
:103860003C0180916703837080933D010E94FD18A5
:1038700083E080933801C093D602CF910895E7E6A4
:10388000F3E0908121E092279083109238010E940A
:103890002D18089581E00E943F1C089580916703D0
:1038A000837011F410923801809167038C7F8160DE
:1038B0008093670308950E944E1C81E00E942D189A
:1038C000089580916703837011F010923801809100
:1038D00067038C7F8093670308950E94611C81E0D9
:1038E0000E942D18089590916703937051F08111F3
:1038F00009C094609093670310923801862F0E944C
:103900002D180895853010F09061F4CF282F220FE4
:10391000220F922BEFCF682F909167039695969583
:1039200081E0890F853008F081E00E94731C0895C2
:1039300081E00E948B1C0895682F909167039695F3
:1039400096958FEF890F09F484E00E94731C089507
:1039500081E00E949C1C089590916703937049F048
:10396000809368036093690340936A03822F0E94E7
:103970002D180895A7E6B3E01196EC911197F0E0A9
:10398000282F13964C91139712966C91CF0108969D
:103990000E94AC1C089581E00E94BA1C0895E7E6DD
:1039A000F3E09181282F43816281E92FE850FF0BDA
:1039B000CF010E94AC1C089581E00E94CF1C0895A5
:1039C000E7E6F3E0628120E1620F08F46FEF918196
:1039D000282F4381892F90E00E94AC1C089581E03C
:1039E0000E94E01C0895E7E6F3E0628120E1621B9B
:1039F00008F460E09181282F4381892F90E00E9494
:103A0000AC1C089581E00E94F31C0895E7E6F3E002
:103A1000438120E1420F08F44FEF9181282F62810A
:103A2000892F90E00E94AC1C089581E00E94061D41
:103A30000895E7E6F3E0438120E1421B08F440E00B
:103A40009181282F6281892F90E00E94AC1C0895FB
:103A500081E00E94191D0895E7E6F3E0248130E13A
:103A6000230F08F42FEF24830E942D18089581E07E
:103A70000E942C1D0895E7E6F3E0248130E1231B2A
:103A800008F420E024830E942D18089581E00E940C
:103A90003B1D0895AB0124E630E0BC0188E70E949D
:103AA000D12921E0892B09F020E0822F0895AB0174
:103AB00024E630E0BC0188E70E94152A21E0892B2A
:103AC00009F020E0822F08950F931F939B0104E6D5
:103AD00010E0AC0160E488E70E945B2A21E0892BBA
:103AE00009F020E0822F1F910F9108950E949D29D7
:103AF00008950895E3E7F3E080E094E0DF019C019E
:103B00001D9221503040E1F7F0937807E09377075A
:103B10008FEF9FEF90933203809331030895CF93FB
:103B20000E94791D0E94740580932D0380FD11C0B1
:103B300080E880932C030E94761D6BE070E08CEE91
:103B400093E00E94571D811106C0C0E08C2FCF91D9
:103B5000089580E4EECF80912D0365E070E081FD53
:103B600027C087EE93E00E94571D882371F36DE014
:103B700070E085ED93E00E94571DC82F882329F33C
:103B80000E94D42860587B47814E9F4F60937307F3
:103B90007093740780937507909376070E947A1D3F
:103BA00081E08093300380932F0310922E03CECFB9
:103BB00082EE93E0D8CF20912C0336E0839FC001A2
:103BC0001124629F800D911D1124811524E092071C
:103BD00014F090E080E08D589C4F9093780780938C
:103BE0007707089520917707309178072D56334055
:103BF00040912C03642F70E0C9010E943E31481BA4
:103C0000463010F4240F311D211584E0380710F0E0
:103C100030E020E02D583C4F309378072093770711
:103C200008951F93CF93DF93162F8A3039F481E0E4
:103C30000E948A1EDF91CF911F9108958D3011F45B
:103C400080E0F6CFC0917707D091780796E0FE012B
:103C5000A6EEB2E001900D929A95E1F7803EB8F0A1
:103C600086E0FE0111928A95E9F711111CC0C091FE
:103C70007707D091780746E050E0BE0186EE92E0EB
:103C80000E942A32892BE9F40E94F21DD3CFF6E07C
:103C90008F9FB001112469507C4F46E050E0CE0167
:103CA0000E942132E2CFE0917707F09178079F01DF
:103CB0002A5F3F4F2E173F07D1F280818095819375
:103CC000F9CFC357D340CE0126E0969587952A9524
:103CD000E1F721E030E0A90102C0440F551F8A95A9
:103CE000E2F7CA014091310350913203842B952BA6
:103CF000259646E0D695C7954A95E1F702C0220F72
:103D0000331FCA95E2F7822B932B90933203809353
:103D10003103BACFCF93382FE0917707F09178072E
:103D2000E357F34020912C03622F70E0CF010E94F3
:103D30003E31281B822F332369F066E00E94323126
:103D4000C82FC15010F4CF91089560E080E20E9426
:103D5000111EF7CF9F01280F311D2115344018F097
:103D600080E0F0E0E0E08E0F9F2F911D8D589C4F7A
:103D70009093780780937707E6CF1F93CF93DF93D5
:103D8000EC01162FFE018491811104C0DF91CF91C7
:103D90001F910895612F0E94111E2196F3CF0E945A
:103DA000BD1E81E00E948A1E08958091300381111A
:103DB00003C080912F0308950E94D42860587B4748
:103DC000814E9F4F609373077093740780937507BC
:103DD0009093760780912F038111EBCF62E070E022
:103DE00083ED93E00E94571D882319F381E08093AF
:103DF0002F03DFCFA4E0B0E0E0E0FFE10C948E31D0
:103E0000082F8091310390913203892BE9F0809142
:103E100030038823C9F080912E03811115C00E94C0
:103E2000D51E1C821B8244244394512C17E060E46D
:103E3000F62E8091310390913203009729F0FC8196
:103E4000FF2349F0011107C02496E2E10C94AA3146
:103E50002B812F5F2B833B81C32ED12C520102C0BB
:103E6000AA0CBB1C3A95E2F7950128233923232B92
:103E700079F380912D0380FD3DC08B818295880F61
:103E8000880F807480934001960136952795209382
:103E90004301815C809341012093440167E070E01D
:103EA0008EE391E00E944A1D882371F2C60126E04C
:103EB000880F991F2A95E1F720912D0320FD28C036
:103EC00060E470E08D589C4F0E94641D882309F4C3
:103ED000BBCFC50180959095A0903103B09032037F
:103EE000A822B922B0923203A09231034C814F5FD5
:103EF0004C839FCF8B81880F880F880F8093400160
:103F000010924301895F8093410110934401C6CF11
:103F1000ACEEB2E0EF2D1D92EA95E9F724EF31E027
:103F20003A8329836CEE71E0A981BA814D91BA83FD
:103F3000A983FB012190BF01280E392E311C91016C
:103F40002D583C4F1901E42FF0E0E451FD4F30E0D3
:103F500020E0612E621A842C022E01C0880C0A9483
:103F6000EAF76101912CD601ED906D01E820462D14
:103F700049194770742E042E000C550BBE2D01C03C
:103F8000BB0F7A94EAF77B2E519541955109477002
:103F9000552701C0E6944A95EAF77E28E0807E28FE
:103FA0007082939448E09412DECF2F5F3F4F31969A
:103FB0002830310571F6ACEFB1E0E981FA81AE1736
:103FC000BF0709F0B1CF60E470E08CEE92E07CCFE7
:103FD00080912F0390913003911103C091E08927C4
:103FE0000895882369F062E070E081ED93E00E941B
:103FF000571D811103C080912F03089510922F0344
:1040000080912F03EBCF0E94760508950F931F93A5
:1040100080913003882311F160E080E00E94DB1D75
:104020000E94032080E00E94FA1E80912F038823C3
:10403000A9F00E94D4280091730710917407209171
:10404000750730917607601B710B820B930B6F3FE6
:104050007F4F8F4F9F4710F40E94E81F1F910F91D1
:1040600008950E947F120895E4E3F3E088E0DF0101
:104070001D928A95E9F70E9462210895FC01228130
:1040800030E02F5F3F4F23703327938181E09217F9
:10409000130609F080E008950F931F93CF93DF93E9
:1040A000EC01162F042F0E943E20811117C08A8137
:1040B000FE01E80FF11D1F7764816078612B00FB22
:1040C00067F964838F5F83708A8388818F5F8883B9
:1040D00081E0DF91CF911F910F91089580E0F9CF9A
:1040E000FC01A38182818A17B1F0AE0FBF2FB11DF1
:1040F00014968C9187FB992790F98F77DB018C932D
:10410000DA019C9383818F5F8370838381818F5FCA
:10411000818381E0089580E00895462F682F84E32D
:1041200093E00E944C200895AB01BC0184E393E02E
:104130000E9470200895AEE0B0E0E1EAF0E20C9455
:10414000973180913303882351F01092330380918B
:1041500036038093370380913403809335030E94A4
:10416000A1210E943120182F882309F43FC010E0BC
:104170008CEFF82E93E0E92EDD24D3942DEFC22EA0
:1041800032E0B32E29C01E858D858823A1F10E94BF
:10419000C8281983CA829C838B83BD82DE824981B1
:1041A0005A816B817C818D819E810E9495088D85CD
:1041B0001E85882341F10E94C8281F83C8869A87DC
:1041C0008987BB861C864F81588569857A858B8552
:1041D0009C850E949508102FBE01635F7F4FCE0122
:1041E0000E960E949420082F8111CDCF812F2E96FC
:1041F000E9E00C94B3310E94C8281983FA829C83A9
:104200008B83ED82CBCF0E94C8281F83F8869A87C4
:104210008987EB86D7CF8FE891E00197F1F700C04F
:104220000000089522E9611123E93AB12F7081E07D
:1042300090E001C0880F2A95EAF7982F9095932374
:104240009AB99BB1892B8BB9089522E9611123E9B1
:1042500089B190E02F7002C0959587952A95E2F775
:10426000817008950895CF93DF93C0E080913C035F
:10427000C81760F00E940B21C0E080913C03C81772
:1042800078F00E943221DF91CF91089560E08C2F69
:104290000E94122161E08C2F0E941221CF5FE6CF95
:1042A00060E08C2F0E942521D82F61E08C2F0E9486
:1042B0002521EC2FF0E0E25CFC4F880F8D2B8083F2
:1042C000CF5FDBCF81E080933C030E9433210895D0
:1042D0001F93CF93DF93182FE42FEE0F6E2BC82F71
:1042E000D0E0DE01A25CBC4FEC918E2F837068178A
:1042F00021F1EE0FEE0FE62BEC93EF70F0E0E450BF
:10430000FE4FC35CDC4F80819881890F88838430A5
:1043100024F060E0812F0E948D2088818D3F24F45D
:1043200061E0812F0E948D208881082E000C990B5E
:1043300064E070E00E9452318883DF91CF911F9139
:104340000895CF93DF93C0E080913C03C81718F025
:10435000DF91CF91089561E08C2F0E942521D82F05
:1043600060E08C2F0E9425214D2F682F8C2F0E94FA
:104370006821CF5FE9CF3E9A0895FC01EE0FFF1F41
:10438000E80FF91FE758F84F6183408322830895AF
:10439000E9E7F7E0818360834283339697E0ED3964
:1043A000F907C1F7089538B13F7B28B120644FB7B2
:1043B000F89489E797E0FC015191CF0168E028B9B2
:1043C000000000C057FF38B9550F000000C000C002
:1043D00000C038B900C06A9591F7F7E08D399F07A2
:1043E00051F74FBF8FE594E00197F1F700C000004F
:1043F0000895CF93DF93EB0186319C4711F50E941E
:1044000052109D81992399F08A7A91E009F490E005
:1044100090933F03811109C089E20E945C270E94AA
:10442000061180E0DF91CF91089585E3F6CF80916A
:104430003F03811104C089E20E947627F0CF85E313
:10444000FBCF81E0EFCFCF93DF93EC01FB018581C0
:10445000882309F4D2C09E0130572332310508F079
:10446000B2C00E9497119093600380935F03FE0196
:10447000E150F047E232F10520F4E750FD4C0C9496
:10448000883180915F03816080935F0393C0809146
:1044900060038860809360038DC080915F038260B9
:1044A000F3CF80915F038460EFCF80915F038860DA
:1044B000EBCF809160038160EDCF809160038260DB
:1044C000E9CF80915F038061DFCF80915F038062DD
:1044D000DBCF80915F038064D7CF0E94C80B8091AF
:1044E0005F038068D1CF80915F038C60CDCF8091D6
:1044F00060038360CFCF80915F038E7FC5CF8091B3
:104500006003877FC7CF80915F038D7FBDCF809190
:104510005F038B7FB9CF80915F03877FB5CF809199
:1045200060038E7FB7CF809160038D7FB3CF809182
:104530005F038F7EA9CF80915F038F7DA5CF809190
:104540005F038F7BA1CF0E94C80B80915F038F77A1
:104550009BCF80915F03837F97CF809160038C7F97
:1045600099CF80915F0382FB992790F921E09227F0
:1045700090FB82F990FB83F987CF80916003982F9D
:10458000909591708E7F892B90FB81F983CF9091CC
:104590005F03892F8F7B96FF806476CF0E94C80BC4
:1045A00090915F03892F97FB87F980586DCF81E049
:1045B0000E941D1280915F03909160030E949C11E4
:1045C0000E94C80B80E0DF91CF91089580E0F0CF8A
:1045D00090915F03892F8F7E94FF806155CF9091DA
:1045E0005F03892F8E7F90FF81604ECF9091600393
:1045F000892F877F93FF88604DCF81E0E4CF282FFC
:1046000035EB2303C001112497FF04C080589109A2
:10461000892F089580589F4FFBCF8091460380FFDC
:104620000DC060914A0170E0660F771F6038710518
:1046300070F56115710569F1862F089581FF07C036
:1046400060914A0184E0689FB0011124EFCF60912E
:104650004A0182FD0AC0809145038823A9F0209178
:10466000490160914A01821710F088E0ECCF869FE3
:10467000C001112433E0880F991F3A95E1F7622FAA
:1046800070E00E945231D2CF68E070E0D5CF8FE762
:10469000089581E008958091460380FF0CC06091E9
:1046A000460170E07595679575956795611571057B
:1046B00049F1862F089581FF06C06091460170E0A0
:1046C00075956795F3CF6091460182FD0BC090917F
:1046D00044039923A1F0609145018091460196170A
:1046E00038F0682F70E06038710500F38FE70895A7
:1046F000899FC001112470E00E945231F4CF61E023
:1047000070E0D7CF81E008958D3C31F40E940D23F5
:10471000819580934A0308958E3C19F40E940D23DD
:10472000F8CF8F3C31F40E940D238195809349038B
:104730000895803D19F40E940D23F8CF893D29F496
:104740000E944B2380934B0308958A3D21F40E94DD
:104750004B238195F7CF8B3D31F40E944B238195FC
:1047600080934C0308958C3D19F40E944B23F8CF9D
:104770009FE2980F983070F4815D990B21E030E052
:1047800001C0220F8A95EAF780914803822B80931B
:10479000480308958D3D31F48091460381608093F4
:1047A000460308958E3D21F4809146038260F7CF41
:1047B0008F3DB9F7809146038460F1CF4091490362
:1047C0008D3C59F480914A0387FF0DC010924A0333
:1047D00041110BC01092450308C08E3C81F48091BA
:1047E0004A0318169CF3442381F080914B03909167
:1047F0004C03892B09F05AC01092440308958F3C52
:1048000049F447FFF0CF1092490380914A03811188
:10481000ECCFE0CF803D19F41416ACF3E4CF9091C7
:104820004B03893D29F41916F4F610924B03DBCFA4
:104830008A3D19F497FFD7CFF8CF90914C038B3D69
:1048400029F497FFD0CF10924C03CDCF8C3D19F4B3
:104850001916CCF3C8CF9FE2980F983090F4815D81
:10486000990B21E030E0B90102C0660F771F8A95ED
:10487000E2F7CB0180959091480389238093480308
:10488000B2CF8D3D31F4809146038E7F80934603F5
:10489000AACF8E3D21F4809146038D7FF7CF8F3DC7
:1048A00009F0A1CF809146038B7FF0CF08950E943D
:1048B000C8289C019091490380914A03982B21F0CC
:1048C000309343032093420390914B0380914C0318
:1048D000982B21F0309341032093400387E493E029
:1048E0000E945626089586E0E7E4F3E0DF011D927A
:1048F0008A95E9F7109245031092440310924603FB
:104900000895FC01828181110EC0838181110BC049
:104910008481811108C091E08581811101C090E0FE
:10492000892F8170089581E0FCCFA6E0B0E0EBE92B
:10493000F4E20C949D3186E0E7E4F3E0DE011196A9
:1049400001900D928A95E1F71092490310924A0363
:1049500010924B0310924C038B819C81892B89F020
:1049600080914203909143030E94E028AC01909112
:1049700045039923C9F180914B018417150608F46A
:1049800040C08D819E81892B91F080914003909150
:1049900041030E94E028AC0190914403992309F45B
:1049A0006AC0809147018417150608F472C0BE01E1
:1049B0006F5F7F4F87E493E00E94AA27811105C0B3
:1049C00087E493E00E94812481110E94572486E0AD
:1049D000FE013196A7E4B3E001900D928A95E1F7CC
:1049E0002696E3E00C94B93120914C018AE0289F8F
:1049F000900111242417350720F69F5F90934503FB
:104A000002C09F3FD1F71B81112359F00E940D2353
:104A10009FEF11160CF491E0899F802D1124809353
:104A200049031C81112359F00E940D239FEF111699
:104A30000CF491E0899F802D112480934A0380918A
:104A40004903882309F49DCF10914A03112309F4E7
:104A500098CF0E94FF22882351F080934903812F31
:104A60000E94FF22882329F080934A038ACF81E0A5
:104A7000F4CF81E0F9CF209148018AE0289F90018E
:104A800011242417350708F092CF9F5F90934403B9
:104A900002C09F3FD1F71D81112359F00E944B2383
:104AA0009FEF11160CF491E0899F802D11248093C3
:104AB0004B031E81112359F00E944B239FEF1116C7
:104AC0000CF491E0899F802D112480934C038091F8
:104AD0004B03882309F46BCF10914C03112309F485
:104AE00066CF0E94FF22882351F080934B03812FD1
:104AF0000E94FF22882329F080934C0358CF81E045
:104B0000F4CF81E0F9CF0F931F93CF93DF93C42F9E
:104B1000D22FFC0185818823C9F040934F030E9466
:104B2000C82890934E0380934D0380E28C0F883009
:104B300040F4C77081E001C0880FCA95EAF70E946F
:104B40007509DF91CF911F910F91089510914F0337
:104B5000141332C080914D0390914E030E94E028BF
:104B6000883C910548F5C0E2CD0F1D17B9F080E2F1
:104B7000810F883040F4177081E001C0880F1A95CA
:104B8000EAF70E947C09C83048F481E09D2F9770B5
:104B900001C0880F9A95EAF70E947509802F0E943C
:104BA0006C09C83070F6D77081E001C0880FDA95C3
:104BB000EAF70E947C09C5CF80E28C0F883008F6A6
:104BC000C77081E001C0880FCA95EAF7F2CF0F9352
:104BD000DB0188519C4787309105A0F5FC01E55E1B
:104BE000FC4C0C94883106E221EE41EE6AE17CE750
:104BF000CD010E94832580E00F91089507E225EE04
:104C000045EE6BE17CE7F4CF06E221EE40EE68E191
:104C10007CE7EECF07E225EE44EE69E17CE7E8CFE2
:104C200006E221EE42EE6CE17CE7E2CF07E225EE00
:104C300046EE6DE17CE7DCCF08E221E045EE6EE177
:104C40007CE7D6CF15968C91882319F010924F03EC
:104C5000D3CF81E0D1CF909355038093540308952F
:104C6000E0915403F0915503309729F00190F081C1
:104C7000E02D0995089580E00895E0915403F091A6
:104C80005503309721F00280F381E02D09950895B6
:104C9000E0915403F0915503309739F026E0DC01A0
:104CA0002C930480F581E02D09950895E09154033B
:104CB000F0915503309739F022E0DC012C93068007
:104CC000F781E02D09950895A3E0B0E0EAE6F6E269
:104CD0000C949E31209152033091530328173907C9
:104CE000A1F09093530380935203E0915403F09109
:104CF0005503309751F023E029839B838A830084F6
:104D0000F185E02DCE01019609952396E2E00C9401
:104D1000BA31A3E0B0E0EFE8F6E20C949E312091C6
:104D200050033091510328173907A1F09093510394
:104D300080935003E0915403F0915503309751F064
:104D400024E029839B838A830084F185E02DCE01B2
:104D5000019609952396E2E00C94BA31CF93DF9344
:104D6000C0913601D091370122960E9420288130CF
:104D700081F480915F0387FF0CC0C0913401D09112
:104D8000350122969EE180E0915028F4DF91CF9189
:104D9000089596E0F8CF29912223B1F38F5FF4CFE5
:104DA000CF93C82F811102C080E024C00E94202828
:104DB000813011F580915F0387FF1EC0EC2FE695CF
:104DC000E695E695EE3180F78091340190913501BA
:104DD000E80FF92FF11D228130E0C77081E090E0EB
:104DE00002C0880F991FCA95E2F72823392381E072
:104DF000232BD1F2CF910895809136019091370104
:104E0000FC013296089621912C1721F0E817F9073A
:104E1000D1F7CACF81E0EECF9C01FC0132969FEF23
:104E200080E04191461751F09F3F19F4411101C0B4
:104E3000982F8F5F8630A9F79F3F09F40895290FB7
:104E4000311D97FD3A95F90162830895FC01329670
:104E500008962191261303C0DF0111971C92E817D1
:104E6000F907B9F70895E62FE695E695E695EE3150
:104E700068F4E80FF92FF11D677021E030E001C000
:104E8000220F6A95EAF78281822B82830895E62FAA
:104E9000E695E695E695EE3170F4E80FF92FF11DF1
:104EA000677021E030E001C0220F6A95EAF7209593
:104EB0008281282322830895CF93C82F0E9420281F
:104EC0006C2F813061F480915F0387FF08C080916F
:104ED0003401909135010E943327CF91089580913C
:104EE0003601909137010E940C27F7CFCF93C82F3E
:104EF0000E9420286C2F813061F480915F0387FF2E
:104F000008C080913401909135010E944727CF91CC
:104F1000089580913601909137010E942627F7CF9E
:104F20000E942028813079F480915F0387FF0BC0B5
:104F3000E0913401F091350132968EE1DF011D924E
:104F40008A95E9F70895E0913601F091370132969C
:104F500086E0F4CFDC01FB0111969C9111978181D1
:104F6000981322C012968C911297882319F092817F
:104F700089131AC013968C911397882319F0938183
:104F8000891312C015968C911597882319F0958175
:104F900089130AC014969C91992321F081E0248101
:104FA000291303C080E001C081E081700895089555
:104FB0000E94D727089581110EC081E0809350018F
:104FC00060914D0170914E0180914F01909150017F
:104FD0000E94D827089582E0F1CF83E080935001AA
:104FE00060914D0170914E0180914F01909150015F
:104FF0000E94D82708950E94DB27089581E08093BE
:10500000500160914D0170914E0180914F0190913E
:1050100050010E94D82708950E94FE27089591E02C
:10502000811101C090E090934F0160914D0170910A
:105030004E0180914F01909150010E94D827089510
:1050400080914F01089580934E0160914D017091C0
:105050004E0180914F01909150010E94D8270895F0
:1050600080914E01089580934D0160914D017091A2
:105070004E0180914F01909150010E94D8270895D0
:1050800080914D010895089508950E94442808953F
:10509000089508950E9443280895CF930E944828B8
:1050A0000E9401160E944928C0E08C2F0E94891599
:1050B000811105C0CF5FC330C1F7CF91089581E062
:1050C000FCCF85B7806885BF85B7806885BF0895A8
:1050D0001F921FB61F9211248F939F93AF93BF937C
:1050E00080915603811113C080919D0790919E0776
:1050F000A0919F07B091A0074196A11DB11D80937B
:105100009D0790939E07A0939F07B093A007BF9120
:10511000AF919F918F911F901FBE1F901895809106
:10512000A507843031F10E9425081092560388E1CA
:1051300090E020E40FB6F894A895809360000FBE2D
:105140002093600083B7817F846083BF83B78160D1
:1051500083BF7894889583B78E7F83BF0FB6F8940A
:10516000A895809160008861809360001092600033
:105170000FBE08950E94C80B0E943108089582E076
:1051800084BD93E095BD9AEF97BD80936E0008951E
:105190002FB7F89480919D0790919E07A0919F074B
:1051A000B091A0072FBF08952FB7F89460919D0785
:1051B00070919E0780919F079091A0072FBF08953F
:1051C0009C014FB7F89480919D0790919E07A09104
:1051D0009F07B091A0074FBF821B930B0895CF92FA
:1051E000DF92EF92FF922FB7F894C0909D07D09076
:1051F0009E07E0909F07F090A0072FBFA7019601A0
:10520000261B370B480B590BCA01B901FF90EF90D1
:10521000DF90CF90089578941F921FB61F921124AB
:105220008F939F93AF93BF9380919D0790919E071B
:10523000A0919F07B091A0070196A11DB11D809379
:105240009D0790939E07A0939F07B093A007BF91DF
:10525000AF919F918F911F901FBE1F90189587E768
:1052600097E7909301088093000888E19AE00FB6D1
:10527000F894A895809360000FBE90936000FFCFD4
:1052800088E19AE00FB6F894A895809360000FBE6D
:1052900090936000FFCFEF92FF920F931F93CF93F5
:1052A000DF93182FEB011092BC0084EA8093BC00BE
:1052B0000E94C8287C018091BC0087FF27C0809194
:1052C000B900887F883029F08091B900887F8031CB
:1052D00089F51093BB0084E88093BC000E94C82825
:1052E0008C018091BC0087FF1EC02091B900287FEF
:1052F00090E080E0283191F081E090E0203411F4DA
:1053000090E080E091958195910908C0C7010E94C5
:10531000E028C817D90778F68EEF9FEFCDB7DEB734
:10532000E6E00C94B631C8010E94E028C817D907FE
:10533000C0F6F2CF8FEF9FEFF1CF1092B9008CE063
:105340008093B80008950F931F93CF93DF93EB01E1
:105350008093BB0084E88093BC000E94C8288C0125
:105360008091BC0087FF11C02091B900287F81E0A7
:1053700090E0283211F490E080E0919581959109B8
:10538000DF91CF911F910F910895CF3FDC0741F33B
:10539000C8010E94E028C817D90710F78EEF9FEFC9
:1053A000EFCFB0E0A0E0E7EDF9E20C949331782E76
:1053B0005B016A0189010E94C8284C01C1E0D0E06C
:1053C0000431110558F0C5E0D0E00F3F100731F06F
:1053D000C80164E170E00E943E31EB01BE01872DFF
:1053E0000E944B297C0197FF09C00F3F1007B1F3C2
:1053F000C4010E94E0280817190780F7E501CA0CCC
:10540000DB1CCC15DD0511F0F7FE09C084E98093A3
:10541000BC00C701CDB7DEB7EDE00C94AF31B801E9
:1054200089910E94A3297C01ECCFB0E0A0E0EBE1E0
:10543000FAE20C949331782E5B016A0189010E9493
:10544000C8284C01C1E0D0E00431110558F0C5E096
:10545000D0E00F3F100731F0C80164E170E00E9416
:105460003E31EB01BE01872D0E944B297C0197FF45
:1054700009C00F3F1007B1F3C4010E94E0280817CC
:10548000190780F7E501CA0CDB1CCC15DD0511F00E
:10549000F7FE09C084E98093BC00C701CDB7DEB731
:1054A000EDE00C94AF31FE018491B8010E94A32974
:1054B0007C012196EACFB0E0A0E0E1E6FAE20C94AC
:1054C0009231682E762E5A0169010E94C8284C013B
:1054D000C1E0D0E00431110558F0C5E0D0E00F3F45
:1054E000100731F0C80164E170E00E943E31EB0129
:1054F000BE01862D0E944B297C0197FF1DC00F3FE6
:105500001007B1F3C4010E94E0280817190780F7BB
:1055100084E98093BC00C701CDB7DEB7EEE00C9400
:10552000AE31B80189910E94A3297C01CC16DD0619
:1055300079F3F7FEF6CFECCFB801872D0E94A329AF
:105540007C01E501CA0CDB1CF1CF9B01BA019091F3
:10555000A5079430E9F48F708093E9009FEF809164
:10556000E800915085FD06C085ED8A95F1F70000B1
:105570009111F5CF8091E80085FF0AC050E040E02E
:10558000C9010E94AB2C8091E8008E778093E800DF
:10559000089543E050E0BC0182E00E94A52A0895EE
:1055A00046E050E0BC0182E00E94A52A089540E256
:1055B00050E0BC0182E00E94A52A0895CF93DF93BA
:1055C000EC010E94202848E050E0BE0181E00E94EA
:1055D000A52A88E0FE01A7E5B3E001900D928A9527
:1055E000E1F7DF91CF9108958091A407811109C05F
:1055F0000E943B2E0E94982E8091E200846080934E
:10560000E20008951092A40708950E94FE2781E009
:105610000E940F2808956091A10781E0611101C0E7
:1056200080E00E94ED2708959091A50781E09430D5
:1056300009F080E06091A1070E94FB27089542E0F5
:1056400061EC81E00E94B72D42E261EC82E00E94B1
:10565000B72D9091A50781E0943009F080E060912A
:10566000A1070E94DB2708958091A707833009F4E2
:1056700061C030F48130D1F1823009F49EC00895C8
:105680008A3009F48AC08B3009F46FC0893009F080
:1056900050C08091A607813209F04BC08091AA07C3
:1056A0009091AB07029708F044C08091E800877F93
:1056B0008093E8008091E80082FF37C09091F3006A
:1056C0008091F200029731F48091F100813011F065
:1056D000863021F48091F1000E9423288091E80017
:1056E0008B778093E8000E94EB2D23C08091A60762
:1056F000813AF9F48091E800877F8093E8008091F7
:10570000AA079091AB07892B61F468E087E593E0E5
:1057100070E00E94FA2C8091E8008B778093E8007B
:10572000089560E090E080E0F3CF8091A5078111BB
:10573000C1CF08958091A607813AD9F78091AA0731
:105740009091AB07892BA9F78091E800877F809320
:10575000E8008091E80080FFFCCF0E942028809321
:10576000F1008091E8008E77BCCF8091A60781324E
:1057700001F78091AA079091AB07892BD1F6809110
:10578000E800877F8093E8000E94EB2D8091A807B6
:105790000E940F280E94C80B08958091A6078132AD
:1057A00041F68091E800877F8093E8000E94EB2D0E
:1057B0008091A9070E94332808958091A607813A15
:1057C00009F0B7CF8091E800877F8093E80080914F
:1057D000E80080FFFCCF0E944028C1CF84B7877FBC
:1057E00084BF0FB6F894A89580916000886180937B
:1057F0006000109260000FBE80E890E00FB6F89451
:1058000080936100909361000FBE0E940C28089560
:105810000E943B2E0E94982EE2EEF0E08081846090
:10582000808378940E941731089581E591E00E9469
:105830002B2608958091A507853031F48091A50726
:10584000853019F00E94BA2808950E948F280E947E
:105850004D28882399F38091A307882379F30E9428
:10586000952C0E94C80BEACF08959A014091AC078D
:105870005091AD070E943D2C0895492F5527433084
:10588000510519F168F44130510509F444C0423022
:10589000510509F445C090E080E050E040E025C0AB
:1058A0004132510549F142325105A9F784E490E0B3
:1058B00046E65AE061157105C1F086EB90E040EBD9
:1058C00059E06130710589F0E6CF99278130910563
:1058D00081F0009729F00297F1F6E7E3F9E002C0C2
:1058E000EFE5F9E0849190E0AF01F9015183408345
:1058F0000895E5E4F9E0F6CF89E090E045E759E066
:105900006115710591F389E090E04EE859E061304E
:10591000710559F3C0CF82E190E04EE959E0E5CF3F
:105920008BE390E043E659E0E0CF80E189BD82E17E
:1059300089BD09B400FEFDCF8091D8008F7D809392
:10594000D8008091E00082608093E0008091E000C8
:1059500081FDFCCF0895AF92BF92CF92DF92FF926C
:105960000F931F93CF93DF936C01EB018A010E9489
:105970000A2EF82E811123C00115110539F0F80106
:1059800080819181C81BD90BC80ED91EB12CA12CC6
:105990002097A9F08091E80085FD22C08091E80061
:1059A0008E778093E80001151105A1F0F801808140
:1059B0009181A80EB91EB182A08285E0F82E8F2DAC
:1059C000DF91CF911F910F91FF90DF90CF90BF900B
:1059D000AF9008950E940A2E8823D1F2F82EEFCFBF
:1059E000F60181916F018093F1002197FFEFAF1ACB
:1059F000BF0ACECFFC018091AC079091AD0786170E
:105A00009707A0F06115710529F49091E8009E7741
:105A10009093E80090E06115710551F4911108C070
:105A20008091E80082FF34C080E00895BC01F2CF8D
:105A30008091A5078823C1F18530C1F18091E800EC
:105A400083FD30C08091E80082FDEACF8091E800BC
:105A500080FFE1CF8091F3002091F200382F611593
:105A6000710519F02830310558F091E028303105E2
:105A700009F090E02091E8002E772093E800CBCF4A
:105A800081918093F100615071092F5F3F4FE7CF03
:105A90008091A507882341F0853041F08091E8008E
:105AA00083FFBECF81E0089582E0089583E00895EA
:105AB000FC018091AC079091AD0786179707A0F085
:105AC0006115710529F48091E8008E778093E800D4
:105AD00090E06115710551F4911108C08091E800C2
