:100000000C9420010C943D010C943D010C943D0195
:100010000C943D010C943D010C943D010C943D0168
:100020000C943D010C943D010C94B81B0C948C1C59
:100030000C94DF160C943D010C943D010C943D0191
:100040000C943D010C943D010C943D010C943D0138
:100050000C943D010C9466170C943D010C943D01E9
:100060000C943D010C943D010C943D010C943D0118
:100070000C943D010C943D010C943D010C943D0108
:100080000C943D010C943D010C943D010C943D01F8
:100090000C943D010C943D010C943D010C943D01E8
:1000A0000C943D010C943D010C943D0162006200F2
:1000B0005E005F00620062005D0060005A005B004D
:1000C0005C00610014036A00630070006D00320080
:1000D0007400650073007400000018036A00650076
:1000E000720065006D007900730063006F006F009F
:1000F0006B0000000403090409023B00020100A098
:10010000FA090400000103010100092111010001A5
:1001100022440007058103080001090401000103CE
:1001200000000009211101000122B6000705820329
:100130002000011201000200000008EDFE00000096
:10014000010102000105010902A10185020901A1C5
:100150000005091901290815002501950875018177
:10016000020501093009311581257F950275088145
:100170000609381581257F950175088106050C0A49
:1001800038021581257F950175088106C0C00501DB
:100190000980A101850319012AB700150126B700BE
:1001A000950175108100C0050C0901A10185041994
:1001B000012AA002150126A002950175108100C038
:1001C00005010906A1018506050719E029E71500C3
:1001D00025019508750181020507190029EF150011
:1001E000250195F07501810205081901290595057C
:1001F00075019102950175039101C005010906A1E0
:1002000001050719E029E715002501950875018109
:10021000029501750881010507190029FF150026BF
:10022000FF009506750881000508190129051500CC
:100230002501950575019102950175039101C00095
:1002400011241FBECFEFDAE0DEBFCDBF11E0A0E08A
:10025000B1E0E2E8FEE302C005900D92A839B107D3
:10026000D9F722E0A8E9B1E001C01D92AC38B2078D
:10027000E1F70E9435100C94001F0C9400008111CE
:1002800011C0633078F4443068F484E0689FF00172
:100290001124E40FF11DEE0FFF1FE455FF4F859170
:1002A0009491089581E090E008950E943F0108959F
:1002B00081E008950E945801089581E008950E9408
:1002C000580108950E945F01089508950E946501F4
:1002D0000895A6E0B0E0EFE6F1E00C945C1E4983DF
:1002E0005A839E8330919F0189819A8131111AC06E
:1002F0003E81332399F0222389F00E941907182F99
:10030000682F89819A810E94F60669817A81812FFE
:100310000E94230E2696E3E00C94781E0E940707A5
:10032000182FF3CF0E94190769817A81F1CFFC0160
:10033000262F4081518162817381848195810E9441
:1003400069010895CF93DF93EC0161E00E9497016A
:10035000BE010E945A01DF91CF910895CF93DF93A0
:10036000EC0160E00E949701BE010E946601DF91EE
:10037000CF91089521E030E0A90102C0440F551F3C
:100380008A95E2F7CA010E9418060895CF93C82FF4
:1003900081E090E00C2E02C0880F991F0A94E2F7CA
:1003A0000E94850B8C2F0E94BA01CF91089581E0A5
:1003B00008950E94D7010895CF93C82F0E94CB05BE
:1003C0008C2F0E94D9012FEF84E39CE021508040C4
:1003D0009040E1F700C00000CF91089581E00E94B5
:1003E000DC010E948A17089580E00E94DC010E94CF
:1003F0009B1708950F931F93CF93DF938C0161E0B8
:100400000E949701EC01B8010E946201811106C0AF
:1004100080E0DF91CF911F910F910895B801CE0137
:100420000E945E148823A1F3B801CE010E949A10A5
:10043000882371F3B801CE010E947010882341F324
:10044000B801CE010E94270F882311F3F80185819E
:10045000882361F0C330FCE7DF07E9F058F4C115E9
:10046000ECE7DE07A9F0C130DC47B9F0C8010E9413
:100470005D01CFCFCB358CE7D807A9F0CC35ECE7C1
:10048000DE0771F0CA35DC4789F70E94600BEECFBA
:100490000E94EE01BDCF0E94680B0E94F401B8CF0C
:1004A0000E94560BE3CF0E94640BE0CF0E94BC1663
:1004B0000E94760208950E947A020E94C116089551
:1004C00081E008950895CF93DF93D82F0E946002B2
:1004D000C82F882319F08D2F0E9462028C2FDF9184
:1004E000CF91089508950E946302089580E00E94CC
:1004F000730208950E94A7140E9473020895CF9377
:100500000E94A714C82F80919A018C1779F0C0938C
:100510009A010E944B1760939B0170939C018093FA
:100520009D0190939E018C2F0E947302CF9108959C
:10053000ADE0B0E0EEE9F2E00C945D1E488759872B
:100540006A877B878C879D8791110E94660A1F822C
:1005500086E0FE013896DE01119601900D928A9593
:10056000E1F78D8181110DC029813A814B815C8138
:100570006D817E818F810E94B0092D96E2E00C94FE
:10058000791ECE0101960E94A2018111EDCFF5CF17
:10059000FC012481213021F4808191810E944B074C
:1005A0000895662329F00E94FB110E94CE1208953F
:1005B0000E945512FACFCF93C82F882399F08CEF61
:1005C0008C0F813A88F48C2F0E944715882329F0DC
:1005D0008C2F0E94ED150E94FA0A8C2F0E94D315D1
:1005E0000E94FA0ACF91089580E28C0F883048F477
:1005F000C77081E001C0880FCA95EAF70E94490AD6
:10060000EFCFEBE5EC0FE33040F4F0E0E05BFE4FC2
:10061000808190E00E94DB14E5CFE8E5EC0FEB3140
:1006200050F4F0E0EE0FFF1FE65EFE4F80819181F7
:100630000E940015D7CF83E38C0F833198F661E0D9
:100640008C2F0E94D102CECF882381F19CEF980F8E
:10065000913A28F40E94ED150E94FA0A089590E25A
:10066000980F983050F4877091E001C0990F8A95E7
:10067000EAF7892F0E944F0AEFCF9BE5980F93303E
:1006800028F490E080E00E94DB14089598E5980F2C
:100690009B3128F490E080E00E940015089593E3D8
:1006A000980F933118F460E00E94D10208951F93CF
:1006B000CF93DF93182FEB010E94DB02209739F4D0
:1006C000812F0E942403DF91CF911F9108958FE91C
:1006D0009FE00197F1F700C000002197EFCF70E095
:1006E00060E0893311F460E570E00E9457030895DB
:1006F000882321F00E94490A0E94FA0A089588235B
:1007000021F00E944F0A0E94FA0A0895B0E0A0E08A
:10071000ECE8F3E00C94561E6C01D62FC72FFC01B9
:100720001581068102950F700E943F0AE82E8823EA
:10073000F9F0E12E1123E1F08C2F807F803461F0FD
:1007400080E28D0F883008F18C2F807E803221F47A
:10075000D230D8F00023C9F08091740282FF15C016
:1007600082E00E942A0B0E943F0A91E0E82EE926CF
:10077000BC2EB2949FE0B922FBE0FB15B8F1EB2D43
:10078000F0E0EE5FF04E0C94471EE12CF1CF0C2F01
:100790000F70C07F11F00295007F112399F00023A4
:1007A00059F080E28D0F883010F0D11107C0802FF2
:1007B0000E94490A0E94FA0A8D2F5AC0802F0E9477
:1007C000590AF8CF8D2F0E942403002379F080E28C
:1007D0008D0F883010F0D11104C0802F0E944F0A75
:1007E00003C0802F0E945F0A0E94FA0AEB2DE85096
:1007F000FF0B349720F40E94A7140E947302EE208E
:1008000089F00E943B0A80FD0DC0F60115820E940E
:10081000350A0E945406C6010E9492050E94350ABC
:100820000E946406CDB7DEB7E9E00C94721E2C2F4F
:100830002F70F22EC07FC03219F0F29480EFF822B0
:10084000DD2341F0D130D1F1112309F444C000235C
:10085000F1F0B2CF8091740282FD15C0112359F0DE
:10086000FF2029F08F2D0E94490A0E94FA0A80E099
:100870000E94DB02BBCF80E00E942403FF2009F42A
:10088000B5CF8F2DABCF112369F0011104C08F2D8F
:100890000E947803ABCF013009F0A8CF8F2D0E94C2
:1008A0007D0AA4CF0111A2CF8F2D0E947F038F2D2F
:1008B0000E94890A8F2D0E946D0A98CF112321F082
:1008C000063008F093CFE3CF053008F08FCF8F2D9F
:1008D0000E947F038BCF0023D1F3D93349F43FEF3C
:1008E00087EE93E0315080409040E1F700C0000077
:1008F0008D2F0E9424037ACF8C2F86958695837046
:1009000069F0813009F072CF8D2F9C2F93701111F7
:1009100002C080E090E00E94001568CF8D2F9C2FD0
:100920009370111102C080E090E00E94DB145ECF52
:10093000612F8D2F0E94D10259CF8C2F8370A1F58A
:10094000111154CF4D2F429546954770440F440FD7
:100950002D2F2F7030E0042E02C0220F331F0A9477
:10096000E2F790E080E0D4FF09C08FE090E002C0A1
:10097000880F991F4A95E2F780959095C695C69580
:10098000C370822B932BC23049F058F4C13019F058
:100990000E9424062BCF0E941B0628CF0E942D0602
:1009A00025CF0E94180622CF8695112311F08C2F97
:1009B0008170882309F41ACF4D2F429546954770D0
:1009C000440F440F2D2F2F7030E0042E02C0220F51
:1009D000331F0A94E2F790E080E0D4FF09C08FE073
:1009E00090E002C0880F991F4A95E2F78095909594
:1009F000C695C695C370822B932BC23049F058F42C
:100A0000C13019F00E948F06F1CE0E948606EECE0C
:100A10000E949806EBCE0E943C06E8CECF701123D0
:100A200029F08C2F0E9454068D2F32CF8D2F0E94DB
:100A30007F038C2F0E946406D9CED23F41F160F42F
:100A4000D03FB9F0D13F81F0112309F443C0011127
:100A5000B3CE8C2F8F711FC0D33F01F1D43FA1F7CC
:100A60008091740282FD24C08C2F8F71112311F3A9
:100A700012C0112341F0053008F0B8CE8C2F8F71D1
:100A80000E947606B3CE063008F0B0CEF7CF8C2F9A
:100A90008F711111CFCF0E945406A8CE112329F0D7
:100AA0008C2F8F710E944806A1CE0E9443069ECED5
:100AB000112331F063E08C2F8F710E940C0B96CEC6
:100AC00081E00E942A0B023008F490CE82E00E945E
:100AD0002A0B8CCE002359F0D93309F009CFEFEF60
:100AE000F7EE23E0E150F0402040E1F7FFCE8C2FFD
:100AF0008F71A0CF0F931F93CF93DF93EC01688189
:100B000079818D810E9456078C010E94A1060E9466
:100B10001706B801CE010E948603DF91CF911F9185
:100B20000F910895CF93DF93EC018C81882399F086
:100B3000CE010E94FA01811111C00E943F0A882350
:100B400051F08D81882339F08091740282FF03C0B7
:100B500082E00E942A0BDF91CF910895CE010E947E
:100B60007A05CE010E94AE01F6CF90E080E00E94AF
:100B7000DB1490E080E00E9400150E94660A0E944B
:100B8000FA0A0E94EA120E94CE1208950E940716E5
:100B90000E94B50508950E94560A0E94C605089550
:100BA00092959F70963091F058F4925F9F709230BA
:100BB00058F4803F19F030F4883E30F481E0089515
:100BC0009A5FF4CF843FD1F380E00895883EB0F37C
:100BD000813FD1F7F3CFFC012481222339F08081BA
:100BE00091810E944B070E94D005089580E00895EE
:100BF000A6E0B0E0EEEFF5E00C945D1E2696E2E094
:100C00000C94791EA7E0B0E0E8E0F6E00C945D1EDD
:100C10002796E2E00C94791E08950E940C06089530
:100C20000E940D069093AB018093AA010895089548
:100C30000E94100608952091AA013091AB01822BE9
:100C4000932B0E94100608952091AA013091AB01C8
:100C5000822393230E94100608952091AA013091C7
:100C6000AB01822793270E94100608950E940C066C
:100C700008950E94360608950E9439069093A901AE
:100C80008093A801089590E080E00E943C060895BA
:100C900021E030E0A90102C0440F551F8A95E2F718
:100CA000CA010E943C06089521E030E002C0220FF4
:100CB000331F8A95E2F78091A8019091A901822BB8
:100CC000932B0E943C06089521E030E002C0220FE1
:100CD000331F8A95E2F7209530958091A801909175
:100CE000A901822393230E943C06089521E030E06D
:100CF00002C0220F331F8A95E2F78091A8019091DC
:100D0000A901822793270E943C0608952091A801FB
:100D10003091A901822B932B0E943C0608952091CB
:100D2000A8013091A901822393230E943C060895D3
:100D30002091A8013091A901822793270E943C06A7
:100D400008950895262F277091E001C0990F2A95E4
:100D5000EAF723E0769567952A95E1F7660F771F06
:100D6000660F771FFA01E60FF71F50E040E0682F8B
:100D700070E08191DF0111979B01042E02C036952E
:100D800027950A94E2F721702195282729232827FF
:100D90002C934F5F5F4F4430510559F70895A82FAA
:100DA000A77023E0969587952A95E1F7880F991FFC
:100DB000880F991FFB01E80FF91F50E040E080E029
:100DC000219130E00A2E02C0369527950A94E2F769
:100DD00021703327042E01C0220F0A94EAF7822BD8
:100DE0004F5F5F4F4430510559F70895262F9330D8
:100DF00068F4843058F434E0939FB0011124680FF4
:100E0000711D40EA51E0822F0E94A206089593309E
:100E100070F4843060F444E0949F9001112460EAFF
:100E200071E0820F932F911D0E94CF06089580E0FC
:100E30000895B0E0A0E0EFE1F7E00C94561E7C01CD
:100E40000091A8011091A9018091AA019091AB0194
:100E5000082B192BCFE0D0E0CC24C394D12CBC2E8E
:100E6000C6010C2E02C0880F991F0A94E2F7802356
:100E70009123892B49F4219790F7B12C8B2DCDB775
:100E8000DEB7E9E00C94721EB7018C2F0E942F0E82
:100E9000019789F3F3CFCF93DF93EC010E941907F9
:100EA000BE010E942F0EDF91CF9108951F93CF9323
:100EB000DF93EB0190919F01992339F0CB010E94C0
:100EC0004B07DF91CF911F910895882369F0CB01E3
:100ED0000E941907182F682FCE010E94F606BE0146
:100EE000812F0E942F0EEDCFCB010E940707182FF4
:100EF000F6CF1F93CF93DF93C091AC0117E08091A1
:100F0000AD018C1304C0DF91CF911F910895D0E003
:100F10001C9FF0011D9FF00D1124E255FE4F208112
:100F20003181428153816481758186810E940206EC
:100F30002196C770E4CF2091E6013091E7014091FE
:100F4000E8015091E9016091EA017091EB01809113
:100F5000EC010E9402060895CF93DF938091EC018B
:100F6000807F09F04DC08091EB01882309F448C0CF
:100F7000E091AC015091AD01C091E701D091E60143
:100F80006091E8017091E90147E05E17C9F18E2F89
:100F900090E0E49FF0011124E255FE4F24812223CA
:100FA00091F1489FF001499FF00D1124DF01A255F6
:100FB000BE4F11962C9111972C1325C02C912D13F7
:100FC00022C015962C91159721111DC012962D91B6
:100FD0003C91261B370B283C3105A8F48091EC018D
:100FE0008F7080618093EC01EC54FE4F80818F7094
:100FF0008061808386EE91E00E9492050E947907CD
:10100000DF91CF910895FC013196E770BECF482F54
:101010002091AC019091AD0157E0291302C080E00E
:10102000089530E0529FF001539FF00D1124E255D6
:10103000FE4F8181681306C08081481303C08581FB
:101040008111EECF2F5F3F4F2770E7CFA4E1B0E0D3
:10105000ECE2F8E00C94531E8C0186E0F801DE010E
:101060001F9601900D928A95E1F7F8018481E58041
:1010700096EEA92E91E0B92E9091EA0191111FC030
:101080008823D1F0EE20A9F0C8010E94EB05F82ECC
:10109000882379F087E0F801D50101900D928A95B7
:1010A000E1F7C5010E94C8020E94AC070E949B079D
:1010B0005FC0C8010E949205FF24F39459C0C0800C
:1010C000D18082809380F090EB012091E8013091F3
:1010D000E901A401421B530BFF2009F4F9C0483C6D
:1010E000510508F0A7C0882309F442C09091E70198
:1010F0008091EC01282F207F09F05CC09D1116C063
:101100009091E601C91212C0E1104EC08F7080614B
:101110008093EC010E949B0786EE91E00E9492056D
:101120008091EC01F8018683F12C22C0E1103CC0D3
:101130006D2D8C2D0E9407086D2D8C2D0E940708A7
:10114000E82E8111F1CFCF86D88A8F8598890E94A9
:101150004B07292F22952F70243078F49F7022306E
:10116000A8F09923B9F0F8019681907F99F4FE2CAC
:101170008F2D6496ECE00C946F1E2A5F2F70223046
:1011800068F0C8010E949205EF2CF1CF992311F06D
:10119000882369F3805E883050F3F3CF803F38F3C3
:1011A000815F833070F7E3CF8091EC0181608093A1
:1011B000EC01BACF9D1113C09091E601C9120FC086
:1011C000E1100DC08683C8010E94920587E0F801F6
:1011D000A6EEB1E001900D928A95E1F767CFC801C4
:1011E0000E94EB05882309F464CFEE2009F461CF57
:1011F0008091EC01803288F02091E6013091E70186
:10120000398728879B868A869091EA019C871D866C
:101210008E87CE0108960E94920587E0F801A6EE1F
:10122000B1E001900D928A95E1F70E94AC070E940F
:101230009B0742CF9091EC01292F207FA1F4682DCC
:101240009A8A898AA6017A899E2D0E94F80586EEDF
:1012500091E00E94920587E0F50111928A95E9F7E5
:101260000E949B0761CF882309F482CF8091E70118
:101270008D1110C08091E601C8120CC0E1100AC0A7
:101280009683C8010E94920587E0F50111928A9524
:10129000E9F76ECFC8010E94EB05882309F409CF56
:1012A000EE2009F406CF8091EC01803208F4B5CF2E
:1012B0002091E6013091E7013A8329839C828B8259
:1012C0009091EA019D831E828F83CE010196A3CF68
:1012D000483C5105B8F5882309F4EECEFE2CEE20EB
:1012E00009F4E7CE8091E7018D111EC08091E601DF
:1012F000C8121AC08091EC0180FD0DC0982F907F1C
:1013000051F08683903F09F45ECF982F907F905FD5
:101310008F70892B57CF87E0F801A6EEB1E00190DE
:101320000D928A95E1F724CFC8010E94EB05811147
:1013300074CF8091EC0181608093EC01C8010E9420
:10134000920516CF682D9A8A898AA6017A899E2DE0
:101350000E94F80587E0F50111928A95E9F7A6CE7B
:10136000AEE0B0E0E6EBF9E00C945C1E288739872C
:101370004A875B876C877D878E87CE0108960E949F
:1013800026088823B1F06C85662341F028853985CD
:101390004A855B857D858E850E94020617E08091D7
:1013A000AC019091AD0189133DC02E96E3E00C9401
:1013B000781E87E0FE013896DE01119601900D92AD
:1013C0008A95E1F78C85882349F32091AD0130E0BF
:1013D000C9010196877099274091AC0148171906F9
:1013E00099F097E0929FD001939FB00D1124A255E0
:1013F000BE4FFE01319601900D929A95E1F78093D0
:10140000AD010E947907CACF0E94CB051092AD01B1
:101410001092AC0187E0E6EEF1E0DF011D928A95C3
:10142000E9F7BCCF819FC001112482559E4F0E94D5
:101430002608882309F4B9CFE091AC011E9FF00182
:101440001124E255FE4F2081318142815381648114
:10145000758186810E9402068091AC0190E0019620
:10146000877099278093AC019ACF80911502869559
:1014700086958695089580911502877008959091BC
:101480001502977081E009F480E00895809141028F
:10149000089590914102892B80934102089580958F
:1014A0009091410298239093410208951092410235
:1014B000089590914002892B809340020895809571
:1014C0009091400298239093400208951092400218
:1014D000089508950E94690A089590911602292F8F
:1014E000282331F080958923809316020E946A0A8E
:1014F000089508950E94790A089590911702292F5E
:101500002823281729F0982B909317020E947A0A13
:10151000089590911702292F282331F0809589236F
:10152000809317020E947A0A0895809117028823F7
:1015300029F01092170280E00E947A0A0895CF9352
:10154000C091410280914002C82B809117028823EC
:1015500031F0C82B0E94251581110E94950A8C2F0D
:10156000CF910895CF93DF93C0910201D0910301F1
:101570000E949F0A8883C0910201D091030148E034
:1015800050E06DE072E0CE010E94981E892B59F068
:1015900088E0FE01ADE0B2E001900D928A95E1F79E
:1015A000CE010E94B414DF91CF910895CF93DF93C1
:1015B000C0910001D09101010E949F0A8983C091CE
:1015C0000001D091010140E250E06DEE71E0CE01EA
:1015D0000E94981E892B59F080E2FE01ADEEB1E029
:1015E00001900D928A95E1F7CE010E94BF14DF9120
:1015F000CF9108950E949716813039F4809173023B
:1016000087FF03C00E94D60A08950E94B20A089577
:1016100008950E94080B08959091740292FF11C0E2
:1016200098E0899F90011124622B609315020E941B
:101630005406809115028695869586950E94090B21
:1016400008950E94540608951092150280E00E94A9
:10165000090B0895909115028095892380931502B6
:10166000282F277069F4891759F09091740292FF1E
:1016700007C08695869586950E9464060E94240B75
:1016800008959091740292FB222720F9281769F09F
:1016900080FB92F99093740280917302909174028E
:1016A0000E94900B82E00E942A0B089580917402A0
:1016B00082FB882780F991E089270E94410B0895D9
:1016C00081E00E94410B089580E00E94410B089543
:1016D0006FEF7FEF90E080E00E94EA1E089590E0B7
:1016E00080E00E94B61E21E0853E9E4F09F020E07A
:1016F000822F089582E090E00E94AE1E089583E05C
:1017000090E00E94AE1E90E00895682F83E090E084
:101710000E94CC1E089584E090E00E94B61E0895B9
:10172000BC0184E090E00E94EA1E0895AB01BC0178
:101730008FE090E00E94DE1E0895AB01BC0183E1C2
:1017400090E00E94DE1E089560E070E0CB010E94F0
:101750009D0B089560E070E0CB010E94960B0E9403
:10176000A40B0895A8E0B0E0E8EBFBE00C945D1E4C
:1017700065EE7EEF90E080E00E94EA1E60E082E08D
:1017800090E00E94CC1E81E090E09093AB018093AA
:10179000AA010E94850B60E074E184E090E00E9461
:1017A000EA1E60E086E090E00E94CC1E60E087E0E8
:1017B00090E00E94CC1E40E050E0BA0188E090E04A
:1017C0000E94DE1E60E083E290E00E94CC1E60E09A
:1017D0008CE090E00E94CC1E60E08DE090E00E94E2
:1017E000CC1E19821A821B821C821D821E821F82BD
:1017F000188648E050E067E170E0CE0101960E9453
:10180000BC1E40E050E0BA018FE190E00E94DE1E75
:101810000E94AA0B2896E2E00C94791E0E94B20B5B
:101820000895682F8EE090E00E94CC1E0895A6E0F7
:10183000B0E0EDE1FCE00C945B1E0E943F178C01D0
:1018400080914202909143028017910781F01982A2
:101850001A820E943F17682F49815A81792F80E0B0
:1018600090E00E9498021093430200934202269651
:10187000E4E00C94771E0E944B1760934B02709328
:101880004C0280934D0290934E02609347027093F6
:1018900048028093490290934A020895089508955A
:1018A0000E944E0C089508950E94530C089585E2FD
:1018B0009FE00E944A100E944F0C0E94500C089515
:1018C00081E008950E94600C08950E94600C0895C4
:1018D000089508950E94680C0E94690C08950E9462
:1018E0006F0B811102C00E940E0C0E947A0B809334
:1018F0004F020E948B0B90937402809373020E949C
:101900006D100E947F0B0E9418068091A801909193
:10191000A9010E94390608950E9436170E94A30F5C
:101920000E946F0C0E9472020E94540C0895A6E05F
:10193000B0E0EDE9FCE00C94541E0E94620C8111B1
:101940000AC00E94170C0E940C130E947F02269668
:10195000EBE00C94701E0E94B90F1091440280E0DD
:101960000E94410F18130EC01091450281E00E94A1
:10197000410F811307C01091460282E00E94410F7F
:101980001817F9F280914F0281FD0E94470F0E94C3
:10199000650CC82E84E4A82E82E0B82E10E09924AD
:1019A0009394812F0E94410F082FF50181915F01CF
:1019B000081729F1D02ED826F12CEE24E3948D2D92
:1019C0008E21A9F0CC2099F0F9821A830E943F174A
:1019D0009C838B839D8291E0802F8E2109F490E07F
:1019E00049815A816B817C818D810E949802F39498
:1019F000EE0CF4E0FF12E3CFF501319700831F5F97
:101A0000133079F60E943B0C9ECF1F93CF93DF9348
:101A10000E94340EEC01C11580E5D807F0F5C11520
:101A200080E4D80708F09CC0C03ED10520F5CD3C2D
:101A3000D10508F082C0C83AD10578F4C53AD1057D
:101A400008F073C0C130D10519F1209709F1C430F5
:101A5000D105F0F4D0E0C0E01BC0C33CD105D0F705
:101A6000C85AD0E0CC0FDD1FCD5ADE4F0990D88187
:101A7000C02DD4640DC0C11580E2D80708F0D1C0D4
:101A8000C11581E0D80708F05AC0C83ED10510F74B
:101A9000CE01DF91CF911F910895C03682E5D8071E
:101AA00018F5C03482E5D80708F06BC0C03282E573
:101AB000D80708F05FC0C11582E5D80708F497C0C1
:101AC0002C2F2695269580E2289F900111248C2F9B
:101AD0008370C1E0D0E002C0CC0FDD1F8A95E2F731
:101AE000C22BD32BDD68D4CFC03A82E5D80760F48F
:101AF000C03882E5D80708F459C0CF71D0E0DC2F98
:101B0000CC27C46FD06AC4CFC03C82E5D80708F4A4
:101B100062C0C03E82E5D80708F09CCFDC2FCC27FE
:101B2000CC27DF71C06FD06AB3CFC55AD0E0C7579A
:101B3000DE4FC881D0E0D064ABCFD065A9CF8D2F68
:101B40000E94D60E182FCE0199270E94340EC12F65
:101B5000D0E0DC2FCC27CC27DF71C82BD92B98CF36
:101B6000CE0199270E94340ECC27DF70C82BD92BC9
:101B7000D06A8ECFCF71D0E0DC2FCC27C16FD06A76
:101B800087CF2C2F26952695277080E2289F9001DD
:101B900011248C2F8370C1E0D0E002C0CC0FDD1F78
:101BA0008A95E2F7C22BD32BDC6872CF2C2F2695B7
:101BB0002695277080E2289F900111248C2F837036
:101BC000C1E0D0E002C0CC0FDD1F8A95E2F7C22B46
:101BD000D32BDA685DCF8C2F8F710E94D60EC82F61
:101BE000D0E0DC2FCC27CC27DF71D06251CF8C2FF7
:101BF0008F710E94D60E55E0D695C7955A95E1F79C
:101C0000CF70D0E0DC2FCC27282F30E084FF05C038
:101C100044E0220F331F4A95E1F7C22BD32BD06942
:101C200037CF8D2F8F710E94D60E182FCE01992796
:101C30000E94340EC12FD0E0DC2FCC27CC27DF71DF
:101C4000C82BD92BD2CF462F733030F4643020F418
:101C5000672F0E945501089590E080E008950E944A
:101C6000230E0E94050D089582389105B9F1B0F454
:101C70008133910509F47DC048F48932910509F456
:101C80006DC08A32910509F47BC0089585339105B2
:101C900009F45FC08933910509F10895833E9105E8
:101CA000D9F138F4803E910529F1823E910579F110
:101CB0000895863E9105D9F1873E910509F43EC00D
:101CC000843E910541F52091740221FF24C080914A
:101CD000730284FD19C087EE90E00895209173028D
:101CE000237009F05AC02091740223FF14C089E2C6
:101CF00090E008952091730220FD38C03091740265
:101D000030FF09C024FF43C090E080E00895209197
:101D1000730222FDF7CF08952091730222FD3AC08D
:101D20003091740230FD39C024FFF5CFEDCF209102
:101D3000730223FFF0CF24FDE7CFCDCF20917302B4
:101D400023FD2EC03091740231FFEECF84EE90E07F
:101D500008952091730225FFDECFC9CF2091730231
:101D600025FD21C02091740223FFD5CF89E390E0A7
:101D7000D2CF2091730226FFCECF8AE290E0089561
:101D80002091730226FFC7CF81E390E0089583EE90
:101D900090E0089582EE90E0089580EE90E008953E
:101DA00086EE90E0089585E390E0089590917302A7
:101DB00092FF10C041E0282F2471243009F040E048
:101DC00031E0282F2871283009F030E0431711F056
:101DD0002CE0822793FF10C041E0282F247124318A
:101DE00009F040E031E0282F2871283109F030E077
:101DF000431711F02CE082273091740230FF10C09D
:101E000051E0282F2171213009F050E041E0282FC6
:101E10002871283009F040E0541711F029E082279A
:101E200031FF10C041E0282F2171213109F040E03D
:101E300031E0282F2871283109F030E0431711F0E4
:101E400029E0822794FD877E089580E00895CF934E
:101E50009C01205E3245C1E02032310538F4FB019F
:101E6000C581C11103C08F710E94C6018C2FCF9113
:101E7000089508950E94390F089508950E943D0F16
:101E80000895E82FF0E0E858FD4F80810895089507
:101E90001F93CF93DF932CE831E0C1E0D0E0D9016C
:101EA00050E040E08D918F3F91F0E82FE295EF7088
:101EB000F0E011A18F70BE0101C0660F8A95EAF7AC
:101EC000962F9095912391A382A1862B82A34F5F99
:101ED0005F4F4430510531F72C5F3F4F81E0283987
:101EE0003807E9F6DF91CF911F910895CF93DF93E3
:101EF000AC0170E0FB01EE0FFF1FEE0FFF1FE45778
:101F0000FE4FA4E0B1E080E091919F3FD1F0C92F56
:101F1000C295CF70D0E028A130E09F7002C0359507
:101F200027959A95E2F720FD0CC02B2F822BBB0F33
:101F3000A15051F7640F751FFB018083DF91CF9192
:101F4000089520E0F3CF0E94480F83E0E8E7F2E035
:101F5000DF01982F1D929A95E9F7E5E7F2E0DF019E
:101F60001D928A95E9F783E00E94F80F0E943A0FCC
:101F70000895A3E0B0E0EFEBFFE00C945C1E198243
:101F80001A821B8260E0CE0101960E94760F61E00A
:101F9000CE0101960E94760F62E0CE0101960E946A
:101FA000760F43E050E0BE016F5F7F4F85E792E020
:101FB0000E94981E21E0009709F420E0892B49F047
:101FC00089819A81AB818093750290937602A09368
:101FD000770243E068E772E085E792E00E94F90F3C
:101FE000182F0E943E0F812F2396E3E00C94781E59
:101FF0000895B0E0A0E0EFEFFFE00C94571E6C01F5
:102000007B01042FC22F222379F081E080935202BA
:102010000E943F17909351028093500280E0CDB709
:10202000DEB7E8E00C94731ED0915202DD23B1F3C9
:1020300080915002909151020E945717059770F3BA
:1020400010E0A801B601C7010E94981E892B31F04B
:10205000A801B601C7010E94A51ECD2F1092520201
:102060008C2FDDCF0E94970C08950E94D8160E94F5
:10207000EF180E94570C0E9409190E948C0C0E94B4
:1020800016190E941B190E9432100E9435190E94D5
:102090006A0CF7CF909399018093980108950E945C
:1020A000680B089580E00E94410F817008950E949E
:1020B000B90F2FEF86E791E0215080409040E1F783
:1020C00000C000000E94B90F0E945210882321F026
:1020D0000E944F100E948A1708950E945710089579
:1020E000CF93DF93EB0186319C4711F50E94460A9E
:1020F0009D81992399F08A7A91E009F490E0909378
:102100005302811109C089E20E94D3150E94FA0A84
:1021100080E0DF91CF91089585E3F6CF809153025F
:10212000811104C089E20E94ED15F0CF85E3FBCF59
:1021300081E0EFCFCF93DF93EC01FB018581882312
:1021400009F4D2C09E0130572332310508F0B2C0E5
:102150000E948B0B9093740280937302FE01E150F6
:10216000F047E232F10520F4E25FF04E0C94471E96
:102170008091730281608093730293C08091740296
:102180008860809374028DC0809173028260F3CF67
:10219000809173028460EFCF809173028860EBCFEF
:1021A000809174028160EDCF809174028260E9CFEA
:1021B000809173028061DFCF809173028062DBCFF8
:1021C000809173028064D7CF0E94CB058091730207
:1021D0008068D1CF809173028C60CDCF80917402E2
:1021E0008360CFCF809173028E7FC5CF80917402C0
:1021F000877FC7CF809173028D7FBDCF809173029F
:102200008B7FB9CF80917302877FB5CF80917402A5
:102210008E7FB7CF809174028D7FB3CF8091730290
:102220008F7EA9CF809173028F7DA5CF809173029D
:102230008F7BA1CF0E94CB05809173028F779BCFBC
:1022400080917302837F97CF809174028C7F99CFA6
:102250008091730282FB992790F921E0922790FBED
:1022600082F990FB83F987CF80917402982F909523
:1022700091708E7F892B90FB81F983CF90917302AF
:10228000892F8F7B96FF806476CF0E94CB0590913B
:102290007302892F97FB87F980586DCF81E00E94E8
:1022A000110C80917302909174020E94900B0E9415
:1022B000CB0580E0DF91CF91089580E0F0CF909141
:1022C0007302892F8F7E94FF806155CF90917302A6
:1022D000892F8E7F90FF81604ECF90917402892F5D
:1022E000877F93FF88604DCF81E0E4CF282F35EBC7
:1022F0002303C001112497FF04C080589109892F3E
:10230000089580589F4FFBCF80915A0280FF0DC0E7
:102310006091090170E0660F771F6038710570F5F4
:102320006115710569F1862F089581FF07C06091DD
:10233000090184E0689FB0011124EFCF6091090189
:1023400082FD0AC0809159028823A9F020910801DA
:1023500060910901821710F088E0ECCF869FC001E0
:10236000112433E0880F991F3A95E1F7622F70E04E
:102370000E94331ED2CF68E070E0D5CF8FE708957A
:1023800081E0089580915A0280FF0CC060910501A0
:1023900070E075956795759567956115710549F1BB
:1023A000862F089581FF06C06091050170E0759544
:1023B0006795F3CF6091050182FD0BC090915802A3
:1023C0009923A1F06091040180910501961738F0DE
:1023D000682F70E06038710500F38FE70895899FDA
:1023E000C001112470E00E94331EF4CF61E070E060
:1023F000D7CF81E008958D3C31F40E9484118195FE
:1024000080935E0208958E3C19F40E948411F8CFE7
:102410008F3C31F40E948411819580935D02089570
:10242000803D19F40E948411F8CF893D29F40E945F
:10243000C21180935F0208958A3D21F40E94C21167
:102440008195F7CF8B3D31F40E94C2118195809325
:10245000600208958C3D19F40E94C211F8CF9FE2EA
:10246000980F983070F4815D990B21E030E001C045
:10247000220F8A95EAF780915C02822B80935C029E
:1024800008958D3D31F480915A02816080935A0203
:1024900008958E3D21F480915A028260F7CF8F3DDE
:1024A000B9F780915A028460F1CF40915D028D3C72
:1024B00059F480915E0287FF0DC010925E024111B7
:1024C0000BC01092590208C08E3C81F480915E02CC
:1024D00018169CF3442381F080915F029091600272
:1024E000892B09F05AC01092580208958F3C49F484
:1024F00047FFF0CF10925D0280915E028111ECCF18
:10250000E0CF803D19F41416ACF3E4CF90915F0254
:10251000893D29F41916F4F610925F02DBCF8A3D4B
:1025200019F497FFD7CFF8CF909160028B3D29F433
:1025300097FFD0CF10926002CDCF8C3D19F41916C1
:10254000CCF3C8CF9FE2980F983090F4815D990B3F
:1025500021E030E0B90102C0660F771F8A95E2F7EB
:10256000CB01809590915C02892380935C02B2CF6D
:102570008D3D31F480915A028E7F80935A02AACF0A
:102580008E3D21F480915A028D7FF7CF8F3D09F067
:10259000A1CF80915A028B7FF0CF08950E943F1700
:1025A0009C0190915D0280915E02982B21F0309306
:1025B00057022093560290915F0280916002982BFF
:1025C00021F030935502209354028BE592E00E9453
:1025D000CD14089586E0EBE5F2E0DF011D928A95C7
:1025E000E9F7109259021092580210925A02089577
:1025F000FC01828181110EC0838181110BC0848115
:10260000811108C091E08581811101C090E0892F7E
:102610008170089581E0FCCFA6E0B0E0E2E1F3E153
:102620000C945C1E86E0EBE5F2E0DE011196019071
:102630000D928A95E1F710925D0210925E0210925F
:102640005F02109260028B819C81892B89F08091BE
:102650005602909157020E945717AC01909159026F
:102660009923C9F180910A018417150608F440C026
:102670008D819E81892B91F0809154029091550219
:102680000E945717AC0190915802992309F46AC02F
:10269000809106018417150608F472C0BE016F5FB1
:1026A0007F4F8BE592E00E942116811105C08BE5DA
:1026B00092E00E94F81281110E94CE1286E0FE0183
:1026C0003196ABE5B2E001900D928A95E1F726963E
:1026D000E3E00C94781E20910B018AE0289F900182
:1026E00011242417350720F69F5F9093590202C0EA
:1026F0009F3FD1F71B81112359F00E9484119FEF56
:1027000011160CF491E0899F802D112480935D02B5
:102710001C81112359F00E9484119FEF11160CF4B3
:1027200091E0899F802D112480935E0280915D024B
:10273000882309F49DCF10915E02112309F498CFEC
:102740000E947611882351F080935D02812F0E94B0
:102750007611882329F080935E028ACF81E0F4CF3E
:1027600081E0F9CF209107018AE0289F9001112490
:102770002417350708F092CF9F5F9093580202C04C
:102780009F3FD1F71D81112359F00E94C2119FEF85
:1027900011160CF491E0899F802D112480935F0223
:1027A0001E81112359F00E94C2119FEF11160CF4E3
:1027B00091E0899F802D11248093600280915F02B7
:1027C000882309F46BCF10916002112309F466CFBE
:1027D0000E947611882351F080935F02812F0E941E
:1027E0007611882329F08093600258CF81E0F4CFDE
:1027F00081E0F9CF0F931F93CF93DF93C42FD22F94
:10280000FC0185818823C9F0409363020E943F1731
:10281000909362028093610280E28C0F883040F4D2
:10282000C77081E001C0880FCA95EAF70E9478035B
:10283000DF91CF911F910F910895109163021413AE
:1028400032C080916102909162020E945717883CC9
:10285000910548F5C0E2CD0F1D17B9F080E2810F58
:10286000883040F4177081E001C0880F1A95EAF7AC
:102870000E947F03C83048F481E09D2F977001C00B
:10288000880F9A95EAF70E947803802F0E946F03C1
:10289000C83070F6D77081E001C0880FDA95EAF78A
:1028A0000E947F03C5CF80E28C0F883008F6C77086
:1028B00081E001C0880FCA95EAF7F2CF0F93DB01E0
:1028C00088519C4787309105A0F5FC01E05DF04EF2
:1028D0000C94471E06E221EE41EE6AE17CE7CD0151
:1028E0000E94FA1380E00F91089507E225EE45EE6D
:1028F0006BE17CE7F4CF06E221EE40EE68E17CE795
:10290000EECF07E225EE44EE69E17CE7E8CF06E290
:1029100021EE42EE6CE17CE7E2CF07E225EE46EEE7
:102920006DE17CE7DCCF08E221E045EE6EE17CE77B
:10293000D6CF15968C91882319F010926302D3CFCD
:1029400081E0D1CF90936902809368020895E0916D
:102950006802F0916902309729F00190F081E02D32
:102960000995089580E00895E0916802F091690268
:10297000309721F00280F381E02D09950895E091D0
:102980006802F0916902309739F026E0DC012C935F
:102990000480F581E02D09950895E0916802F09199
:1029A0006902309739F022E0DC012C930680F78130
:1029B000E02D09950895A3E0B0E0E1EEF4E10C9478
:1029C0005D1E209166023091670228173907A1F039
:1029D0009093670280936602E0916802F091690229
:1029E000309751F023E029839B838A830084F1850B
:1029F000E02DCE01019609952396E2E00C94791E14
:102A0000A3E0B0E0E6E0F5E10C945D1E20916402E5
:102A10003091650228173907A1F0909365028093E1
:102A20006402E0916802F0916902309751F024E06D
:102A300029839B838A830084F185E02DCE01019652
:102A400009952396E2E00C94791ECF93DF93C09111
:102A50000201D091030122960E949716813081F4E1
:102A60008091730287FF0CC0C0910001D0910101D9
:102A700022969EE180E0915028F4DF91CF91089555
:102A800096E0F8CF29912223B1F38F5FF4CFCF9353
:102A9000C82F811102C080E024C00E9497168130A7
:102AA00011F58091730287FF1EC0EC2FE695E69525
:102AB000E695EE3180F78091000190910101E80FD9
:102AC000F92FF11D228130E0C77081E090E002C053
:102AD000880F991FCA95E2F72823392381E0232B19
:102AE000D1F2CF9108958091020190910301FC01F0
:102AF0003296089621912C1721F0E817F907D1F7A3
:102B0000CACF81E0EECF9C01FC0132969FEF80E0BE
:102B10004191461751F09F3F19F4411101C0982F80
:102B20008F5F8630A9F79F3F09F40895290F311D63
:102B300097FD3A95F90162830895FC013296089653
:102B40002191261303C0DF0111971C92E817F907A2
:102B5000B9F70895E62FE695E695E695EE3168F427
:102B6000E80FF92FF11D677021E030E001C0220F5E
:102B70006A95EAF78281822B82830895E62FE69593
:102B8000E695E695EE3170F4E80FF92FF11D6770C8
:102B900021E030E001C0220F6A95EAF7209582819A
:102BA000282322830895CF93C82F0E9497166C2F55
:102BB000813061F48091730287FF08C08091000129
:102BC000909101010E94AA15CF9108958091020170
:102BD000909103010E948315F7CFCF93C82F0E94D5
:102BE00097166C2F813061F48091730287FF08C0C3
:102BF00080910001909101010E94BE15CF9108952E
:102C000080910201909103010E949D15F7CF0E94CF
:102C10009716813079F48091730287FF0BC0E091A1
:102C20000001F091010132968EE1DF011D928A953B
:102C3000E9F70895E0910201F0910301329686E0F0
:102C4000F4CFDC01FB0111969C91119781819813BF
:102C500022C012968C911297882319F092818913C1
:102C60001AC013968C911397882319F093818913B6
:102C700012C015968C911597882319F095818913A8
:102C80000AC014969C91992321F081E02481291394
:102C900003C080E001C081E08170089508950E9422
:102CA0004E16089581110EC081E080930F0160914E
:102CB0000C0170910D0180910E0190910F010E9405
:102CC0004F16089582E0F1CF83E080930F01609169
:102CD0000C0170910D0180910E0190910F010E94E5
:102CE0004F1608950E945216089581E080930F01B7
:102CF00060910C0170910D0180910E0190910F0176
:102D00000E944F1608950E947516089591E0811152
:102D100001C090E090930E0160910C0170910D0143
:102D200080910E0190910F010E944F16089580919D
:102D30000E01089580930D0160910C0170910D01B9
:102D400080910E0190910F010E944F16089580917D
:102D50000D01089580930C0160910C0170910D019B
:102D600080910E0190910F010E944F16089580915D
:102D70000C010895089508950E94BB1608950895C2
:102D800008950E94BA160895CF930E94BF160E941C
:102D9000B90F0E94C016C0E08C2F0E94410F811114
:102DA00005C0CF5FC330C1F7CF91089581E0FCCF5C
:102DB00085B7806885BF85B7806885BF08951F92F5
:102DC0001FB61F9211248F939F93AF93BF9380914F
:102DD0006A02811113C080917B0290917C02A091C4
:102DE0007D02B0917E024196A11DB11D80937B02B0
:102DF00090937C02A0937D02B0937E02BF91AF912D
:102E00009F918F911F901FBE1F90189580918302F4
:102E1000843031F10E94560210926A0288E190E0FB
:102E200020E40FB6F894A895809360000FBE20931D
:102E3000600083B7817F846083BF83B7816083BF75
:102E40007894889583B78E7F83BF0FB6F894A89542
:102E500080916000886180936000109260000FBED6
:102E600008950E94CB050E945B02089582E084BD14
:102E700093E095BD9AEF97BD80936E0008952FB7AC
:102E8000F89480917B0290917C02A0917D02B09198
:102E90007E022FBF08952FB7F89460917B02709146
:102EA0007C0280917D0290917E022FBF08959C014B
:102EB0004FB7F89480917B0290917C02A0917D02A3
:102EC000B0917E024FBF821B930B089578941F929E
:102ED0001FB61F9211248F939F93AF93BF9380913E
:102EE0007B0290917C02A0917D02B0917E020196BE
:102EF000A11DB11D80937B0290937C02A0937D0263
:102F0000B0937E02BF91AF919F918F911F901FBE92
:102F10001F90189587E797E7909301088093000822
:102F200088E19AE00FB6F894A895809360000FBEF0
:102F300090936000FFCF88E19AE00FB6F894A895CF
:102F4000809360000FBE90936000FFCF9B01BA0199
:102F5000909183029430E9F48F708093E9009FEFA1
:102F60008091E800915085FD06C085ED8A95F1F7C6
:102F700000009111F5CF8091E80085FF0AC050E074
:102F800040E0C9010E94AC198091E8008E778093DF
:102F9000E800089543E050E0BC0182E00E94A617DB
:102FA000089546E050E0BC0182E00E94A617089513
:102FB00040E250E0BC0182E00E94A6170895CF9342
:102FC000DF93EC010E94971648E050E0BE0181E0DB
:102FD0000E94A61788E0FE01ABE6B2E001900D92D8
:102FE0008A95E1F7DF91CF91089580918202811156
:102FF00009C00E943C1B0E94991B8091E2008460E2
:103000008093E20008951092820208950E9475163E
:1030100081E00E948616089560917F0281E061112F
:1030200001C080E00E94641608959091830281E0BF
:10303000943009F080E060917F020E94721608953A
:1030400042E061EC81E00E94B81A42E261EC82E069
:103050000E94B81A9091830281E0943009F080E0D8
:1030600060917F020E9452160895809185028330FC
:1030700009F461C030F48130D1F1823009F49EC08E
:1030800008958A3009F48AC08B3009F46FC0893002
:1030900009F050C080918402813209F04BC08091C8
:1030A000880290918902029708F044C08091E8005C
:1030B000877F8093E8008091E80082FF37C090917D
:1030C000F3008091F200029731F48091F100813099
:1030D00011F0863021F48091F1000E949A168091BF
:1030E000E8008B778093E8000E94EC1A23C080915F
:1030F0008402813AF9F48091E800877F8093E800A8
:103100008091880290918902892B61F468E08BE6B6
:1031100092E070E00E94FB198091E8008B77809329
:10312000E800089560E090E080E0F3CF80918302B2
:103130008111C1CF089580918402813AD9F780919D
:10314000880290918902892BA9F78091E800877FF6
:103150008093E8008091E80080FFFCCF0E949716E2
:103160008093F1008091E8008E77BCCF809184023B
:10317000813201F78091880290918902892BD1F6E2
:103180008091E800877F8093E8000E94EC1A80918C
:1031900086020E9486160E94CB05089580918402C3
:1031A000813241F68091E800877F8093E8000E9499
:1031B000EC1A809187020E94AA16089580918402D9
:1031C000813A09F0B7CF8091E800877F8093E800CB
:1031D0008091E80080FFFCCF0E94B716C1CF84B772
:1031E000877F84BF0FB6F894A895809160008861AE
:1031F00080936000109260000FBE80E890E00FB6F0
:10320000F89480936100909361000FBE0E94831632
:1032100008950E943C1B0E94991BE2EEF0E0808121
:103220008460808378940E94181E089580E191E064
:103230000E94A214089580918302853031F4809118
:103240008302853019F00E94311708950E940617F5
:103250000E94C416882399F380918102882379F310
:103260000E9496190E94CB05EACF08959A014091D9
:103270008A0250918B020E943E190895492F5527CA
:103280004330510519F168F44130510509F444C047
:103290004230510509F445C090E080E050E040E044
:1032A00025C04132510549F142325105A9F784E464
:1032B00090E04BEF51E061157105C1F086EB90E0B5
:1032C00045E451E06130710589F0E6CF99278130FE
:1032D000910581F0009729F00297F1F6E4ECF0E017
:1032E00002C0E4EFF0E0849190E0AF01F901518376
:1032F00040830895EAEDF0E0F6CF89E090E04AE0FF
:1033000051E06115710591F389E090E043E251E0ED
:103310006130710559F3C0CF82E190E043E351E0A1
:10332000E5CF8BE390E048EF50E0E0CF80E189BD4E
:1033300082E189BD09B400FEFDCF8091D8008F7D68
:103340008093D8008091E00082608093E0008091BB
:10335000E00081FDFCCF0895AF92BF92CF92DF9243
:10336000FF920F931F93CF93DF936C01EB018A01C0
:103370000E940B1BF82E811123C00115110539F095
:10338000F80180819181C81BD90BC80ED91EB12CC0
:10339000A12C2097A9F08091E80085FD22C08091A2
:1033A000E8008E778093E80001151105A1F0F8017F
:1033B00080819181A80EB91EB182A08285E0F82E8D
:1033C0008F2DDF91CF911F910F91FF90DF90CF90C4
:1033D000BF90AF9008950E940B1B8823D1F2F82E66
:1033E000EFCFF60181916F018093F1002197FFEFFC
:1033F000AF1ABF0ACECFFC0180918A0290918B0256
:1034000086179707A0F06115710529F49091E800DF
:103410009E779093E80090E06115710551F4911149
:1034200008C08091E80082FF34C080E00895BC01AC
:10343000F2CF809183028823C1F18530C1F1809160
:10344000E80083FD30C08091E80082FDEACF8091E2
:10345000E80080FFE1CF8091F3002091F200382F47
:103460006115710519F02830310558F091E02830C8
:10347000310509F090E02091E8002E772093E800D4
:10348000CBCF81918093F100615071092F5F3F4F45
:10349000E7CF80918302882341F0853041F080910D
:1034A000E80083FFBECF81E0089582E0089583E0C5
:1034B0000895FC0180918A0290918B0286179707EC
:1034C000A0F06115710529F48091E8008E77809352
:1034D000E80090E06115710551F4911108C08091E8
:1034E000E80082FF35C080E00895BC01F2CF8091F2
:1034F00083028823C9F18530C9F18091E80083FDFA
:1035000031C08091E80082FDEACF8091E80080FF21
:10351000E1CF8091F3002091F200382F6115710501
:1035200019F02830310558F091E02830310509F0C4
:1035300090E08091E8008E778093E800CBCF849173
:103540008093F1003196615071092F5F3F4FE6CFB4
:1035500080918302882341F0853041F08091E8001A
:1035600083FFBDCF81E0089582E0089583E0089550
:10357000982F973028F08F708093E90081E00895AC
:103580009093E900242F762F50E0981731F0709136
:10359000EC002091ED005091F00021FD02C09F5FF2
:1035A000E8CF3091EB003E7F3093EB003091ED009F
:1035B0003D7F3093ED003091EB0031603093EB00B4
:1035C0007093EC002093ED005093F0002091EE00FA
:1035D00027FDE5CF80E008958091840287FF13C026
:1035E0008091E80082FF06C08091E8008B7780938D
:1035F000E80004C0809183028111F2CF0895809188
:1036000083028823D9F38091E80080FFF8CF80916E
:10361000E8008E77ECCF2091E4003091E50095E64C
:10362000A9012091EC00822F817020FF06C08091BB
:10363000E80080FF06C080E008952091E80022FDA8
:103640001AC080918302882389F0853089F08091A7
:10365000EB0085FD0FC02091E4003091E50042179A
:103660005307F9F29150E1F684E0089582E008955D
:1036700083E0089581E008950E94AB1B0E94B31B74
:10368000E0EEF0E0808181608083E8EDF0E0808111
:103690008F77808319BCA7EDB0E08C918E7F8C93DF
:1036A00080818F7E80831092820208950F931F93F2
:1036B000CF93DF930E94AB1B0E94B31BC8EDD0E0F9
:1036C00088818F77888388818068888388818F7DCF
:1036D000888319BC1092830210927F02109281029B
:1036E0001092800200EE10E0F80180818B7F8083D1
:1036F00088818160888342E060E080E00E94B81A9F
:10370000E1EEF0E080818E7F8083E2EEF0E0808168
:1037100081608083808188608083F80180818E7FD2
:103720008083888180618883DF91CF911F910F9181
:103730000895E8EDF0E080818F7E8083E7EDF0E092
:1037400080818160808384E082BF81E080938202F7
:103750000E94561B0895E8EDF0E080818E7F808303
:103760001092E20008951092DA001092E10008959C
:103770001F920F920FB60F9211242F933F934F93E6
:103780005F936F937F938F939F93AF93BF93EF93C9
:10379000FF938091E10082FF0BC08091E20082FFE5
:1037A00007C08091E1008B7F8093E1000E94171E8B
:1037B0008091DA0080FF19C08091D80080FF15C089
:1037C0008091DA008E7F8093DA008091D90080FFAB
:1037D00096C080E189BD82E189BD09B400FEFDCFBC
:1037E00081E0809383020E94F5178091E10080FFC1
:1037F00019C08091E20080FF15C08091E2008E7FA9
:103800008093E2008091E20080618093E2008091E9
:10381000D80080628093D80019BC85E08093830231
:103820000E940C188091E10084FF2BC08091E2007F
:1038300084FF27C080E189BD82E189BD89B5982FC9
:10384000917080FFFBCF8091D8008F7D8093D8004E
:103850008091E1008F7E8093E1008091E2008F7E75
:103860008093E2008091E20081608093E200809189
:103870007F02882309F449C084E0809383020E9478
:1038800015188091E10083FF29C08091E20083FF39
:1038900025C08091E100877F8093E10082E08093E2
:1038A000830210927F028091E1008E7F8093E1007D
:1038B0008091E2008E7F8093E2008091E20080613F
:1038C0008093E20042E060E080E00E94B81A8091BC
:1038D000F00088608093F0000E940618FF91EF913D
:1038E000BF91AF919F918F917F916F915F914F9118
:1038F0003F912F910F900FBE0F901F90189519BCFC
:10390000109283020E94031870CF8091E30087FD1C
:1039100093E090938302B3CF1F920F920FB60F9252
:1039200011242F933F934F935F936F937F938F93C4
:103930009F93AF93BF93CF93DF93EF93FF93D09178
:10394000E900DF708091EC00C82FC17080FDC0E8F5
:103950001092E9008091F000877F8093F0007894C6
:103960000E94D01C1092E9008091F0008860809342
:10397000F000CD2BCF70C093E900FF91EF91DF9164
:10398000CF91BF91AF919F918F917F916F915F91F7
:103990004F913F912F910F900FBE0F901F90189550
:1039A000AAE2B0E0E6EDFCE10C945C1E84E892E053
:1039B0002091F100FC012193CF01F2E08C389F07A8
:1039C000B9F70E9435188091E80083FF1EC18091ED
:1039D0008402909185029A3008F017C1E92FF0E037
:1039E000E95CF04E0C94471E803899F0823809F05B
:1039F0000CC1809188028F70873008F006C18093D7
:103A0000E9008091EB0085FB882780F91092E9009E
:103A100006C0809180029091810291118260909104
:103A2000E800977F9093E8008093F1001092F100F6
:103A30008091E8008E77E5C0882309F4D3C08230F6
:103A400009F0E3C0809186028111D6C0809188027E
:103A50008F702FEF280F263008F0D7C08093E90031
:103A60002091EB0020FFC8C0933031F48091EB002F
:103A700080628093EB00C0C09091EB0090619093C6
:103A8000EB0021E030E001C0220F8A95EAF7209395
:103A9000EA001092EA008091EB008860EACF811181
:103AA000B4C0109186021F778091E3008078812B4B
:103AB0008093E3008091E800877F8093E8000E9474
:103AC000EC1A8091E80080FFFCCF8091E3008068D1
:103AD0008093E30082E0111183E08093830295C01C
:103AE0008058823008F091C08091860290918702C0
:103AF0008C3D23E09207A1F583E08A838AE28983E3
:103B00004FB7F894DE01139620E03EE051E2E32F38
:103B1000F0E050935700E49120FF03C0E295EF706E
:103B20003F5FEF708E2F90E0EA30C0F0C7968D9324
:103B30009D932F5F243159F74FBF8091E800877F15
:103B40008093E8006AE270E0CE0101960E94FB19C2
:103B50008091E8008B778093E80057C0C096E7CF4C
:103B60006091880270918902AE014F5F5F4F0E94A1
:103B70003619BC01892B09F448C09091E800977F61
:103B80009093E80089819A810E94591AE1CF803888
:103B9000E1F58091E800877F8093E80080917F02C3
:103BA0008093F10045CF811130C090918602923010
:103BB00060F58091E800877F8093E80090937F0212
:103BC0000E94EC1A80917F02882311F084E005C0E6
:103BD0008091E30087FDFACF81E0809383020E9409
:103BE000201813C080918602813079F481E09330EF
:103BF00009F080E0809381021092E9008091E80052
:103C0000877F8093E8000E94EC1A8091E80083FF90
:103C10000AC08091E800877F8093E8008091EB00E4
:103C200080628093EB00AA96E3E00C94781E0895DE
:103C3000CF93809183028823A1F0C091E900CF70D7
:103C40009091EC00892F817090FD80E8C82B109234
:103C5000E9008091E80083FD0E94D01CCF70C093E2
:103C6000E900CF91089597FB072E16F4009407D032
:103C700077FD09D00E94841E07FC05D03EF4909584
:103C800081959F4F0895709561957F4F0895EE0F30
:103C9000FF1F0590F491E02D09942F923F924F92CF
:103CA0005F926F927F928F929F92AF92BF92CF92CC
:103CB000DF92EF92FF920F931F93CF93DF93CDB7D5
:103CC000DEB7CA1BDB0B0FB6F894DEBF0FBECDBF4D
:103CD00009942A88398848885F846E847D848C841E
:103CE0009B84AA84B984C884DF80EE80FD800C8127
:103CF0001B81AA81B981CE0FD11D0FB6F894DEBF0A
:103D00000FBECDBFED010895AA1BBB1B51E107C03B
:103D1000AA1FBB1FA617B70710F0A61BB70B881F5B
:103D2000991F5A95A9F780959095BC01CD010895EA
:103D3000FB01DC0104C08D910190801921F44150F8
:103D40005040C8F7881B990B0895FB01DC0102C0A5
:103D500001900D9241505040D8F70895F999FECF47
:103D600092BD81BDF89A992780B50895A8E1B0E089
:103D700042E050E00C94F21EDC01A40FB51F41504C
:103D8000504048F0CB01840F951F2E910E94CD1E0C
:103D900041505040D0F70895262FF999FECF92BD9B
:103DA00081BDF89A019700B4021639F01FBA20BD00
:103DB0000FB6F894FA9AF99A0FBE08950396272F32
:103DC0000E94CD1E0E94CC1E252F0E94CD1E242FA6
:103DD0000C94CD1E0196272F0E94CD1E0C94CC1E54
:103DE000DC01CB01FC01F999FECF06C0F2BDE1BDBB
:103DF000F89A319600B40D9241505040B8F70895AA
:103E0000F894FFCFC703C703170417047C04980472
:103E1000F603F6039D040E051D051D05F21066113F
:103E2000FA10C410C810FE10CC1002110E11D810D8
:103E30005F11DC101211E01016113E11E4101A117E
:103E40004511EA1020112811D0100611D4100A11C2
:103E5000EE10241134114E115D11BE10F6106D11CB
:103E60007B1481146A14751487148D149314F41C34
:103E70001C1D051E1C1D051E4F1D701D051EC71D8A
:023E8000D31D50
:103E820018023802280850011E0A1401000001001D
:103E9200A716DF17D817D117CA17E200E900EA0000
:103EA200B500B600B700CD008301CC008A019201B3
:103EB20094012102230224022502260227022A0259
:103EC200B300B4006F0070009F01CB019F02A002FB
:103ED200818283E200E900EA00B500B600B700CDB6
:103EE200008301CC008A0192019401210223022461
:103EF200022502260227022A02B300B4006F0070D4
:103F0200009F01CB019F02A002818283FFFFF43355
:083F1200FFFFF53231F7F6362E
:00000001FF
