:100000000C94ED040C940A050C940A050C940A0552
:100010000C940A050C940A050C940A050C940A0524
:100020000C940A050C940A050C94CF110C94091633
:100030000C94DC1F0C940A050C940A050C940A0518
:100040000C940A050C940A050C940A050C940A05F4
:100050000C940A050C94B6120C940A050C940A052B
:100060000C940A050C940A050C940A050C940A05D4
:100070000C940A050C940A050C940A050C940A05C4
:100080000C940A050C940A050C940A050C940A05B4
:100090000C940A050C940A050C940A050C940A05A4
:1000A0000C940A050C940A050C940A05A8001B0080
:1000B00036023702407E1B000D000F00AC00AE0080
:1000C000AB002078050A1B0005082E08407E1B00A7
:1000D0000E042D080D000E000F002A0008001B0062
:1000E00029001000407E1B001D081B00190007009E
:1000F00018002A00A900AA004F00500015021500A0
:1001000000DA1281FFD9F1DB20A4A62EAF00A0C037
:10011000D30000A1C8D30000AED580A83F408D1405
:10012000200000010101010101010101020202029E
:100130000202020202030303030303030304040491
:10014000040404040505050505060606060607075A
:1001500007070708080808090909090A0A0A0B0B12
:100160000B0C0C0C0D0D0D0E0E0E0F0F0F101011B1
:100170001111121213131414151516161717181837
:1001800019191A1A1B1B1C1D1D1E1E1F202021229F
:1001900022232424252626272829292A2B2C2D2DE5
:1001A0002E2F30313232333435363738393A3B3C02
:1001B0003D3E3F404142434445464748494A4C4DF5
:1001C0004E4F50515354555658595A5B5D5E5F61BE
:1001D0006264656668696B6C6D6F70727375777851
:1001E0007A7B7D7E8082838587888A8C8E8F9193AF
:1001F0009596989A9C9EA0A2A3A5A7A9ABADAFB1D6
:10020000B3B5B7BABCBEC0C2C4C6C9CBCDCFD1D4BA
:10021000D6D8DBDDDFE2E4E7E9EBEEF0F3F5F8FA60
:10022000FDFF00AF00AE5649412020445241472017
:1002300053414C4C2044454C5400004C41595220F1
:100240005253455420554E444F205452414B0000C8
:100250004544495420202020202045534350204D20
:100260004F5645000028524F204C20524F20522913
:100270002020204B49434144004241434B205354EA
:100280004F5020464F52572044454C5400004C419B
:1002900059522052534554204B465241205A4F4DFB
:1002A0002D0000585858582020202020204252412C
:1002B0004B205A4F4D2B0000284652412D204652CC
:1002C000412B292020202046435058004D524556AE
:1002D000204D504C41204D465744204C4954450038
:1002E000004C4159522052534554203130424B204A
:1002F0003130465700004D55544520202020202005
:10030000534C4F572046415354000028564F4C2D14
:1003100020564F4C2B2920204C4159455230000586
:10032000010902A10185020901A10005091901299C
:10033000081500250195087501810205010930099C
:10034000311581257F9502750881060938158125AB
:100350007F950175088106050C0A38021581257FF5
:10036000950175088106C0C005010980A1018503BA
:1003700019012AB700150126B700950175108100F3
:10038000C0050C0901A101850419012AA00215016B
:1003900026A002950175108100C005010906A10182
:1003A0008506050719E029E715002501950875015F
:1003B00081020507190029EF1500250195F0750147
:1003C000810205081901290595057501910295011C
:1003D00075039101C005010906A101050719E0296E
:1003E000E7150025019508750181029501750881C1
:1003F000010507190029FF150026FF00950675085D
:1004000081000508190129051500250195057501CB
:100410009102950175039101C009023B00020100A0
:10042000A0FA0904000001030101000921110100E3
:1004300001224400070581030800010904010001AD
:100440000300000009211101000122B60007058206
:10045000032000011201000200000008EDFE000070
:1004600000010102000114036A00630070006D00C6
:1004700032007400650073007400000018036A0005
:100480006500720065006D007900730063006F0005
:100490006F006B0000000403090407087F080700D1
:1004A0003E5B4F5B3E003E6B4F6B3E001C3E7C3E16
:1004B0001C00183C7E3C18001C577D571C001C5E1D
:1004C0007F5E1C0000183C180000FFE7C3E7FF0038
:1004D000001824180000FFE7DBE7FF0030483A0669
:1004E0000E00262979292600407F05050700407F58
:1004F00005253F005A3CE73C5A007F3E1C1C080083
:10050000081C1C3E7F0014227F2214005F5F005FE6
:100510005F0006097F017F00006689956A006060C0
:100520006060600094A2FFA2940008047E040800AA
:1005300010207E20100008082A1C0800081C2A0829
:1005400008001E10101010000C1E0C1E0C0030387D
:100550003E383000060E3E0E06000000000000008F
:1005600000005F000000000700070000147F147FF8
:100570001400242A7F2A12002313086462003649DB
:1005800056205000000807030000001C2241000014
:100590000041221C00002A1C7F1C2A0008083E087B
:1005A00008000080703000000808080808000000FB
:1005B000606000002010080402003E5149453E00E2
:1005C00000427F4000007249494946002141494D9F
:1005D00033001814127F10002745454539003C4A66
:1005E000494931004121110907003649494936007E
:1005F000464949291E000000140000000040340054
:1006000000000008142241001414141414000041C6
:10061000221408000201590906003E415D594E00AE
:100620007C1211127C007F49494936003E4141410C
:1006300022007F4141413E007F49494941007F09F5
:10064000090901003E41415173007F0808087F00FD
:1006500000417F4100002040413F01007F081422FB
:1006600041007F40404040007F021C027F007F0429
:1006700008107F003E4141413E007F090909060004
:100680003E4151215E007F0919294600264949490A
:10069000320003017F0103003F4040403F001F2024
:1006A00040201F003F4038403F006314081463009F
:1006B0000304780403006159494D4300007F414120
:1006C0004100020408102000004141417F00040263
:1006D00001020400404040404000000307080000C1
:1006E0002054547840007F2844443800384444441F
:1006F0002800384444287F00385454541800000817
:100700007E09020018A4A49C78007F0804047800E5
:1007100000447D4000002040403D00007F10284400
:10072000000000417F4000007C04780478007C08D1
:1007300004047800384444443800FC182424180089
:1007400018242418FC007C0804040800485454545D
:10075000240004043F4424003C4040207C001C2032
:1007600040201C003C4030403C00442810284400FD
:100770004C9090907C004464544C440000083641F6
:100780000000000077000000004136080000020170
:10079000020402003C2623263C000000000000006A
:1007A000404040F0F8F8FF38FFF8F83FF8F8FF381D
:1007B000FFF8F8F040404000000000000080C0C09A
:1007C000C0800000C0C08000000080C0C000C0C069
:1007D000000080C0C00000000000C0C0C0C0C00059
:1007E000C0C0000000000000000000000000000089
:1007F00000000000000000000000000000000000F9
:1008000000000000000000000000000000000000E8
:10081000000000000000000000C0F0F8FC3E1E06D2
:10082000010000007F4141417F007F4141417F0045
:100830000080C0E07E5B4F5BFEC00000C000DCD7E4
:10084000DEDEDED7DC00C00000000000000000009B
:100850000000000000000000000000000000000098
:10086000494949FFFFFFFFE0DFBFBF00BFBFDFE037
:10087000FFFFFFFF49494900000000001F3F606083
:10088000E0BF1F007F7F071E381E077F7F007F7F2E
:100890000E1F3B716000000000007F7F0C0C0C00FD
:1008A0007E7E007F7E0303007F7E03037E7E030344
:1008B0007F7E000F3E703C063C703E0F00327B494D
:1008C000493F7E007F7E0303001E3F69696F26005B
:1008D000000000000000000000030F1F3F3C787084
:1008E000600000007F4141417F007F4141417F0026
:1008F000307B7F7830202030787F3B0003000F7FF3
:100900000F0F0F7F0F000300000000000000000029
:1009100000000000000000000000000000000000D7
:10092000010101070F0F7F0F7F0F0F7E0F0F7F0F4A
:100930007F0F0F0701010100000000000000000010
:1009400000010100000000000000000000000000A5
:100950000000000000000000000000000000000097
:100960000000000000000000000000000000000087
:100970000000000000000000000000000000000077
:100980000000000000000000000000000000000067
:100990000000000000000000000000000000000057
:1009A0000000000000000000000000000000000047
:1009B0000000000000000000000000000000000037
:1009C0000000000000000000000000000000000027
:1009D0000000000000000000000011241FBECFEF47
:1009E000DAE0DEBFCDBF11E0A0E0B1E0E8ECFDE46D
:1009F00002C005900D92A43BB107D9F727E0A4EB04
:100A0000B1E001C01D92A433B207E1F70E940320B8
:100A10000C948B260C94000090912103937071F03C
:100A20008093220360932303463008F045E040930F
:100A30002403809120038160809320030895482F30
:100A400020911C039091E30257E0291302C080E03B
:100A5000089530E0529FF001539FF00D1124EC51A6
:100A6000FD4F8181681306C08081481303C08581D2
:100A70008111EECF2F5F3F4F2770E7CFE8EDF0E019
:100A800080818E7F80831092E2001092DA001092B3
:100A9000E100A0EEB0E08C9181608C9380818F7733
:100AA000808319BCA7EDB0E08C918E7F8C93808100
:100AB0008F7E80831092CE0208952091E4003091C1
:100AC000E50095E6A9012091EC00822F817020FFBE
:100AD00006C08091E80080FF06C080E00895209164
:100AE000E80022FD1AC08091D902882389F0853060
:100AF00089F08091EB0085FD0FC02091E4003091DA
:100B0000E50042175307F9F29150E1F684E00895A9
:100B100082E0089583E0089581E008958091DB02EA
:100B200087FF13C08091E80082FF06C08091E80033
:100B30008B778093E80004C08091D9028111F2CFB5
:100B400008958091D9028823D9F38091E80080FF2D
:100B5000F8CF8091E8008E77ECCF982F9093E90042
:100B6000242F762F50E0891731F07091EC002091FE
:100B7000ED005091F00021FD07C09F5F973071F7A5
:100B80008093E90081E008953091EB003E7F30933F
:100B9000EB003091ED003D7F3093ED003091EB00A4
:100BA00031603093EB007093EC002093ED00509394
:100BB000F0002091EE0027FDE0CF80E00895B0E046
:100BC000A0E0E5EEF5E00C94D025C8EDD0E08881FA
:100BD0008F7E8883E7EDF0E080818160808384E010
:100BE00082BF81E08093CE0288818E7F888302EE6F
:100BF00010E0F80110821092DA0081EEC82ED12C9C
:100C0000F601108288818F77888388818068888345
:100C100088818F7D888319BC1092D9021092DA02E4
:100C20001092D8021092D70290EEE92EF12CF70123
:100C300080818B7F808388818160888342E060E04F
:100C400080E00E94AD05F60180818E7F8083F801EF
:100C5000808181608083808188608083F7018081CA
:100C60008E7F8083888180618883CDB7DEB7E8E09E
:100C70000C94EC25FC018091E1029091E202861730
:100C80009707A0F06115710529F49091E8009E770F
:100C90009093E80090E06115710551F4911108C03E
:100CA0008091E80082FF34C080E00895BC01F2CF5B
:100CB0008091D9028823C1F18530C1F18091E8008B
:100CC00083FD30C08091E80082FDEACF8091E8008A
:100CD00080FFE1CF8091F3002091F200382F611561
:100CE000710519F02830310558F091E028303105B0
:100CF00009F090E02091E8002E772093E800CBCF18
:100D000081918093F100615071092F5F3F4FE7CFD0
:100D10008091D902882341F0853041F08091E8002C
:100D200083FFBECF81E0089582E0089583E00895B7
:100D300087E797E7909301088093000888E19AE09D
:100D40000FB6F894A895809360000FBE9093600052
:100D5000FFCF2FB7F8946091CA027091CB028091B7
:100D6000CC029091CD022FBF089580911801089573
:100D7000909119019130D1F49091C70297FF16C05C
:100D8000E82FE695E695E695EE31E0F4F0E0E254E2
:100D9000FE4F282F277081E090E001C0880F2A9530
:100DA000EAF780959281892382830895E8EBF1E048
:100DB0009191891303C0DF0111971C9291E0EE3BE2
:100DC000F907B1F70895909119019130C1F490910C
:100DD000C70297FF14C0E82FE695E695E695EE3139
:100DE000F8F4F0E0E254FE4F877021E030E001C0FB
:100DF000220F8A95EAF78281822B82830895A8EBDD
:100E0000B1E0EFEF90E02D91821751F0EF3F19F430
:100E1000211101C0E92F9F5F9630A9F7EF3F09F438
:100E200008950E2E000CFF0BEA54FE4FE6CFA3E010
:100E3000B0E0EDE1F7E00C94D6252091C5023091A9
:100E4000C60228173907A1F09093C6028093C50205
:100E5000E091C302F091C402309751F024E029835D
:100E60009B838A830084F185E02DCE01019609954C
:100E70002396E2E00C94F225A3E0B0E0E2E4F7E090
:100E80000C94D6252091C1023091C202281739074F
:100E9000A1F09093C2028093C102E091C302F0914D
:100EA000C402309751F023E029839B838A83008416
:100EB000F185E02DCE01019609952396E2E00C9490
:100EC000F225E091C302F091C402309729F001901D
:100ED000F081E02D0995089580E008958091B60293
:100EE00080FD16C081FD16C082FD16C08091B5023E
:100EF0008823A1F0883280F428E0829FC001112469
:100F000068E270E00E940926862F672B39F0089569
:100F100082E0089584E0089588E0089581E00895CE
:100F20008091B60280FD14C081FD14C082FD16C000
:100F30008091B402882381F08E3180F420E5829F75
:100F4000C00111246EE170E00E940926862F0895E9
:100F500084E1089588E2089588E0089580E5089581
:100F6000282F35EB2303C001112497FF04C08058BC
:100F70009109892F089580589F4FFBCFFC01EE0FF8
:100F8000FF1FE80FF91FE057FD4F61834083228365
:100F90000895E0E9F2E0818360834283339692E032
:100FA000E43BF907C1F708953E9A089522E96111DB
:100FB00023E989B190E02F7002C0959587952A9515
:100FC000E2F78170089522E9611123E93AB12F70A7
:100FD00081E090E001C0880F2A95EAF7982F90955C
:100FE00093239AB99BB1892B8BB9089590918A026A
:100FF000E92FF0E040918B029F012F5F3F4F23705C
:10100000332742171306A9F0E457FD4F282F2F77F7
:1010100080818078822B60FB87F980839F5F93704B
:1010200090938A02809188028F5F8093880281E08A
:10103000089580E00895E1E2F3E0248130E1231B8C
:1010400008F420E0248380912003816080932003B2
:101050000895E1E2F3E0248130E1230F08F42FEF5B
:101060002483809120038160809320030895E1E22E
:10107000F3E0438120E1421B08F440E0818162817A
:1010800090E00E940C050895E1E2F3E0438120E145
:10109000420F08F44FEF8181628190E00E940C05BD
:1010A0000895E1E2F3E0628120E1621B08F460E070
:1010B0008181438190E00E940C050895E1E2F3E014
:1010C000628120E1620F08F46FEF8181438190E03B
:1010D0000E940C050895E1E2F3E081814381628181
:1010E0008850990B0E940C050895E1E2F3E081819C
:1010F00090E04381628108960E940C0508958091DA
:101100002103837051F084608093210310920F01BA
:1011100080912003816080932003089580912103B2
:10112000837051F084608093210310920F018091AD
:1011300020038160809320030895E1E2F3E0808141
:1011400091E08927808310920F01809120038160B4
:101150008093200308950E94C90708950E94BE0746
:10116000089580E008959091C70292FF10C041E079
:10117000282F2471243009F040E031E0282F287115
:10118000283009F030E0431711F02CE0822793FF5C
:1011900010C041E0282F2471243109F040E031E0F3
:1011A000282F2871283109F030E0431711F02CE086
:1011B00082273091C80230FF10C051E0282F2171E2
:1011C000213009F050E041E0282F2871283009F043
:1011D00040E0541711F029E0822731FF10C041E0B0
:1011E000282F2171213109F040E031E0282F2871AA
:1011F000283109F030E0431711F029E0822794FDEF
:10120000877E089582389105B9F1B0F48133910554
:1012100009F47DC048F48932910509F46DC08A3221
:10122000910509F47BC008958533910509F45FC0E9
:101230008933910509F10895833E9105D9F138F478
:10124000803E910529F1823E910579F10895863E0F
:101250009105D9F1873E910509F43EC0843E910580
:1012600041F52091C80221FF24C08091C70284FD6E
:1012700019C087EE90E008952091C702237009F00D
:101280005AC02091C80223FF14C089E290E008955B
:101290002091C70220FD38C03091C80230FF09C03C
:1012A00024FF43C090E080E008952091C70222FD12
:1012B000F7CF08952091C70222FD3AC03091C802AD
:1012C00030FD39C024FFF5CFEDCF2091C70223FFB9
:1012D000F0CF24FDE7CFCDCF2091C70223FD2EC054
:1012E0003091C80231FFEECF84EE90E00895209156
:1012F000C70225FFDECFC9CF2091C70225FD21C03F
:101300002091C80223FFD5CF89E390E0D2CF20916E
:10131000C70226FFCECF8AE290E008952091C7024F
:1013200026FFC7CF81E390E0089583EE90E0089513
:1013300082EE90E0089580EE90E0089586EE90E0D1
:10134000089585E390E008957330C0F4643080F52B
:10135000833088F5E72FF0E093E0899FE00DF11DE1
:101360001124EE0FFF1FEE0FFF1FE60FF11DEE0F12
:10137000FF1FE455FF4F8591949108957D3F59F4E7
:10138000611116C08330B8F494E0899FF0011124F4
:10139000EC50FF4FF0CF7C3F59F4611109C083300E
:1013A00050F494E0899FF0011124EA50FF4FE3CFFD
:1013B00080E090E0089581E0FCCF1F93CF93DF930E
:1013C0000E940209EC01C11580E5D807F0F5C115AE
:1013D00080E4D80708F09CC0C03ED10520F5CD3C84
:1013E000D10508F082C0C83AD10578F4C53AD105D4
:1013F00008F073C0C130D10519F1209709F1C4304C
:10140000D105F0F4D0E0C0E01BC0C33CD105D0F75B
:10141000C85AD0E0CC0FDD1FCF5DDE4F0990D881D8
:10142000C02DD4640DC0C11580E2D80708F0D1C02A
:10143000C11581E0D80708F05AC0C83ED10510F7A1
:10144000CE01DF91CF911F910895C03682E5D80774
:1014500018F5C03482E5D80708F06BC0C03282E5C9
:10146000D80708F05FC0C11582E5D80708F497C017
:101470002C2F2695269580E2289F900111248C2FF1
:101480008370C1E0D0E002C0CC0FDD1F8A95E2F787
:10149000C22BD32BDD68D4CFC03A82E5D80760F4E5
:1014A000C03882E5D80708F459C0CF71D0E0DC2FEE
:1014B000CC27C46FD06AC4CFC03C82E5D80708F4FB
:1014C00062C0C03E82E5D80708F09CCFDC2FCC2755
:1014D000CC27DF71C06FD06AB3CFC55AD0E0C25EEF
:1014E000DE4FC881D0E0D064ABCFD065A9CF8D2FBF
:1014F0000E94B308182FCE0199270E940209C12F1C
:10150000D0E0DC2FCC27CC27DF71C82BD92B98CF8C
:10151000CE0199270E940209CC27DF70C82BD92B56
:10152000D06A8ECFCF71D0E0DC2FCC27C16FD06ACC
:1015300087CF2C2F26952695277080E2289F900133
:1015400011248C2F8370C1E0D0E002C0CC0FDD1FCE
:101550008A95E2F7C22BD32BDC6872CF2C2F26950D
:101560002695277080E2289F900111248C2F83708C
:10157000C1E0D0E002C0CC0FDD1F8A95E2F7C22B9C
:10158000D32BDA685DCF8C2F8F710E94B308C82FE0
:10159000D0E0DC2FCC27CC27DF71D06251CF8C2F4D
:1015A0008F710E94B30855E0D695C7955A95E1F71B
:1015B000CF70D0E0DC2FCC27282F30E084FF05C08F
:1015C00044E0220F331F4A95E1F7C22BD32BD06999
:1015D00037CF8D2F8F710E94B308182FCE01992716
:1015E0000E940209C12FD0E0DC2FCC27CC27DF716D
:1015F000C82BD92BD2CF809590911E02982390931F
:101600001E02089580911E029091F501892B909100
:10161000F401992391F0892B90911901913071F483
:101620009091C70297FF0AC09EE120EC31E040E0B4
:10163000915040F441111092F401089596E028EB86
:1016400031E0F5CFF90151919F01552389F34F5FA7
:10165000EFCF80911C039091E302981301C008958D
:101660008F5F8770FACFB0E0A0E0E9E3FBE00C9475
:10167000CF257C0100913E0210913F0280913802FB
:1016800090913902082B192BCFE0D0E0CC24C394E1
:10169000D12CBC2EC6010C2E02C0880F991F0A94B3
:1016A000E2F780239123892B49F4219790F7B12CFD
:1016B0008B2DCDB7DEB7E9E00C94EB25B7018C2F6D
:1016C0000E94A4090E94DD09019779F3F1CFCF931D
:1016D000DF93EC010E94330BBE010E94A4090E941B
:1016E000DD09DF91CF910895A82FA77023E096958B
:1016F00087952A95E1F7880F991F880F991FFB019D
:10170000E80FF91F50E040E080E0219130E00A2E20
:1017100002C0369527950A94E2F721703327042EEC
:1017200001C0220F0A94EAF7822B4F5F5F4F4430CB
:10173000510559F70895933070F4843098F444E0DB
:10174000949F9001112464EE71E0820F932F911DFC
:101750000E94740B08959C5F923020F460EE71E05B
:1017600090E0F6CF80E00895262F277091E001C029
:10177000990F2A95EAF723E0769567952A95E1F780
:10178000660F771F660F771FFA01E60FF71F50E00D
:1017900040E0682F70E08191DF0111979B01042EDA
:1017A00002C0369527950A94E2F7217021952827E3
:1017B000292328272C934F5F5F4F4430510559F759
:1017C0000895282F862F933068F4243050F434E0A5
:1017D000939FB0011124620F711D44EE51E00E94ED
:1017E000B40B08959C5F9230E0F7622F70E040EEFA
:1017F00051E0F5CF90933F0280933E02089521E09F
:1018000030E002C0220F331F8A95E2F72095309511
:1018100080913E0290913F02822393230E94FA0B13
:1018200008959091F301809589238093F301282FE7
:10183000277069F4891759F09091C80292FF07C088
:101840008695869586950E94FF0B1092F301089568
:1018500021E030E002C0220F331F8A95E2F7809129
:101860003E0290913F02822B932B0E94FA0B089527
:1018700090933902809338020895FC012481222339
:10188000C1F0808191810E94670B92959F70963084
:1018900091F058F4925F9F70923058F4803F19F0A5
:1018A00030F4883E30F481E008959A5FF4CF843FAD
:1018B000D1F380E00895883EB0F3813FD1F7F3CFB4
:1018C000292F332740E02115310511F0C90148E0E7
:1018D0009C0164E0369527956A95E1F7211531055D
:1018E00011F04C5FC9019C013695279536952795D7
:1018F0002115310511F04E5FC90196958795892B09
:1019000009F04F5F842F0895A6E0B0E0EAE8FCE01C
:101910000C94D52549835A8349815A819923A1F092
:10192000222391F0CA010E94330B182F682F89815E
:101930009A810E94E10B69817A81812F0E94A4091A
:101940002696E3E00C94F125CA010E949B0B182F08
:10195000F2CFCF93DF93682F81E06A3019F06D30BA
:1019600031F480E00E94290DDF91CF91089580919C
:1019700032079091330726E0FC01ACE2B7E001901A
:101980000D922A95E1F7603E08F458C026E0FC016C
:1019900011922A95E9F7C0913207D091330746E0BA
:1019A00050E0BE018CE297E00E942C269E012C5252
:1019B0003340892B41F1C90146E0969587954A95B8
:1019C000E1F741E050E0BA0102C0660F771F8A9547
:1019D000E2F7CB0160912A0370912B03862B972BA2
:1019E000B9016B5F7F4FE6E076956795EA95E1F781
:1019F00002C0440F551F6A95E2F7842B952B9093F4
:101A00002B0380932A032A5F3F4F40912903642FC1
:101A100070E0C9010E94B225481B463010F4240F23
:101A2000311D211574E0370710F030E020E0245D0F
:101A30003C4F309333072093320796CFF6E06F9FE9
:101A4000B001112466567B4F46E050E00E942326E9
:101A5000A2CFCF93382FE0913207F0913307EC52A9
:101A6000F34020912903622F70E0CF010E94B2253C
:101A7000281B822F332361F066E00E94FD25C82FCA
:101A8000C15010F4CF91089580E20E94A90CF8CFC4
:101A90009F01280F311D2115344018F080E0F0E03F
:101AA000E0E08E0F9F2F911D845D9C4F9093330734
:101AB00080933207E7CFCF93DF93EC01FE0184914F
:101AC000811106C081E00E94290DDF91CF91089518
:101AD0000E94A90C2196F2CF80911901813059F50D
:101AE0008091C70287FF27C00E94020B8093BF012D
:101AF00040E250E066EF71E08EEB91E00E942C2610
:101B0000892BC1F080E2EEEBF1E0A6EFB1E00190AD
:101B10000D928A95E1F7E091C302F091C4023097EB
:101B200049F086E08093BE010480F581E02D8EEBC4
:101B300091E0099508950E94020B8093B60148E058
:101B400050E066E172E086EB91E00E942C26892B42
:101B500089F388E0E6EBF1E0A6E1B2E001900D92B6
:101B60008A95E1F7E091C302F091C402309711F336
:101B70000280F381E02D86EB91E0DBCF882321F01A
:101B80000E94FB0A0E946C0D0895882339F0909101
:101B90001E02982B90931E020E946C0D08950F93C5
:101BA0001F93CF93DF938B01EA019091D902943078
:101BB00061F58093E9008FEF9091E800815095FDE9
:101BC00006C095ED9A95F1F700008111F5CF80914F
:101BD000E80085FF1AC00E945D05811111C0809147
:101BE000E80085FD06C08091E8008E778093E800CC
:101BF000F2CFF80181918F018093F100219779F75D
:101C00008091E8008E778093E800DF91CF911F915B
:101C10000F91089543E050E0BC0182E00E94CF0D97
:101C2000089546E050E0BC0182E00E94CF0D089587
:101C300040E250E0BC0182E00E94CF0D0895CF93B6
:101C4000DF93EC0148E050E0BC0181E00E94CF0D41
:101C500088E0FE01AFECB2E001900D928A95E1F7C9
:101C6000DF91CF91089538B13F7B28B120644FB701
:101C7000F89480E992E0FC015191CF0168E028B925
:101C8000000000C057FF38B9550F000000C000C069
:101C900000C038B900C06A9591F7F2E0843B9F0715
:101CA00051F74FBF8FE594E00197F1F700C00000B6
:101CB0000895AB0124E630E0BC0188E70E942225AC
:101CC00021E0892B09F020E0822F0895809186027F
:101CD00090918702911103C091E08927089588238C
:101CE00069F062E070E084E292E00E94590E811196
:101CF00003C0809186020895109286028091860228
:101D0000EBCFCF93C0918602809187028823D1F0D8
:101D10000E94A90660587B47814E9F4F60938202C4
:101D2000709383028093840290938502C11108C04E
:101D300062E070E082E292E00E94590E811105C0DB
:101D4000C09186028C2FCF91089581E08093860206
:101D5000F7CF2F923F925F926F927F928F929F92D6
:101D6000AF92BF92CF92DF92EF92FF920F931F93A9
:101D7000CF93DF93809187028823A1F18CE293E0D7
:101D8000909333078093320780913E0290913F02F7
:101D90000E94600C813009F454C08823A9F182307C
:101DA00009F46AC080912A0390912B03892B09F0D2
:101DB0007EC0809186028823A9F00E94A906009126
:101DC0008202109183022091840230918502601B6F
:101DD000710B820B930B6F3F7F4F8F4F9F4710F418
:101DE0000E94660EDF91CF911F910F91FF90EF90AF
:101DF000DF90CF90BF90AF909F908F907F906F902B
:101E00005F903F902F9008958BE093E00E945B0DD0
:101E10008AE093E00E945B0D86EF92E00E945B0DEA
:101E200085EF92E00E945B0D81EE92E00E945B0DD7
:101E300080EE92E00E945B0D8CEC92E00E945B0DC4
:101E4000B1CF88EB92E00E945B0D87EB92E00E949D
:101E50005B0D83EA92E00E945B0D82EA92E00E94B1
:101E60005B0D8EE892E00E945B0D8DE892E00E948F
:101E70005B0D89E792E0E2CF85E692E00E945B0D80
:101E800084E692E00E945B0D80E592E00E945B0D8B
:101E90008FE492E00E945B0D8BE392E00E945B0D69
:101EA0008AE392E00E945B0D86E292E0C7CF8091C8
:101EB0008702882309F47DCF80918102811179CF37
:101EC0000E94810E20912A0330912B0321153105A8
:101ED00009F46FCF80E041E050E0082F10E01A01D4
:101EE000082E02C0220C331C0A94E2F7B1016223CF
:101EF0007323672B11F48F5FF0CF9091800290FFD6
:101F000095C0880F880F880F8093120110921501D9
:101F1000895F8093130187E08093160124E630E007
:101F200047E050E060E171E088E70E94DE24892B01
:101F300009F03FCFA80126E0440F551F2A95E1F78D
:101F40008091800280FF83C0E0E4F2E080E4DF0162
:101F50001D928A95E9F7ABEAB1E003EA11E083EB61
:101F6000C82E81E0D82E97E0592E772473948D9156
:101F7000E80129918E01240F352F311D245D3C4F3E
:101F8000E82FF0E0E05CFD4F90E080E0652C681AFF
:101F9000872C082E01C0880C0A94EAF77901A12C3D
:101FA000E701B9907E01B820662D6A196770962EF8
:101FB000062E000C770BDB2D01C0DD0F9A94EAF79B
:101FC0007195619571096770772701C0B6946A951C
:101FD000EAF7BD2A6081962E9B289082A39468E040
:101FE000A612DECF019631968830910579F6CA1691
:101FF000DB0609F0BCCF04E610E020E430E040E46A
:1020000052E060E488E70E946825892B09F0D1CE70
:10201000E101C095D09580912A0390912B03C823AC
:10202000D923D0932B03C0932A03C3CE8295880F64
:10203000880F80748093120198013695279520931C
:102040001501815C809313012093160167CF445DD5
:102050005C4F04E610E020E430E0D3CFB0E0A0E035
:10206000E4E3F0E10C94CD250E94A90660933402CC
:10207000709335028093360290933702309121039A
:10208000D32FD37019F0D32FD695D69520910F0169
:102090002130D9F0222359F0223009F432C1233003
:1020A00009F439C1CDB7DEB7EBE00C94E925109205
:1020B0000C0160933A0270933B0280933C02909330
:1020C0003D0281E080930F01EDCF90910B0181E003
:1020D000D9130BC0832F837020910A0130E091E067
:1020E0008217130609F490E0892F817080930E0106
:1020F0008091260390910D01981739F080930D017E
:1021000040E060E080E00E94AB08DD2321F0D130A8
:1021100061F080E02BC080910E01882339F140E00E
:1021200060E080E00E94AB08F4CFA0900C018A2D03
:10213000880FA80E03E00A0D902E0D3010F09CE0E1
:10214000992E1091220340912303E0912403F0E0A3
:10215000EE5DFE4F411141C0C4911C2FFC2EB12CED
:10216000A91408F4AEC081E00C3098F690910C01EF
:1021700021E0290F20930C018111B5C082E08093EA
:102180000F0180910E018111AEC0DD2309F4C1C0A1
:10219000C92FCC0FC90F13E01C0F1D3008F01CE035
:1021A000D0E0C11708F07ECF20913E0230913F026F
:1021B0008091380290913902822B932B0E94600CFF
:1021C000813009F493C0882309F497C025E040E0EA
:1021D000823009F48DC02196E4CFE42EF12CC49115
:1021E000BC2EEC2FF0E026E0129FC00111242FEF4F
:1021F00030E0B9010E94B225812F90E0880F991F2D
:1022000055E5569FD001579FB00D11248A1B9B0B9B
:10221000D82EDD0CD80ED901AE19BF09AE9FC00172
:10222000AF9F900DBE9F900D1124192F4D9DA001C1
:102230001124452F5527D901A41BB50BAE9FA00132
:10224000AF9F500DBE9F500D1124D901AD19B1099A
:102250006D01CE9CD001CF9CB00DDE9CB00D112441
:10226000AB2FBB272A1B3B0B2E9FD0012F9FB00DFE
:102270003E9FB00D1124FB2E62307105A1F050F489
:102280006115710509F46BCF6130710581F0F92E8C
:10229000152F65CF6430710569F080F066307105E7
:1022A00009F45DCFF4CFC92F1B2FFB2C58CFFC2E88
:1022B000C52F55CFCB2FF92E1B2D51CFF52EC92F62
:1022C000FBCFF501ED58FE4F84A190910D018923BC
:1022D00031F0212F4F2D6C2FC5010E94AE08BFEFAA
:1022E000AB1ABB0A3DCFD11153CFDCCE20E045E085
:1022F00060E0CE010E94AE086ECF20E040E065E0D5
:10230000F8CFD0930B01832F837080930A010E9432
:10231000330E83E0D7CE80912003882351F048E02C
:1023200050E067E170E081E293E00E94572610924E
:10233000200340913A0250913B0260913C0270911F
:102340003D022FB7F8948091CA029091CB02A091E0
:10235000CC02B091CD022FBF841B950BA60BB70BFF
:102360004097A105B10508F49DCE10920F019ACEB9
:102370009091C80292FB222720F9281779F080FB60
:1023800092F99093C8026091C7027091C80284E0EC
:1023900090E00E94852682E00E94110C08951F9211
:1023A0000F920FB60F9211242F933F934F935F9389
:1023B0006F937F938F939F93AF93BF93EF93FF930D
:1023C0008091E10082FF09C08091E20082FF05C098
:1023D0008091E1008B7F8093E1008091DA0080FFA3
:1023E00024C08091D80080FF20C08091DA008E7FC9
:1023F0008093DA008091D90080FFAAC080E189BD76
:1024000082E189BD09B400FEFDCF81E08093D9024D
:102410008091CE02811109C00E943E050E94DF0515
:102420008091E20084608093E2008091E10080FF6F
:102430001AC08091E20080FF16C08091E2008E7F7A
:102440008093E2008091E20080618093E2008091BD
:10245000D80080628093D80019BC85E08093D902AF
:1024600083E080931A018091E10084FF30C0809165
:10247000E20084FF2CC080E189BD82E189BD99B56D
:10248000892F817090FFFBCF9091D8009F7D909312
:10249000D8009091E1009F7E9093E1009091E2003E
:1024A0009F7E9093E2009091E20091609093E20011
:1024B0009091DA02992309F451C094E09093D902E3
:1024C0009091D902943009F482E080931A018091AE
:1024D000E10083FF2CC08091E20083FF28C080913F
:1024E000E100877F8093E10082E08093D90210921F
:1024F000DA028091E1008E7F8093E1008091E2001A
:102500008E7F8093E2008091E20080618093E20000
:1025100042E060E080E00E94AD058091F0008860BC
:102520008093F00081E080931A0180931901FF915C
:10253000EF91BF91AF919F918F917F916F915F913B
:102540004F913F912F910F900FBE0F901F901895B4
:1025500019BC1092D9021092CE0267CF9091E3007D
:1025600097FD02C0982FAACF93E0A8CF78941F922E
:102570001FB61F9211248F939F93AF93BF938091A7
:10258000CA029091CB02A091CC02B091CD020196EB
:10259000A11DB11D8093CA029093CB02A093CC02DF
:1025A000B093CD02BF91AF919F918F911F901FBEAD
:1025B0001F9018959C014FB7F8948091CA02909192
:1025C000CB02A091CC02B091CD024FBF821B930BE6
:1025D00008952FB7F8948091CA029091CB02A091F0
:1025E000CC02B091CD022FBF08950E94E9129C0148
:1025F0009091BD028091BE02982B21F03093BA02D7
:102600002093B9029091BF028091C002982B21F0D3
:102610003093B8022093B702E091C302F091C40254
:10262000309749F082E08093BB020680F781E02D6D
:102630008BEB92E00995089510921E02809119018A
:10264000813039F58091C70287FF23C0E0ECF1E0CB
:102650008EE1DF011D928A95E9F790E080E00E940B
:102660003C0790E080E00E9417071092F5010E945D
:102670006C0D86E0EBEBF2E0DF011D928A95E9F745
:102680001092B4021092B5021092B6020E94F51296
:102690000895E8EBF1E086E0DCCFAAE2B0E0E3E504
:1026A000F3E10C94D5258BED92E02091F100FC0133
:1026B0002193CF01F2E0833E9F07B9F78091DC02BE
:1026C000833009F470C0B8F4813009F447C0823017
:1026D00009F4B5C08091E80083FF89C28091DB02D4
:1026E0009091DC029A3008F082C2E92FF0E0E357C3
:1026F000F94D0C941D268A3009F490C08B3009F4F2
:102700006FC0893039F78091DB02813219F78091EF
:10271000DF029091E0020297E8F68091E800877F5F
:102720008093E8008091E80082FF38C09091F30028
:102730008091F200029731F48091F100813011F024
:10274000863021F48091F100809318018091E80097
:102750008B778093E8000E948E05BCCF8091DB02CE
:10276000813A09F0B7CF8091E800877F8093E80035
:102770008091DF029091E002892B61F468E08FEC98
:1027800092E070E00E943A068091E8008B77809397
:10279000E800A0CF60E090E080E0F3CF8091D90224
:1027A0008111C0CF97CF8091DB02813A09F092CF9F
:1027B0008091DF029091E002892B09F08BCF80910C
:1027C000E800877F8093E8008091E80080FFFCCFDD
:1027D000809119018093F1008091E8008E77B9CF44
:1027E0008091DB02813209F075CF8091DF029091F8
:1027F000E002892B09F06ECF8091E800877F8093FB
:10280000E8000E948E0581E09091DD02911101C0E7
:1028100080E0809319010E941C135CCF8091DB0241
:10282000813209F057CF8091E800877F8093E800DC
:102830000E948E058091DE02809317014BCF80911C
:10284000DB02813A09F046CF8091E800877F8093D0
:10285000E8008091E80080FFFCCF80911701BACF9B
:10286000803899F0823809F0C2C18091DF028F7000
:10287000873008F0BCC18093E9008091EB0085FBB4
:10288000882780F91092E90006C08091D7029091C4
:10289000D802911182609091E800977F9093E800B0
:1028A0008093F1001092F1008091E8008E779BC137
:1028B000882309F489C1823009F099C18091DD0231
:1028C00081118CC18091DF028F702FEF280F26308D
:1028D00008F08DC18093E9002091EB0020FF7EC1BC
:1028E000933031F48091EB0080628093EB0076C1ED
:1028F0009091EB0090619093EB0021E030E001C0FB
:10290000220F8A95EAF72093EA001092EA0080915C
:10291000EB008860EACF81116AC11091DD021F7758
:102920008091E3008078812B8093E3008091E80020
:10293000877F8093E8000E948E058091E80080FFE9
:10294000FCCF8091E30080688093E30082E0111166
:1029500083E08093D9024BC18058823008F047C190
:102960008091DD029091DE028C3D23E09207A1F57B
:1029700083E08A838AE289834FB7F894DE01139655
:1029800020E03EE051E2E32FF0E050935700E49165
:1029900020FF03C0E295EF703F5FEF708E2F90E055
:1029A000EA30C0F0C7968D939D932F5F243159F77D
:1029B0004FBF8091E800877F8093E8006AE270E073
:1029C000CE0101960E943A068091E8008B778093B1
:1029D000E8000DC1C096E7CF4091DF025091E002C0
:1029E000292F33272330310509F444C078F52130ED
:1029F000310509F46FC08BE390E0E9E1F4E02230A7
:102A0000310509F0F4C02091E800277F2093E80009
:102A10002091E1023091E2028217930708F49C01B1
:102A200040E02115310509F064C0411162C0809178
:102A3000E80082FDC9CF8091D902882329F2853030
:102A400019F28091E80083FFF2CFBECF2132310529
:102A5000A9F12232310509F0CAC04115510509F426
:102A600043C04130510509F0C2C086EB90E0EFE170
:102A7000F3E0C9CF992781309105C1F0009759F053
:102A8000029709F0B4C0E6E6F4E0E4918E2F90E0FE
:102A9000E6E6F4E007C0E6E9F4E0E4918E2F90E08A
:102AA000E6E9F4E0009709F4A2C0ADCFECE7F4E06A
:102AB000E4918E2F90E0ECE7F4E0F4CF411551055E
:102AC00071F04130510509F092C089E090E0E4E4F2
:102AD000F4E099CF82E190E0E4E5F4E094CF89E07E
:102AE00090E0EBE2F4E08FCF84E490E0E5EDF3E0FA
:102AF0008ACF8091D902882309F466CF853009F402
:102B000063CF8091E80083FD5FCF8091E80082FD74
:102B10008ECF8091E80080FF84CF9091F300809168
:102B2000F2002115310519F08830910550F041E08F
:102B3000089709F040E08091E8008E778093E800E4
:102B400070CF44914093F1003196215031090196A4
:102B5000E8CF803809F04BC08091E800877F8093F0
:102B6000E8008091DA028093F1009ECE81113FC08F
:102B70001091DD021230D8F58091E800877F8093B4
:102B8000E8001093DA020E948E05112311F084E010
:102B900005C08091E30087FDFACF81E08093D902E0
:102BA00042E061EC81E00E94AD0542E261EC82E02E
:102BB0000E94AD058091D902843021F081E080939C
:102BC0001A0115C082E0FBCF8091DD02813079F4DB
:102BD00081E0933009F080E08093D8021092E90000
:102BE0008091E800877F8093E8000E948E058091A5
:102BF000E80083FF0AC08091E800877F8093E800A7
:102C00008091EB0080628093EB00AA96E3E00C9445
:102C1000F1251F920F920FB60F9211242F933F931D
:102C20004F935F936F937F938F939F93AF93BF93D4
:102C3000CF93DF93EF93FF93D091E900DF70809102
:102C4000EC00C82FC17080FDC0E81092E9008091AF
:102C5000F000877F8093F00078940E944D131092CB
:102C6000E9008091F00088608093F000CD2BCF7058
:102C7000C093E900FF91EF91DF91CF91BF91AF91A8
:102C80009F918F917F916F915F914F913F912F9184
:102C90000F900FBE0F901F9018950E941C132FEFDE
:102CA00084E39CE0215080409040E1F700C00000A8
:102CB00088E19AE00FB6F894A895809360000FBE63
:102CC00090936000FFCF662309F45DC08D3C41F412
:102CD0000E94900781958093BE020E94F51208958C
:102CE0008E3C19F40E949007F6CF8F3C31F40E947D
:102CF000900781958093BD02F0CF803D19F40E942A
:102D00009007F8CF893D29F40E946E078093BF0297
:102D1000E4CF8A3D21F40E946E078195F7CF8B3D69
:102D200031F40E946E0781958093C002D6CF8C3D0E
:102D300019F40E946E07F8CF9FE2980F983070F454
:102D4000815D990B21E030E001C0220F8A95EAF7FE
:102D50008091BC02822B8093BC02BFCF8D3D31F4A9
:102D60008091B60281608093B602B7CF8E3D21F488
:102D70008091B6028260F7CF8F3D09F0AECF80918F
:102D8000B6028460F0CF4091BD028D3C59F4809131
:102D9000BE0287FF0DC01092BE0241110BC01092FF
:102DA000B40208C08E3C81F48091BE0218169CF3D8
:102DB000442381F08091BF029091C002892B09F0D9
:102DC0008CCF1092B50289CF8F3C49F447FFF0CFEA
:102DD0001092BD028091BE028111ECCFE0CF803D08
:102DE00019F41416ACF3E4CF9091BF02893D29F495
:102DF0001916F4F61092BF02DBCF8A3D19F497FF43
:102E0000D7CFF8CF9091C0028B3D29F497FFD0CF58
:102E10001092C002CDCF8C3D19F41916CCF3C8CF57
:102E20009FE2980F983090F4815D990B21E030E09B
:102E3000B90102C0660F771F8A95E2F7CB01809532
:102E40009091BC0289238093BC02B2CF8D3D31F4B6
:102E50008091B6028E7F8093B602AACF8E3D21F478
:102E60008091B6028D7FF7CF8F3D09F0A1CF809181
:102E7000B6028B7FF0CF882381F19CEF980F913AB7
:102E800028F40E94B8060E946C0D089590E2980FF5
:102E9000983050F4877091E001C0990F8A95EAF755
:102EA000892F0E94FB0AEFCF9BE5980F933028F4FF
:102EB00090E080E00E943C07089598E5980F9B31D0
:102EC00028F490E080E00E941707089593E3980F9C
:102ED000933118F460E00E9463160895CF93C82FD1
:102EE0008823B9F18CEF8C0F813AA8F580911901F4
:102EF000813001F58091C70287FF1CC0EC2FE69559
:102F0000E695E695F0E0E254FE4F828190E04C2F8A
:102F1000477021E030E002C0220F331F4A95E2F7EC
:102F200082239323892B81F08C2F0E94B8060E9464
:102F30006C0D0AC0E8EBF1E08EEB91E02191C21735
:102F400099F38E179F07D1F78C2F0E94E3060E94FA
:102F50006C0DCF91089580E28C0F883068F4C770B3
:102F600021E030E001C0220FCA95EAF780911E02ED
:102F7000822B80931E02EBCFEBE5EC0FE33040F4A5
:102F8000F0E0E25EFE4F808190E00E943C07E1CFDE
:102F9000E8E5EC0FEB3150F4F0E0EE0FFF1FEF5DD2
:102FA000FE4F808191810E941707D3CF83E38C0F5E
:102FB000833178F661E08C2F0E946316CACF0F939D
:102FC0001F93CF93DF93C62FD42F022FFC0185814F
:102FD0008823A9F060931F030E94E91290931E03B7
:102FE00080931D03C77081E001C0880FCA95EAF77E
:102FF0000E94C50DDF91CF911F910F91089580918F
:103000001F03681335C080911D0390911E030E9419
:10301000DA12883C910560F510E21D0FCD17B9F06A
:1030200080E28C0F883040F4C77081E001C0880FC7
:10303000CA95EAF70E94BE0D183048F481E09D2F32
:10304000977001C0880F9A95EAF70E94C50D802FEE
:103050000E946E17802F0E943B17183058F6D770C9
:1030600081E001C0880FDA95EAF70E94BE0DC2CF59
:10307000C77081E001C0880FCA95EAF7F6CFB0E0CB
:10308000A0E0E5E4F8E10C94CE258C01FC018481FC
:103090008823B1F121E04081518162817381958162
:1030A0000E94840CEC01F8019581992371F1C034E0
:1030B000FEE7DF0709F06BC48091240290E00196DF
:1030C00063E070E00E9409268093240221E030E052
:1030D000A90102C0440F551F8A95E2F7CA010E9458
:1030E000FA0B8091F301877059F0F80185818823EC
:1030F00039F08091C80282FF03C082E00E94110C67
:10310000CDB7DEB7EAE00C94EA25FE01E851FC47B2
:10311000E730F10508F02EC4E956F94D0C941D2650
:1031200026E241EE61EEC8010E94DF17DACF27E206
:1031300045EE65EEF8CF26E241EE60EEF4CF27E2F1
:1031400045EE64EEF0CF26E241EE62EEECCF27E2F0
:1031500045EE66EEE8CF28E241E0EBCF8091C70272
:1031600081608093C70295C08091C8028860809377
:10317000C8028FC08091C7028260F3CF8091C702DE
:103180008460EFCF8091C7028860EBCF8091C80246
:103190008160EDCF8091C8028260E9CF8091C70243
:1031A0008061DFCF8091C7028062DBCF8091C70250
:1031B0008064D7CF0E941C138091C7028068D1CF52
:1031C0008091C7028C60CDCF8091C8028360CFCF41
:1031D0008091C7028E7FC5CF8091C802877FC7CFFD
:1031E0008091C7028D7FBDCF8091C7028B7FB9CF01
:1031F0008091C702877FB5CF8091C8028E7FB7CFFD
:103200008091C8028D7FB3CF8091C7028F7EA9CFF6
:103210008091C7028F7DA5CF8091C7028F7BA1CF00
:103220000E941C138091C7028F779BCF8091C702A9
:10323000837F97CF8091C8028C7F99CF8091C702FE
:1032400082FB992790F921E0922790FB82F990FB6D
:1032500083F987CF8091C802982F909591708E7FC7
:10326000892B90FB81F983CF9091C702892F8F7BA7
:1032700096FF806476CF0E941C139091C702892F1D
:1032800097FB87F980586DCF61E08EE090E00E9457
:1032900067266091C7027091C80284E090E00E94A6
:1032A00085260E941C131DCF60E0EFCF9091C702CE
:1032B000892F8F7E94FF806154CF9091C702892F10
:1032C0008E7F90FF81604DCF9091C802892F877FBC
:1032D00093FF88604CCF85E348C385E355C3827272
:1032E000FE01E052F847EB30F10508F06DC0E25600
:1032F000F94D0C941D260E949D08F3CE882309F4F5
:1033000048C00E947F08EDCE882309F448C00E947F
:103310006B08E7CE882309F448C00E945108E1CE2B
:10332000882309F448C00E943708DBCE882309F4BB
:1033300048C00E941B08D5CE80911E028272FE01F9
:10334000E054F847ED30F10508F03EC0E755F94D7F
:103350000C941D2680912103837011F410920F01AB
:10336000809121038C7F81608093210380912003D1
:10337000816080932003B5CE80912103837011F08A
:1033800010920F01809121038C7FEECF882309F4E6
:10339000B8CF0E948E08A5CE882309F4B8CF0E942A
:1033A00075089FCE882309F4B8CF0E945E0899CE95
:1033B000882309F4B8CF0E94440893CE882309F4E7
:1033C000B8CF0E9429088DCE9E01205E3245203262
:1033D0003105A8F4911115C0CF7181E090E0FC0196
:1033E00002C0EE0FFF1FCA95E2F7EF016E2F83E0D8
:1033F00090E00E946726CE010E94380C72CE99237D
:1034000081F0C330FCE7DF0709F478C008F05BC047
:10341000C1153CE7D30709F464C0C130DC4709F4A7
:1034200073C0F8018581C081D181882309F47AC0F5
:10343000CE010E94330BF82E682FCE010E94E10BC3
:10344000BE018F2D0E94A4090E94DD09D82FC92F2B
:10345000A82EF801C580B680B2943FE0B3228091D7
:10346000F301877009F1EC2CCC20F9F0892F807FD3
:10347000803469F080E28D0F8830B0F0892F807E33
:10348000803229F4F1E0FD1778F4BB2069F08091D7
:10349000C80282FF09C082E00E94110C8091F301F2
:1034A0008770EE24E3948111E12CDC2ED2942FE07E
:1034B000D2222BE02D1508F49AC0ED2DF0E0EA544D
:1034C000F94D0C941D26CB355CE7D50749F1CC3579
:1034D0008CE7D807D9F0CA35DC4709F0A2CF81E0E4
:1034E0001CC00E941C13EFEFF4E32CE0E150F0400D
:1034F0002040E1F700C000000E9498066FEF7FEFC8
:1035000090E080E00E9485260E944D168091C802BE
:1035100082FB882780F991E089270E94B81181CF2A
:1035200080E0FBCFCE010E949B0BF82E89CF3C2F71
:103530003F70F32EC07F19F0F29490EFF922CC2067
:10354000B9F0FF2069F080E28D0F883010F0A110F3
:1035500009C080911E02F82AF0921E020E946C0D92
:103560008D2F43C08091F501F82AF092F501F6CF36
:103570008D2F0E943B17FF20D1F1D05ED83010F084
:10358000A11004C08F2D0E94FB0A06C0F094809108
:10359000F501F822F092F5010E946C0D28C04C2F25
:1035A0004F70F42EC07FC03219F0F29480EFF822F1
:1035B000AA2059F051E0A51609F479C0CC2009F4ED
:1035C00085C0BB2009F447C0CBCF8091C80282FDE3
:1035D0003EC0CC20B1F1FF2039F080911E02F82AC4
:1035E000F0921E020E946C0D80E00E946E172D2D3D
:1035F0002850330B2430310510F40E946107EE206F
:10360000A9F08091F30180FD11C0F8011582869523
:10361000869586950E94280CC8010E943F188091CB
:10362000F3018695869586950E94FF0B20E0F801B0
:103630004081518162817381848195810E94840CD3
:103640005FCD80E00E943B17FF2089F29BCFCC200A
:10365000A1F0B11004C08F2D0E94C50DC8CF81E02C
:10366000B812C5CF8091F4019F2D9823F91609F463
:10367000BECFF82AF092F401BACFB110B8CF8F2D97
:103680000E94BE0D9091F4018F2D892329F08F2D7A
:10369000809589238093F4018091DF019F2D9823E9
:1036A00009F4A5CFF094F822F092DF01A0CFCC204E
:1036B00029F095E09B1508F49ACFCDCFE4E0EB1507
:1036C00008F495CF8F2D0E94BE0D91CFBB20D1F372
:1036D000F9E3AF1209C02FEF37EE43E0215030403D
:1036E0004040E1F700C000008D2F0E943B177FCFC4
:1036F0008C2F86958695837069F0813009F077CF9D
:103700008D2F9C2F9370C11002C080E090E00E942A
:1037100017076DCF8D2F9C2F9370C11002C080E0D2
:1037200090E00E943C0763CF6C2D8D2F0E946316A2
:103730005ECF8C2F837009F03FC0C11058CF4D2F42
:10374000429546954770440F440F2D2F2F7030E05F
:10375000042E02C0220F331F0A94E2F790E080E0AB
:10376000D4FF09C08FE090E002C0880F991F4A95EE
:10377000E2F780959095C695C695C370C23099F0D2
:1037800078F44091380250913902C13039F0822BDF
:10379000932B842395230E94380C29CF242B352B7F
:1037A000822B932BF8CF822B932B209138023091D0
:1037B000390282279327EFCF8695CC2011F08C2FEA
:1037C0008170882309F413CF4D2F42954695477099
:1037D000440F440F2D2F2F7030E0042E02C0220F13
:1037E000331F0A94E2F790E080E0D4FF09C08FE035
:1037F00090E002C0880F991F4A95E2F78095909556
:10380000C695C695C370C23099F078F440913E02D7
:1038100050913F02C13039F0822B932B84239523A2
:103820000E94FA0BE4CE242B352B822B932BF8CF5E
:10383000822B932B20913E0230913F0282279327C7
:10384000EFCFCF70CC2029F08C2F0E94280C8D2F29
:1038500003CF8D2F0E94BE0D8C2F0E94FF0BC7CE71
:103860008D2F52EFA51699F15A1570F090EFA91609
:10387000D1F0E1EFAE1691F0CC2009F456C0B110B2
:103880006FCE8C2F8F7127C0F3EFAF1639F124EF75
:10389000A212F2CF9091C80292FD2EC08C2F8F7190
:1038A000CC20D9F218C0CC2069F034E03B1508F4E4
:1038B0009ECECF7181E090E002C0880F991FCA951B
:1038C000E2F7B8CF45E04B1508F491CEF2CF8C2F3C
:1038D0008F71C110C2CF0E94280C89CE90E080E089
:1038E000CC2009F49DCFCF7181E090E002C0880F19
:1038F000991FCA95E2F794CFCC2061F08C2F8F717D
:1039000092FFE9CF58E0859F900111242360209316
:10391000F301E1CF81E00E94110C81E08B1508F0EA
:1039200066CE82E00E94110C62CEBB2059F0893332
:1039300009F0DACE9FEFE7EEF3E09150E040F0407F
:10394000E1F7D0CE8C2F8F7188CF80911E02C631C7
:10395000FCE7DF0709F0C3CC8A7A91E009F490E034
:103960009093DE018111B7CC89E20E94E3060E94A8
:103970006C0DB7CBC6312CE7D20709F0DDCC8091B6
:10398000DE018111AACC89E20E94B806F0CFFE01C7
:10399000E851FC47E730F10508F4BECB10921F0355
:1039A0009E0130572332310580F684E090E00E947A
:1039B00051269093C8028093C702FE01E150F04760
:1039C000E232F10508F0CACBEE53F94D0C941D26F6
:1039D000CF93DF938091F201807F09F04DC08091F9
:1039E000F101882309F448C0E0911C035091E302DF
:1039F000C091ED01D091EC016091EE017091EF0169
:103A000047E05E17C9F18E2F90E0E49FF00111248A
:103A1000EC51FD4F2481222391F1489FF001499FF1
:103A2000F00D1124DF01AC51BD4F11962C9111976F
:103A30002C1325C02C912D1322C015962C9115976F
:103A400021111DC012962D913C91261B370B283C4D
:103A50003105A8F48091F2018F7080618093F201AA
:103A6000E651FD4F80818F70806180838CEE91E004
:103A70000E943F180E94290BDF91CF910895FC010D
:103A80003196E770BECFA4E1B0E0E9E4FDE10C942B
:103A9000CC258C0186E0F801DE011F9601900D9285
:103AA0008A95E1F7F8018481E5809CEEA92E91E0EA
:103AB000B92E9091F001911128C0882319F1EE20C0
:103AC000F1F0C8010E943D0CF82E8823C1F087E078
:103AD000F801D50101900D928A95E1F78091F001EE
:103AE000813031F48091EC019091ED010E94670BDF
:103AF0000E94E81C8F2D6496ECE00C94E825C80128
:103B00000E943F18FF24F394F5CFD080C1808280BB
:103B10009380F090F1012091EE013091EF01A4012A
:103B2000421B530BFF2009F4D9C0483C510508F053
:103B300092C08823F9F29091ED018091F201282F33
:103B4000207F09F056C0C91214C09091EC01D9121F
:103B500010C0E11048C08F7080618093F2018CEE3C
:103B600091E00E943F188091F201F8018683F12CC8
:103B7000C1CFE11038C06C2D8D2D0E941F056C2D1A
:103B80008D2D0E941F05E82E8111F1CFDF86C88A96
:103B90008F8598890E94670B292F22952F702430DA
:103BA00058F49F70223088F0992399F0F80196819B
:103BB000907F79F4FE2C9ECF2A5F2F70223068F020
:103BC000C8010E943F18EF2CF5CF992311F08823EC
:103BD00089F3805E883070F3F3CF803F58F3815FC4
:103BE000833070F7E7CF8091F20181608093F2011A
:103BF000BECFC91207C09091EC01D91203C0EE20CC
:103C000009F48DC0C8010E943D0C882309F477CFC8
:103C1000EE2009F474CF8091F201803288F0209177
:103C2000EC013091ED01398728879B868A86909137
:103C3000F0019C871D868E87CE0108960E943F1852
:103C400087E0F801ACEEB1E001900D928A95E1F7C2
:103C50000E94E81C57CF9091F201292F207F51F448
:103C60008CEE91E00E943F1887E0F50111928A9551
:103C7000E9F77DCF882309F43DCF8091ED018C11C8
:103C800010C08091EC01D8120CC0E1100AC09683DC
:103C9000C8010E943F1887E0F50111928A95E9F763
:103CA00029CFC8010E943D0C882309F428CFEE20BB
:103CB00009F425CF8091F201803210F22091EC01BD
:103CC0003091ED013A8329839C828B829091F0019F
:103CD0009D831E828F83CE010196B0CF483C510553
:103CE000D0F6882309F40ECFFE2CEE2009F407CF7E
:103CF0008091ED018C1120C08091EC01D8121CC084
:103D00008091F20180FD0FC0982F907F61F0868333
:103D1000903F31F0982F907F905F8F70892B868332
:103D2000C8010E943F1887E0F801ACEEB1E00190B5
:103D30000D928A95E1F7DECEC8010E943D0C8111FB
:103D40007FCF8091F20181608093F201C8010E94CF
:103D50003F18D0CEABE1B0E0E0EBFEE10C94D4250F
:103D60004E8B5F8B688F798F8A8F9B8F192F911164
:103D70001092F5011D8A86E0FE017696DE011F96FF
:103D800001900D928A95E1F70A8D002341F021E020
:103D90004F85588969897A89C8010E94840C0B8BE8
:103DA0001C8B87E0FE013F96DE01189601900D9274
:103DB0008A95E1F7CE0108960E94431D81110CC03F
:103DC00087E0FE013896DE01119601900D928A95EA
:103DD000E1F78C8581110BC017E080911C03909155
:103DE000E302891331C06B96E4E00C94F025209136
:103DF000E30230E0C90101968770992740911C03C6
:103E00004817190699F097E0929FD001939FB00D43
:103E10001124AC51BD4FFE01319601900D929A953F
:103E2000E1F78093E3020E94290BD6CF0E941C1376
:103E30001092E30210921C0387E0ECEEF1E0DF0148
:103E40001D928A95E9F7C8CF819FC00111248C513A
:103E50009D4F0E94431D882331F280911C0390E006
:103E600001968770992780931C03B7CFA3E0B0E039
:103E7000ECE3FFE10C94D02519821A821B82FE012B
:103E8000319687E5C82E81E0D82E7E0184E0E80EC9
:103E9000F11CBF01860154E040E031E0D8012D91D2
:103EA0008D012F3FE1F1822F82958F7090E0DC0130
:103EB00090968C9190E02F7002C0959587952A95E9
:103EC000E2F780FD2CC0832F482B330F515031F780
:103ED0004193B4E0CB0ED11CEE16FF06D9F643E0B9
:103EE00050E085E292E00E942C26892BE1F0898146
:103EF0009A81AB818093250290932602A09327029A
:103F000081E0809323020E94E91290932202809321
:103F1000210210E0812F2396E8E00C94EC2580E04C
:103F2000D3CF10E022C010912302112391F380918E
:103F30002102909122020E94DA12059750F343E089
:103F400050E065E272E088E292E00E942C26892B24
:103F500041F38091250290912602A091270280933F
:103F6000280290932902A0932A0210922302D2CF12
:103F7000A6E0B0E0EEEBFFE10C94D4250E94E9123C
:103F80008C0180911F02909120028017910781F08F
:103F900019821A820E94E912682F49815A81792F69
:103FA00080E090E00E94AA1E1093200200931F025E
:103FB0002696E4E00C94F0251F921FB61F92112460
:103FC0008F939F93AF93BF938091C902811113C0C8
:103FD0008091CA029091CB02A091CC02B091CD0207
:103FE0004196A11DB11D8093CA029093CB02A0936C
:103FF000CC02B093CD02BF91AF919F918F911F9052
:104000001FBE1F901895CDB7DEB76A970FB6F8940C
:10401000DEBF0FBECDBF85B7806885BF85B780681E
:1040200085BF84B7877F84BF0FB6F894A895809129
:104030006000886180936000109260000FBE80E88D
:1040400090E00FB6F89480936100909361000FBEEA
:1040500081E080931A0181EB98E09093B501809301
:10406000B4010E943E050E94DF058091E200846059
:104070008093E20078948091D9028823A1F0109176
:10408000E9001F709091EC00892F817090FD80E80D
:10409000182B1092E9008091E80083FD0E944D13D7
:1040A0001F701093E90082E084BD93E095BD9AEF04
:1040B00097BD80936E00E8E8F2E088E0DF011D9292
:1040C0008A95E9F781E08093310260E080E00E9408
:1040D000E30761E080E00E94E307EFE8F1E0319759
:1040E000F1F700C0000010E080913102181708F4C9
:1040F000D0C027E531E061E070E0D90150E040E058
:104100008D918F3F91F0E82FE295EF70F0E0F1A0F4
:104110008F708B0101C0000F8A95EAF7902F909560
:104120009F2191A382A1802B82A34F5F5F4F4430D8
:10413000510531F72C5F3F4FF1E023363F07E9F699
:1041400083E0E8E2F2E0DF01282F1D922A95E9F7EB
:10415000E5E2F2E0DF011D928A95E9F78091240201
:1041600001E010E0F80102C0EE0FFF1F8A95E2F7B0
:10417000CF010E94FA0B90E080E00E945126853E1C
:104180009E4F09F45FC065EE7EEF90E080E00E94F4
:10419000852660E082E090E00E9467261093390255
:1041A0000093380261E083E090E00E94672660E0BF
:1041B00074E184E090E00E94852660E086E090E073
:1041C0000E94672660E087E090E00E94672640E05A
:1041D00050E0BA0188E090E00E94792660E083E236
:1041E00090E00E94672660E08CE090E00E946726E5
:1041F00060E08DE090E00E94672619821A821B829F
:104200001C821D821E821F82188648E050E067E1F2
:1042100070E0CE0101960E94572640E050E0BA01BE
:104220008FE190E00E94792640E050E0BA018FE0F3
:1042300090E00E94792640E050E0BA0183E190E0EE
:104240000E94792682E090E00E94492680932B020A
:1042500084E090E00E9451269093C8028093C702A8
:104260000E94361F2FEF36E781E02150304080401A
:10427000E1F700C000000E94361F8091280280FFF5
:104280001AC06FEF7FEF90E080E00E9485260E94C9
:10429000980660E0812F0E94D607082F61E0812FE9
:1042A0000E94D607E12FF0E0E05DFD4F880F802BE4
:1042B00080831F5F19CF83E090E00E94492690E041
:1042C0000E94380C0E94D40781E08093200348E0CC
:1042D00050E067E170E081E293E00E94392610929D
:1042E0002003809121038C7FF9F484E080932103E3
:1042F00080911B0190911C01A0911D0180932203CC
:1043000090932303A09324038FE7809325038FEFDB
:104310008093260348E050E067E170E081E293E09B
:104320000E9457261092200382E08093800280E84A
:10433000809329030E94AA246BE070E087E191E05A
:104340000E94590E8823E9F18091800265E070E0B7
:1043500081FDAEC082E191E00E94590E882389F16F
:104360006DE070E080E091E00E94590E882349F1F1
:104370000E94A90660587B47814E9F4F609382023E
:10438000709383028093840290938502ECE2F3E0C1
:1043900080E094E0DF019C011D9221503040E1F764
:1043A000F0933307E09332078FEF9FEF90932B0347
:1043B00080932A0381E08093870280938602109283
:1043C000810280E091E09093C4028093C302E8E10F
:1043D000CE2ED12C11E0F4E0AF2EB12C4424439426
:1043E00072E1572E8091D902853049F48091D9022B
:1043F000853009F460C00E941C130E9461070E946E
:10440000361F90912C02809128029813A6C090919B
:10441000290280912D029813A0C090912E028091C4
:104420002A0298139AC00E94B81F912C0E942E1045
:1044300080913202882351F01092320280918A02D8
:1044400080938B02809188028093890200E08091A2
:104450003102081708F4BDC090E08CEFE82E23E08D
:10446000822E3DEF732E42E0642E80918B022091CC
:104470008A02281709F42DC1E82FF0E0E457FD4F18
:10448000008107FBFF24F0F80F778F5F8370809324
:104490008B02809189028F5F80938902F110D5C0D1
:1044A0000E94E9120987EA869C878B878D86D4C093
:1044B0008DE091E051CF8091D902843031F10E949A
:1044C0002E100E94660E1092C90230E40FB6F894C6
:1044D000A895C09260000FBE3093600083B7817FC3
:1044E000846083BF83B7816083BF7894889583B7E6
:1044F0008E7F83BF0FB6F894A89580916000886185
:1045000080936000109260000FBE0E94361F809161
:10451000290290912802892B90912A02892B09F473
:1045200065CF8091D802882309F460CF80E189BDEE
:1045300059BC09B400FEFDCF8091D8008F7D8093D7
:10454000D8008091E00082608093E0008091E000DC
:1045500081FDFCCF0E941C1349CF58E2852E52E00A
:10456000952E6CE2E62E62E0F62E00E0D4017D90FE
:104570004D01F70121907F01271419F12724612CA7
:1045800033243394822D8321A1F06D8A0E8B0E94F7
:10459000E912988F8F8B498E91E0872D832109F442
:1045A00090E09A8F4D895E896F89788D898D0E9400
:1045B000AA1E6394330CF4E06F12E4CFF701319735
:1045C00070820F5F033091F60E94A906992493949C
:1045D0002DCF61E0802F0E94D607F82E60E0802F5B
:1045E0000E94D607EF2DEE0FE82B202F30E0D901E7
:1045F000A05DBD4F9C91892F8370E81721F1990F21
:10460000990FE92BEC93EF70F0E0ED59FE4FC901E3
:10461000815D9D4F7C018081D7018C90880E8C92AA
:10462000B3E060E0B81524F0EDEF8E1624F461E0FD
:10463000802F0E94F607882D880C990BB5010E94E7
:104640000926D7018C930F5F02CF0E94E9120987D8
:104650007A869C878B876D861E8749855A856B85F0
:104660007C858D859E850E94AA1EFF2091F00E9468
:10467000E9120F87788A9A8B898B6B8A1C8A4F85FF
:10468000588969897A898B899C890E94AA1E91E040
:10469000ECCE0E94E9120F87E88A9A8B898B8B8A6D
:1046A000EDCF0E94A9060E94A90E0E94810E17C09C
:1046B0001093BD0270C01093BE0275C01093BF026C
:1046C000B3C01093C002B8C0822B892B09F4D1C0AB
:1046D000CEC09111E6CF0E94A90E9110E6CF86E0E0
:1046E000EBEBF2E0DE01119601900D928A95E1F775
:1046F0008090BC02E090BD02F090BE029090BF029C
:104700000091C0021092BD021092BE021092BF0230
:104710001092C0028F2D8E2909F445C08091B902F4
:104720009091BA020E94DA129C019091B4029923EE
:1047300009F4B9C025313105B0F19F3F19F09F5FF1
:104740009093B402EE2059F00E9490079FEF1E1440
:104750000CF491E0899F802D11248093BD02FF20ED
:1047600059F00E94900791E01F140CF09FEF899F71
:10477000802D11248093BE028091BD02882399F080
:104780007090BE02772079F00E94B007882309F468
:104790008FCF8093BD02872D0E94B007882309F434
:1047A0008ACF8093BE02802F892909F445C0809169
:1047B000B7029091B8020E94DA129C019091B50262
:1047C000992309F46BC021353105B0F19F3F19F0F1
:1047D0009F5F9093B502992059F00E946E079FEF5A
:1047E00019140CF491E0899F802D11248093BF024D
:1047F000002359F00E946E0791E010160CF09FEF15
:10480000899F802D11248093C0028091BF0288234C
:1048100099F09090C002992079F00E94B007882307
:1048200009F44CCF8093BF02892D0E94B0078823E2
:1048300009F447CF8093C0028091BC02881117C051
:104840008091BD02882311F08E1111C02091BE020B
:10485000222311F0F2120BC09091C002992311F0A3
:10486000091305C03091BF02332309F42DCF0E94F4
:10487000F51286E0FE013196ABEBB2E001900D92AD
:104880008A95E1F70E94610790913302891709F434
:10489000A9CD809333020E94A906A2CD2B30310509
:1048A00008F096CFC9CF2B30310508F048CF7BCF29
:1048B000EF92FF920F931F93CF93DF93182FEB018B
:1048C0001092BC0084EA8093BC000E94E9127C0133
:1048D0008091BC0087FF27C08091B900887F883015
:1048E00029F08091B900887F803189F51093BB0051
:1048F00084E88093BC000E94E9128C018091BC0086
:1049000087FF1EC02091B900287F90E080E0283109
:1049100091F081E090E0203411F490E080E09195F6
:104920008195910908C0C7010E94DA12C817D907FA
:1049300078F68EEF9FEFCDB7DEB7E6E00C94EE256C
:10494000C8010E94DA12C817D907C0F6F2CF8FEF5C
:104950009FEFF1CF1092B9008CE08093B8000895DA
:104960000F931F93CF93DF93EB018093BB0084E8F9
:104970008093BC000E94E9128C018091BC0087FFEB
:1049800011C02091B900287F81E090E0283211F415
:1049900090E080E0919581959109DF91CF911F91F1
:1049A0000F910895CF3FDC0741F3C8010E94DA124E
:1049B000C817D90710F78EEF9FEFEFCFB0E0A0E058
:1049C000E4EEF4E20C94CB25782E5B016A018901B8
:1049D0000E94E9124C01C1E0D0E00431110558F009
:1049E000C5E0D0E00F3F100731F0C80164E170E08E
:1049F0000E94B225EB01BE01872D0E9458247C0144
:104A000097FF09C00F3F1007B1F3C4010E94DA12EB
:104A10000817190780F7E501CA0CDB1CCC15DD056A
:104A200011F0F7FE09C084E98093BC00C701CDB73F
:104A3000DEB7EDE00C94E725B80189910E94B0241F
:104A40007C01ECCFB0E0A0E0E8E2F5E20C94CB25ED
:104A5000782E5B016A0189010E94E9124C01C1E0D4
:104A6000D0E00431110558F0C5E0D0E00F3F100749
:104A700031F0C80164E170E00E94B225EB01BE0193
:104A8000872D0E9458247C0197FF09C00F3F100713
:104A9000B1F3C4010E94DA120817190780F7E50183
:104AA000CA0CDB1CCC15DD0511F0F7FE09C084E94A
:104AB0008093BC00C701CDB7DEB7EDE00C94E725CD
:104AC000FE018491B8010E94B0247C012196EACFB6
:104AD000B0E0A0E0EEE6F5E20C94CA25682E762E52
:104AE0005A0169010E94E9124C01C1E0D0E0043191
:104AF000110558F0C5E0D0E00F3F100731F0C801B4
:104B000064E170E00E94B225EB01BE01862D0E9497
:104B100058247C0197FF1DC00F3F1007B1F3C4015B
:104B20000E94DA120817190780F784E98093BC0005
:104B3000C701CDB7DEB7EEE00C94E625B801899148
:104B40000E94B0247C01CC16DD0679F3F7FEF6CF87
:104B5000ECCFB801872D0E94B0247C01E501CA0C7E
:104B6000DB1CF1CFAA1BBB1B51E107C0AA1FBB1F57
:104B7000A617B70710F0A61BB70B881F991F5A95E9
:104B8000A9F780959095BC01CD0108952F923F9291
:104B90004F925F926F927F928F929F92AF92BF924D
:104BA000CF92DF92EF92FF920F931F93CF93DF93F9
:104BB000CDB7DEB7CA1BDB0B0FB6F894DEBF0FBE56
:104BC000CDBF09942A88398848885F846E847D84A3
:104BD0008C849B84AA84B984C884DF80EE80FD80A5
:104BE0000C811B81AA81B981CE0FD11D0FB6F8941B
:104BF000DEBF0FBECDBFED010895991B79E004C063
:104C0000991F961708F0961B881F7A95C9F780950B
:104C1000089597FB072E16F4009407D077FD09D06E
:104C20000E94B22507FC05D03EF4909581959F4FD8
:104C30000895709561957F4F0895EE0FFF1F0590C1
:104C4000F491E02D0994FB01DC0102C005900D9266
:104C500041505040D8F70895FB01DC0104C08D910C
:104C60000190801921F441505040C8F7881B990BDE
:104C70000895DC01CB01FC01F999FECF06C0F2BD1D
:104C8000E1BDF89A319600B40D9241505040B8F70A
:104C90000895F999FECF92BD81BDF89A992780B504
:104CA0000895A8E1B0E042E050E00C943B26DC011E
:104CB000A40FB51F4150504048F0CB01840F951F01
:104CC0002E910E94682641505040D0F70895262F1B
:104CD000F999FECF92BD81BDF89A019700B40216F2
:104CE00039F01FBA20BD0FB6F894FA9AF99A0FBEA0
:104CF00008950396272F0E9468260E946726252F75
:104D00000E946826242F0C9468260196272F0E9463
:104D100068260C946726F894FFCF30145814F715C2
:104D20005814F7158B14AC14F715A915B6159B1864
:104D30009F1890189718A318A718AB187B197E19FD
:104D4000C6198419CC198A19D2199019D81996192B
:104D5000DE19AA19BC197B197E19C6198419CC1938
:104D60008A19D2199019D8199619DE19971A971A13
:104D7000CF1ACF1A781B941BF71AF71A991B211C0C
:104D8000301C301CE8185D19F018BA18BE18F41859
:104D9000C218F8180419CE185619D2180819D618BE
:104DA0000C193419DA1810193B19E01816191E19C4
:104DB000C618FC18CA180019E4181A192A19441937
:084DC0005419B418EC18641931
:104DC800B5061F0E180E110E0A0EFFFF00FF000396
:104DD8000021007F2200070000010000FF058182FA
:104DE80083E200E900EA00B500B600B700CD008311
:104DF80001CC008A01920194012102230224022598
:104E080002260227022A02B300B4006F0070009F36
:104E180001CB019F02A00294FFF43334FFF5323135
:104E2800F7F63600FF0100010000FFFF0000010057
:104E380001FF00FFFF0001FFFF0203FFFF0405BCA5
:104E480010BB30954070402530261000000000004F
:104E58000000000000000001040404040100000038
:104E68000000000008101820283038383028201892
:044E7800100800001E
:00000001FF
