:100000000C94BA040C94D7040C94D7040C94D70421
:100010000C94D7040C94D7040C94D7040C94D704F4
:100020000C94D7040C94D7040C9421110C945B15F8
:100030000C941B1F0C94D7040C94D7040C94D70475
:100040000C94D7040C94D7040C94D7040C94D704C4
:100050000C94D7040C9408120C94D7040C94D70475
:100060000C94D7040C94D7040C94D7040C94D704A4
:100070000C94D7040C94D7040C94D7040C94D70494
:100080000C94D7040C94D7040C94D7040C94D70484
:100090000C94D7040C94D7040C94D7040C94D70474
:1000A0000C94D7040C94D7040C94D704A8001B001C
:1000B00036023702407E1B000D000F00AC00AE0080
:1000C000AB00207859001B0059005F00407E1B00E8
:1000D0005D0060005A005B005C0061005A001B007C
:1000E0005A005F00407E1B005D0060005A005B000C
:1000F0005C00610080008100070006000900080024
:1001000000DA1281FFD9F1DB20A4A62EAF00A0C037
:10011000D30000A1C8D30000AED580A83F408D1405
:10012000200000010101010101010101020202029E
:100130000202020202030303030303030304040491
:10014000040404040505050505060606060607075A
:1001500007070708080808090909090A0A0A0B0B12
:100160000B0C0C0C0D0D0D0E0E0E0F0F0F101011B1
:100170001111121213131414151516161717181837
:1001800019191A1A1B1B1C1D1D1E1E1F202021229F
:1001900022232424252626272829292A2B2C2D2DE5
:1001A0002E2F30313232333435363738393A3B3C02
:1001B0003D3E3F404142434445464748494A4C4DF5
:1001C0004E4F50515354555658595A5B5D5E5F61BE
:1001D0006264656668696B6C6D6F70727375777851
:1001E0007A7B7D7E8082838587888A8C8E8F9193AF
:1001F0009596989A9C9EA0A2A3A5A7A9ABADAFB1D6
:10020000B3B5B7BABCBEC0C2C4C6C9CBCDCFD1D4BA
:10021000D6D8DBDDDFE2E4E7E9EBEEF0F3F5F8FA60
:10022000FDFF00AF00AE4C696E65203700004C69E1
:100230006E65203500004C696E65203500004C412C
:100240005945522032004C696E65203700004C69D8
:100250006E65203500004C696E65203500004C410C
:100260005945522031004D524556204D504C4120A9
:100270004D465744204C49544500004C41595220AA
:1002800052534554203130424B2031304657000004
:1002900020202020202020202020534C4F57204673
:1002A0004153540000454E434F44455220202056B0
:1002B0004F4C2B20564F4C2D0005010902A1018502
:1002C000020901A100050919012908150025019558
:1002D00008750181020501093009311581257F95D5
:1002E000027508810609381581257F9501750881F9
:1002F00006050C0A38021581257F950175088106CF
:10030000C0C005010980A101850319012AB70015A4
:100310000126B700950175108100C0050C0901A1E7
:1003200001850419012AA002150126A00295017574
:10033000108100C005010906A1018506050719E025
:1003400029E71500250195087501810205071900A7
:1003500029EF1500250195F07501810205081901A5
:100360002905950575019102950175039101C00557
:10037000010906A101050719E029E71500250195E6
:100380000875018102950175088101050719002989
:10039000FF150026FF009506750881000508190164
:1003A0002905150025019505750191029501750333
:1003B0009101C009023B00020100A0FA09040000FB
:1003C0000103010100092111010001224400070578
:1003D0008103080001090401000103000000092154
:1003E0001101000122B6000705820320000112015D
:1003F000000200000008EDFE000000010102000103
:1004000014036A00630070006D0032007400650020
:1004100073007400000018036A0065007200650034
:100420006D007900730063006F006F006B000000C7
:100430000403090407087F0807003E5B4F5B3E008A
:100440003E6B4F6B3E001C3E7C3E1C00183C7E3CCD
:1004500018001C577D571C001C5E7F5E1C00001896
:100460003C180000FFE7C3E7FF0000182418000055
:10047000FFE7DBE7FF0030483A060E00262979291E
:100480002600407F05050700407F05253F005A3CB8
:10049000E73C5A007F3E1C1C0800081C1C3E7F00E5
:1004A00014227F2214005F5F005F5F0006097F0156
:1004B0007F00006689956A0060606060600094A2B9
:1004C000FFA2940008047E04080010207E20100083
:1004D00008082A1C0800081C2A0808001E10101012
:1004E00010000C1E0C1E0C0030383E383000060E7A
:1004F0003E0E060000000000000000005F0000004B
:10050000000700070000147F147F1400242A7F2AAC
:100510001200231308646200364956205000000878
:1005200007030000001C224100000041221C0000C3
:100530002A1C7F1C2A0008083E0808000080703032
:100540000000080808080800000060600000201093
:10055000080402003E5149453E0000427F40000031
:100560007249494946002141494D33001814127F10
:1005700010002745454539003C4A49493100412191
:1005800011090700364949493600464949291E00E4
:100590000000140000000040340000000008142295
:1005A0004100141414141400004122140800020124
:1005B000590906003E415D594E007C1211127C0023
:1005C0007F49494936003E41414122007F41414136
:1005D0003E007F49494941007F09090901003E4128
:1005E000415173007F0808087F0000417F410000EF
:1005F0002040413F01007F08142241007F404040DD
:1006000040007F021C027F007F0408107F003E41F3
:1006100041413E007F09090906003E4151215E002B
:100620007F091929460026494949320003017F0103
:1006300003003F4040403F001F2040201F003F403C
:1006400038403F0063140814630003047804030077
:100650006159494D4300007F4141410002040810A7
:100660002000004141417F0004020102040040409B
:100670004040400000030708000020545478400028
:100680007F284444380038444444280038444428EF
:100690007F0038545454180000087E09020018A442
:1006A000A49C78007F080404780000447D4000008A
:1006B0002040403D00007F102844000000417F4062
:1006C00000007C04780478007C0804047800384436
:1006D00044443800FC182424180018242418FC0072
:1006E0007C080404080048545454240004043F4483
:1006F00024003C4040207C001C2040201C003C404A
:1007000030403C004428102844004C9090907C00DD
:100710004464544C44000008364100000000770057
:1007200000000041360800000201020402003C26DD
:1007300023263C00000000000000404040F0F8F894
:10074000FF38FFF8F83FF8F8FF38FFF8F8F04040BE
:100750004000000000000080C0C0C0800000C0C099
:100760008000000080C0C000C0C0000080C0C00089
:1007700000000000C0C0C0C0C000C0C00000000039
:100780000000000000000000000000000000000069
:100790000000000000000000000000000000000059
:1007A0000000000000000000000000000000000049
:1007B000000000C0F0F8FC3E1E06010000007F4172
:1007C00041417F007F4141417F000080C0E07E5B6E
:1007D0004F5BFEC00000C000DCD7DEDEDED7DC00F1
:1007E000C000000000000000000000000000000049
:1007F00000000000000000000000494949FFFFFF21
:10080000FFE0DFBFBF00BFBFDFE0FFFFFFFF4949E1
:100810004900000000001F3F6060E0BF1F007F7FB5
:10082000071E381E077F7F007F7F0E1F3B71600011
:10083000000000007F7F0C0C0C007E7E007F7E039A
:1008400003007F7E03037E7E03037F7E000F3E70E6
:100850003C063C703E0F00327B49493F7E007F7E64
:100860000303001E3F69696F2600000000000000BE
:10087000000000030F1F3F3C7870600000007F41C4
:1008800041417F007F4141417F00307B7F783020B4
:100890002030787F3B0003000F7F0F0F0F7F0F008A
:1008A0000300000000000000000000000000000045
:1008B00000000000000000000000010101070F0F10
:1008C0007F0F7F0F0F7E0F0F7F0F7F0F0F0701012D
:1008D0000100000000000000000000010100000015
:1008E0000000000000000000000000000000000008
:1008F00000000000000000000000000000000000F8
:1009000000000000000000000000000000000000E7
:1009100000000000000000000000000000000000D7
:1009200000000000000000000000000000000000C7
:1009300000000000000000000000000000000000B7
:1009400000000000000000000000000000000000A7
:100950000000000000000000000000000000000097
:100960000000000000000000000000000000000087
:100970000000000011241FBECFEFDAE0DEBFCDBFC4
:1009800011E0A0E0B1E0E2E8FDE402C005900D92C4
:10099000AA37B107D9F726E0AAE7B1E001C01D9256
:1009A000A43FB207E1F70E94421F0C9475260C94F5
:1009B0000000482F2091E5029091AC0257E02913E6
:1009C00002C080E0089530E0529FF001539FF00D87
:1009D0001124E355FD4F8181681306C080814813BF
:1009E00003C085818111EECF2F5F3F4F2770E7CF86
:1009F000E8EDF0E080818E7F80831092E20010921B
:100A0000DA001092E100A0EEB0E08C9181608C934E
:100A100080818F77808319BCA7EDB0E08C918E7FA9
:100A20008C9380818F7E808310929702089520910D
:100A3000E4003091E50095E6A9012091EC00822FB9
:100A4000817020FF06C08091E80080FF06C080E032
:100A500008952091E80022FD1AC08091A202882307
:100A600089F0853089F08091EB0085FD0FC02091E1
:100A7000E4003091E50042175307F9F29150E1F696
:100A800084E0089582E0089583E0089581E0089568
:100A90008091A40287FF13C08091E80082FF06C006
:100AA0008091E8008B778093E80004C08091A202D7
:100AB0008111F2CF08958091A2028823D9F3809109
:100AC000E80080FFF8CF8091E8008E77ECCF982F78
:100AD0009093E900242F762F50E0891731F0709120
:100AE000EC002091ED005091F00021FD07C09F5FC8
:100AF000973071F78093E90081E008953091EB0021
:100B00003E7F3093EB003091ED003D7F3093ED0060
:100B10003091EB0031603093EB007093EC00209348
:100B2000ED005093F0002091EE0027FDE0CF80E033
:100B30000895B0E0A0E0EFE9F5E00C947E25C8ED63
:100B4000D0E088818F7E8883E7EDF0E0808181604E
:100B5000808384E082BF81E08093970288818E7FCA
:100B6000888302EE10E0F80110821092DA0081EE24
:100B7000C82ED12CF601108288818F7788838881D6
:100B80008068888388818F7D888319BC1092A20237
:100B90001092A3021092A1021092A00290EEE92EF0
:100BA000F12CF70180818B7F80838881816088832D
:100BB00042E060E080E00E946705F60180818E7F60
:100BC0008083F80180818160808380818860808358
:100BD000F70180818E7F8083888180618883CDB793
:100BE000DEB7E8E00C949A25FC018091AA0290916E
:100BF000AB0286179707A0F06115710529F4909153
:100C0000E8009E779093E80090E06115710551F43B
:100C1000911108C08091E80082FF34C080E00895FF
:100C2000BC01F2CF8091A2028823C1F18530C1F1CD
:100C30008091E80083FD30C08091E80082FDEACF1A
:100C40008091E80080FFE1CF8091F3002091F200D5
:100C5000382F6115710519F02830310558F091E0F1
:100C60002830310509F090E02091E8002E7720939C
:100C7000E800CBCF81918093F100615071092F5F23
:100C80003F4FE7CF8091A202882341F0853041F0A9
:100C90008091E80083FFBECF81E0089582E008954F
:100CA00083E0089587E797E7909301088093000811
:100CB00088E19AE00FB6F894A895809360000FBE83
:100CC00090936000FFCF2FB7F894609193027091DA
:100CD000940280919502909196022FBF0895809181
:100CE00012010895909113019130D1F490919002E6
:100CF00097FF16C0E82FE695E695E695EE31E0F40D
:100D0000F0E0EC57FE4F282F277081E090E001C003
:100D1000880F2A95EAF78095928189238283089526
:100D2000EEE7F1E09191891303C0DF0111971C9266
:100D300091E0E438F907B1F70895909113019130EB
:100D4000C1F49091900297FF14C0E82FE695E695C4
:100D5000E695EE31F8F4F0E0EC57FE4F877021E0B5
:100D600030E001C0220F8A95EAF78281822B8283CC
:100D70000895AEE7B1E0EFEF90E02D91821751F0CA
:100D8000EF3F19F4211101C0E92F9F5F9630A9F7B9
:100D9000EF3F09F408950E2E000CFF0BE458FE4FB0
:100DA000E6CFA3E0B0E0E7EDF6E00C9484252091D7
:100DB0008E0230918F0228173907A1F090938F028D
:100DC00080938E02E0918C02F0918D02309751F069
:100DD00024E029839B838A830084F185E02DCE0162
:100DE000019609952396E2E00C94A025A3E0B0E0DB
:100DF000ECEFF6E00C94842520918A0230918B026E
:100E000028173907A1F090938B0280938A02E09112
:100E10008C02F0918D02309751F023E029839B835F
:100E20008A830084F185E02DCE01019609952396F1
:100E3000E2E00C94A025E0918C02F0918D023097B5
:100E400029F00190F081E02D0995089580E0089542
:100E500080917F0280FD16C081FD16C082FD16C004
:100E600080917E028823A1F0883280F428E0829F5E
:100E7000C001112468E270E00E94B725862F672B1D
:100E800039F0089582E0089584E0089588E0089597
:100E900081E0089580917F0280FD14C081FD14C01F
:100EA00082FD16C080917D02882381F08E3180F40E
:100EB00020E5829FC00111246EE170E00E94B725F9
:100EC000862F089584E1089588E2089588E00895C2
:100ED00080E50895282F35EB2303C001112497FFE7
:100EE00004C080589109892F089580589F4FFBCFE7
:100EF000FC01EE0FFF1FE80FF91FE75AFD4F61835A
:100F00004083228308953E9A089522E9611123E9DE
:100F100089B190E02F7002C0959587952A95E2F7E8
:100F20008170089522E9611123E93AB12F7081E0BF
:100F300090E001C0880F2A95EAF7982F90959323A7
:100F40009AB99BB1892B8BB9089590915302E92FDF
:100F5000F0E0409154029F012F5F3F4F23703327F1
:100F600042171306A9F0EB5AFD4F282F2F778081E7
:100F70008078822B60FB87F980839F5F93709093CA
:100F80005302809151028F5F8093510281E0089556
:100F900080E00895CF93DF938091FF0180FD0CC026
:100FA000D0E0C0E020E040E060E0CE010E947807A1
:100FB0002196CC30D105B1F70E94550DDF91CF912C
:100FC00008958091FF01982F9C7F71F48091FF011B
:100FD000837084608093FF01809102028D3318F04A
:100FE0008CE3809302020895883080F7F5CF80E08B
:100FF00008959091900292FF10C041E0282F247133
:10100000243009F040E031E0282F2871283009F021
:1010100030E0431711F02CE0822793FF10C041E02D
:10102000282F2471243109F040E031E0282F287165
:10103000283109F030E0431711F02CE0822730917D
:10104000910230FF10C051E0282F2171213009F0AA
:1010500050E041E0282F2871283009F040E0541773
:1010600011F029E0822731FF10C041E0282F2171C3
:10107000213109F040E031E0282F2871283109F0B2
:1010800030E0431711F029E0822794FD877E089510
:1010900082389105B9F1B0F48133910509F47DC02E
:1010A00048F48932910509F46DC08A32910509F43A
:1010B0007BC008958533910509F45FC0893391059C
:1010C00009F10895833E9105D9F138F4803E9105E8
:1010D00029F1823E910579F10895863E9105D9F175
:1010E000873E910509F43EC0843E910541F520916B
:1010F000910221FF24C08091900284FD19C087EEE7
:1011000090E0089520919002237009F05AC0209138
:10111000910223FF14C089E290E00895209190028B
:1011200020FD38C03091910230FF09C024FF43C038
:1011300090E080E008952091900222FDF7CF08957D
:101140002091900222FD3AC03091910230FD39C0C9
:1011500024FFF5CFEDCF2091900223FFF0CF24FDA7
:10116000E7CFCDCF2091900223FD2EC03091910288
:1011700031FFEECF84EE90E008952091900225FF9C
:10118000DECFC9CF2091900225FD21C02091910290
:1011900023FFD5CF89E390E0D2CF2091900226FFA4
:1011A000CECF8AE290E008952091900226FFC7CF2B
:1011B00081E390E0089583EE90E0089582EE90E060
:1011C000089580EE90E0089586EE90E0089585E31E
:1011D00090E008957330C0F4643080F5833088F572
:1011E000E72FF0E093E0899FE00DF11D1124EE0F51
:1011F000FF1FEE0FFF1FE60FF11DEE0FFF1FE4555F
:10120000FF4F8591949108957D3F59F4611116C067
:101210008330B8F494E0899FF0011124EC50FF4F23
:10122000F0CF7C3F59F4611109C0833050F494E051
:10123000899FF0011124EA50FF4FE3CF80E090E056
:10124000089581E0FCCF1F93CF93DF930E9448085D
:10125000EC01C11580E5D807F0F5C11580E4D80789
:1012600008F09CC0C03ED10520F5CD3CD10508F06A
:1012700082C0C83AD10578F4C53AD10508F073C0E8
:10128000C130D10519F1209709F1C430D105F0F42E
:10129000D0E0C0E01BC0C33CD105D0F7C85AD0E0B5
:1012A000CC0FDD1FC85EDE4F0990D881C02DD464FD
:1012B0000DC0C11580E2D80708F0D1C0C11581E08A
:1012C000D80708F05AC0C83ED10510F7CE01DF910B
:1012D000CF911F910895C03682E5D80718F5C03424
:1012E00082E5D80708F06BC0C03282E5D80708F065
:1012F0005FC0C11582E5D80708F497C02C2F26954A
:10130000269580E2289F900111248C2F8370C1E0E4
:10131000D0E002C0CC0FDD1F8A95E2F7C22BD32BA1
:10132000DD68D4CFC03A82E5D80760F4C03882E5E2
:10133000D80708F459C0CF71D0E0DC2FCC27C46F98
:10134000D06AC4CFC03C82E5D80708F462C0C03E72
:1013500082E5D80708F09CCFDC2FCC27CC27DF71A3
:10136000C06FD06AB3CFC55AD0E0CB5EDE4FC88124
:10137000D0E0D064ABCFD065A9CF8D2F0E94F90704
:10138000182FCE0199270E944808C12FD0E0DC2FEA
:10139000CC27CC27DF71C82BD92B98CFCE0199272A
:1013A0000E944808CC27DF70C82BD92BD06A8ECF7B
:1013B000CF71D0E0DC2FCC27C16FD06A87CF2C2F24
:1013C00026952695277080E2289F900111248C2F66
:1013D0008370C1E0D0E002C0CC0FDD1F8A95E2F738
:1013E000C22BD32BDC6872CF2C2F26952695277025
:1013F00080E2289F900111248C2F8370C1E0D0E0FF
:1014000002C0CC0FDD1F8A95E2F7C22BD32BDA681E
:101410005DCF8C2F8F710E94F907C82FD0E0DC2F91
:10142000CC27CC27DF71D06251CF8C2F8F710E94D7
:10143000F90755E0D695C7955A95E1F7CF70D0E0FA
:10144000DC2FCC27282F30E084FF05C044E0220F9A
:10145000331F4A95E1F7C22BD32BD06937CF8D2F9D
:101460008F710E94F907182FCE0199270E94480812
:10147000C12FD0E0DC2FCC27CC27DF71C82BD92B94
:10148000D2CF80959091E40198239093E401089540
:101490008091E4019091BB01892B9091BA0199232D
:1014A00091F0892B90911301913071F490919002F9
:1014B00097FF0AC09EE126E831E040E0915040F4F9
:1014C00041111092BA01089596E02EE731E0F5CF70
:1014D000F90151919F01552389F34F5FEFCF80911F
:1014E000E5029091AC02981301C008958F5F877058
:1014F000FACFB0E0A0E0EFE7FAE00C947D257C01A4
:1015000000910702109108028091EE019091EF0185
:10151000082B192BCFE0D0E0CC24C394D12CBC2EC7
:10152000C6010C2E02C0880F991F0A94E2F780238F
:101530009123892B49F4219790F7B12C8B2DCDB7AE
:10154000DEB7E9E00C949925B7018C2F0E94EA08D8
:101550000E942309019779F3F1CFCF93DF93EC0138
:101560000E94790ABE010E94EA080E942309DF91C5
:10157000CF910895A82FA77023E0969587952A9577
:10158000E1F7880F991F880F991FFB01E80FF91FDA
:1015900050E040E080E0219130E00A2E02C0369514
:1015A00027950A94E2F721703327042E01C0220FF9
:1015B0000A94EAF7822B4F5F5F4F4430510559F789
:1015C0000895933070F4843098F444E0949F90012F
:1015D00011246AEA71E0820F932F911D0E94BA0ACA
:1015E00008959C5F923020F466EA71E090E0F6CFB7
:1015F00080E00895262F277091E001C0990F2A9569
:10160000EAF723E0769567952A95E1F7660F771F4D
:10161000660F771FFA01E60FF71F50E040E0682FD2
:1016200070E08191DF0111979B01042E02C0369575
:1016300027950A94E2F72170219528272923282746
:101640002C934F5F5F4F4430510559F70895282F71
:10165000862F933068F4243050F434E0939FB00127
:101660001124620F711D4AEA51E00E94FA0A08959E
:101670009C5F9230E0F7622F70E046EA51E0F5CFD0
:101680009093080280930702089521E030E002C0A1
:10169000220F331F8A95E2F720953095809107023B
:1016A00090910802822393230E94400B0895909109
:1016B000B901809589238093B901282F277069F497
:1016C000891759F09091910292FF07C086958695EF
:1016D00086950E94450B1092B901089521E030E0F3
:1016E00002C0220F331F8A95E2F780910702909182
:1016F0000802822B932B0E94400B08959093EF01D8
:101700008093EE010895FC0124812223C1F08081A1
:1017100091810E94AD0A92959F70963091F058F495
:10172000925F9F70923058F4803F19F030F4883EF9
:1017300030F481E008959A5FF4CF843FD1F380E0E4
:101740000895883EB0F3813FD1F7F3CFA6E0B0E033
:10175000ECEAFBE00C94832549835A8349815A8142
:101760009923A1F0222391F0CA010E94790A182F2F
:10177000682F89819A810E94270B69817A81812F44
:101780000E94EA082696E3E00C949F25CA010E9475
:10179000E10A182FF2CFCF93DF93682F81E06A30F0
:1017A00019F06D3031F480E00E944B0CDF91CF9145
:1017B00008958091F2069091F30626E0FC01ACEECC
:1017C000B6E001900D922A95E1F7603E08F458C00A
:1017D00026E0FC0111922A95E9F7C091F206D0911A
:1017E000F30646E050E0BE018CEE96E00E94102623
:1017F0009E012C5E3240892B41F1C90146E096954D
:1018000087954A95E1F741E050E0BA0102C0660FC2
:10181000771F8A95E2F7CB016091EA027091EB02A3
:10182000862B972BB9016B5F7F4FE6E07695679526
:10183000EA95E1F702C0440F551F6A95E2F7842B41
:10184000952B9093EB028093EA022A5F3F4F4091E1
:10185000E902642F70E0C9010E946025481B4630F0
:1018600010F4240F311D211574E0370710F030E01B
:1018700020E024513D4F3093F3062093F20696CF9B
:10188000F6E06F9FB00111246C5C7B4F46E050E0A6
:101890000E940726A2CFCF93382FE091F206F09155
:1018A000F306EC5EF2402091E902622F70E0CF0176
:1018B0000E946025281B822F332361F066E00E947E
:1018C000AB25C82FC15010F4CF91089580E20E943B
:1018D000CB0BF8CF9F01280F311D2115344018F094
:1018E00080E0F0E0E0E08E0F9F2F911D84519D4F2E
:1018F0009093F3068093F206E7CFCF93DF93EC014A
:10190000FE018491811106C081E00E944B0CDF91A1
:10191000CF9108950E94CB0B2196F2CF80911301B5
:10192000813059F58091900287FF27C00E94480AB4
:101930008093850140E250E06CEB71E084E891E037
:101940000E941026892BC1F080E2E4E8F1E0ACEBC4
:10195000B1E001900D928A95E1F7E0918C02F0914F
:101960008D02309749F086E0809384010480F581F0
:10197000E02D84E891E0099508950E94480A80933B
:101980007C0148E050E06CED71E08CE791E00E9452
:101990001026892B89F388E0ECE7F1E0ACEDB1E0AB
:1019A00001900D928A95E1F7E0918C02F0918D0201
:1019B000309711F30280F381E02D8CE791E0DBCFCB
:1019C000882321F00E94410A0E948E0C08958823EA
:1019D00039F09091E401982B9093E4010E948E0CD1
:1019E00008950F931F93CF93DF938B01EA0190919A
:1019F000A202943061F58093E9008FEF9091E800A6
:101A0000815095FD06C095ED9A95F1F70000811182
:101A1000F5CF8091E80085FF1AC00E94170581115B
:101A200011C08091E80085FD06C08091E8008E77A6
:101A30008093E800F2CFF80181918F018093F1004B
:101A4000219779F78091E8008E778093E800DF9105
:101A5000CF911F910F91089543E050E0BC0182E0C7
:101A60000E94F10C089546E050E0BC0182E00E9423
:101A7000F10C089540E250E0BC0182E00E94F10CBC
:101A80000895CF93DF93EC0148E050E0BC0181E082
:101A90000E94F10C88E0FE01A8E9B2E001900D92ED
:101AA0008A95E1F7DF91CF91089538B13F7B28B156
:101AB00020644FB7F89489E592E0FC015191CF0181
:101AC00068E028B9000000C057FF38B9550F000082
:101AD00000C000C000C038B900C06A9591F7F2E0BC
:101AE0008D379F0751F74FBF8FE594E00197F1F7CE
:101AF00000C000000895AB0124E630E0BC0188E797
:101B00000E94D02421E0892B09F020E0822F089543
:101B100080914F0290915002911103C091E089276A
:101B20000895882369F062E070E084E292E00E9408
:101B30007B0D811103C080914F02089510924F02D6
:101B400080914F02EBCFCF93C0914F028091500212
:101B50008823D1F00E9463066054784D864F9F4FD2
:101B600060934B0270934C0280934D0290934E020F
:101B7000C11108C062E070E082E292E00E947B0D39
:101B8000811105C0C0914F028C2FCF91089581E043
:101B900080934F02F7CF2F923F925F926F927F9286
:101BA0008F929F92AF92BF92CF92DF92EF92FF926D
:101BB0000F931F93CF93DF9380915002882309F4F2
:101BC00053C08CEE92E09093F3068093F20620913E
:101BD000070230910802832F9927009709F456C015
:101BE0009C0188E0A90174E0569547957A95E1F744
:101BF0004115510511F08C5F9A01A9015695479541
:101C0000569547954115510511F08E5F9A0136950D
:101C10002795232B09F08F5F813009F456C0882364
:101C2000B9F1823009F46CC08091EA029091EB0224
:101C3000892B09F080C080914F028823A9F00E946F
:101C4000630600914B0210914C0220914D0230919D
:101C50004E02601B710B820B930B6F3F7F4F8F4FB8
:101C60009F4710F40E94880DDF91CF911F910F9133
:101C7000FF90EF90DF90CF90BF90AF909F908F90AC
:101C80007F906F905F903F902F90089580E0AACF53
:101C900085EA92E00E947D0C84EA92E00E947D0C2D
:101CA00080E992E00E947D0C8FE892E00E947D0C1A
:101CB0008BE792E00E947D0C8AE792E00E947D0C07
:101CC00086E692E00E947D0CAFCF8EE592E00E9406
:101CD0007D0C8DE592E00E947D0C86E592E00E94ED
:101CE0007D0C85E592E00E947D0C8EE492E00E94DE
:101CF0007D0C8DE492E00E947D0C86E492E0E2CFC0
:101D00008EE392E00E947D0C8DE392E00E947D0CB8
:101D100086E392E00E947D0C85E392E00E947D0CB8
:101D20008EE292E00E947D0C8DE292E00E947D0C9A
:101D300086E292E0C7CF80915002882309F47BCFDE
:101D400080914A02811177CF0E94A30D2091EA026F
:101D50003091EB022115310509F46DCF80E041E0AF
:101D600050E0082F10E01A01082E02C0220C331C8C
:101D70000A94E2F7B10162237323672B11F48F5F9A
:101D8000F0CF9091490290FF95C0880F880F880F7F
:101D900080930C0110920F01895F80930D0187E001
:101DA0008093100124E630E047E050E06AE071E003
:101DB00088E70E948C24892B09F03DCFA80126E0FA
:101DC000440F551F2A95E1F78091490280FF83C097
:101DD000E9E0F2E080E4DF011D928A95E9F7A2E7ED
:101DE000B1E00AE611E08AE7C82E81E0D82E97E03C
:101DF000592E772473948D91E80129918E01240F37
:101E0000352F311D24513D4FE82FF0E0E75FFD4FA6
:101E100090E080E0652C681A872C082E01C0880CA1
:101E20000A94EAF77901A12CE701B9907E01B82064
:101E3000662D6A196770962E062E000C770BDB2D27
:101E400001C0DD0F9A94EAF7719561957109677089
:101E5000772701C0B6946A95EAF7BD2A6081962E6D
:101E60009B289082A39468E0A612DECF019631965B
:101E70008830910579F6CA16DB0609F0BCCF04E676
:101E800010E020E430E049E052E060E488E70E949E
:101E90001625892B09F0CFCEE101C095D095809110
:101EA000EA029091EB02C823D923D093EB02C093AE
:101EB000EA02C1CE8295880F880F807480930C014E
:101EC00098013695279520930F01815C80930D0131
:101ED0002093100167CF44515D4F04E610E020E4E9
:101EE00030E0D3CFB0E0A0E0E8E7FFE00C947A2543
:101EF00049015A016B017C010E94E1078401A401A0
:101F00006A2D7B2D88E090E00E94532694014A2D93
:101F10005B2DB601C70100E20E94EC25622F83E22F
:101F200090E00E944126CDB7DEB7ECE00C949625F8
:101F3000B0E0A0E0EEE9FFE00C947A25D82E162F51
:101F4000042F822E9090FF0190FE3AC0892D8C7F45
:101F50008430F9F4E42F4D3308F0ECE3F0E0EE5D6B
:101F6000FE4F111132C0C491DC2FFC2E90FE11C027
:101F7000B12CA12C2D2F4F2D6C2FC5010E9478075D
:101F80005FEFA51AB50A8CE0A816B10499F70E9474
:101F9000CA07D09200021093010200930202882027
:101FA00079F02091FF0160910302709104023D2DB0
:101FB000412F502F80910502909106020E94720FCE
:101FC000CDB7DEB7ECE00C949625E12EF12CC49150
:101FD000CC2EEC2FF0E026E0D29EC00111242FEF92
:101FE00030E0B9010E9460258D2D90E0880F991F87
:101FF000A5E5A69FA001A79F500D1124841B950B5A
:10200000A82FAA0FA80FA9014E195F094E9FC00162
:102010004F9F900D5E9F900D1124D92F1A9FA00104
:102020001124452F55275901A41AB50AA5014E9F21
:1020300050014F9FB00C5E9FB00C1124A9014A1BA8
:102040005109DA01AE9DA001AF9D500DBE9D500D0E
:102050001124452F5527241B350B2E9FA0012F9FA0
:10206000500D3E9F500D1124F52E62307105A1F0E8
:1020700050F46115710509F479CF6130710581F073
:10208000F92EDB2D73CF6430710569F080F0663076
:10209000710509F46BCFF4CFC92FD52FFC2C66CF77
:1020A000FC2ECB2D63CFC52FF92EDC2D5FCFFB2C63
:1020B000C92FFBCFEFEFF1E0438121E1421B08F490
:1020C00040E021E0628181810E94980F0895EFEF46
:1020D000F1E0438121E1420F08F44FEF21E06281FA
:1020E00081810E94980F0895EFEFF1E0628121E174
:1020F000621B08F460E021E0438181810E94980F17
:102100000895EFEFF1E0628121E1620F08F46FEFD3
:1021100021E0438181810E94980F0895EFEFF1E063
:10212000818121E04381628188500E94980F089547
:10213000EFEFF1E0818121E043816281885F0E94BD
:10214000980F089580910302882319F0815080939D
:1021500003022091FF013091000240910102509151
:102160000202609103027091040280910502909135
:1021700006020E94720F089580910302833018F4C2
:102180008F5F809303022091FF0130910002409104
:102190000102509102026091030270910402809149
:1021A0000502909106020E94720F08952091FF018E
:1021B00020FF1FC0237024602093FF01662381F05D
:1021C000309100024091010250910202609103029D
:1021D0007091040280910502909106020E94720F94
:1021E00020E04091020260910102809100020E9471
:1021F000980F08958091FF0186958695815009F486
:1022000081E061E00E94D610089561E081E00E94C3
:10221000D61008959091910292FB222720F9281759
:1022200079F080FB92F99093910260919002709105
:10223000910284E090E00E945F2682E00E94570BAA
:1022400008951F920F920FB60F9211242F933F9370
:102250004F935F936F937F938F939F93AF93BF93AE
:10226000EF93FF938091E10082FF09C08091E2002B
:1022700082FF05C08091E1008B7F8093E100809117
:10228000DA0080FF24C08091D80080FF20C08091B8
:10229000DA008E7F8093DA008091D90080FFAAC097
:1022A00080E189BD82E189BD09B400FEFDCF81E0F6
:1022B0008093A20280919702811109C00E94F804C4
:1022C0000E9499058091E20084608093E2008091F1
:1022D000E10080FF1AC08091E20080FF16C080916B
:1022E000E2008E7F8093E2008091E2008061809323
:1022F000E2008091D80080628093D80019BC85E00C
:102300008093A20283E0809314018091E10084FF16
:1023100030C08091E20084FF2CC080E189BD82E161
:1023200089BD99B5892F817090FFFBCF9091D8001E
:102330009F7D9093D8009091E1009F7E9093E10063
:102340009091E2009F7E9093E2009091E200916074
:102350009093E2009091A302992309F451C094E074
:102360009093A2029091A202943009F482E08093AB
:1023700014018091E10083FF2CC08091E20083FF73
:1023800028C08091E100877F8093E10082E0809304
:10239000A2021092A3028091E1008E7F8093E1005F
:1023A0008091E2008E7F8093E2008091E200806164
:1023B0008093E20042E060E080E00E946705809147
:1023C000F00088608093F00081E080931401809396
:1023D0001301FF91EF91BF91AF919F918F917F91E9
:1023E0006F915F914F913F912F910F900FBE0F9082
:1023F0001F90189519BC1092A2021092970267CFF5
:102400009091E30097FD02C0982FAACF93E0A8CF48
:1024100078941F921FB61F9211248F939F93AF93AE
:10242000BF938091930290919402A0919502B091F4
:1024300096020196A11DB11D809393029093940280
:10244000A0939502B0939602BF91AF919F918F9107
:102450001F901FBE1F9018959C014FB7F894809154
:10246000930290919402A0919502B09196024FBF71
:10247000821B930B08952FB7F8948091930290914B
:102480009402A0919502B09196022FBF08950E94E8
:102490003B129C019091860280918702982B21F03B
:1024A0003093830220938202909188028091890266
:1024B000982B21F03093810220938002E0918C02CE
:1024C000F0918D02309749F082E08093840206807B
:1024D000F781E02D84E892E0099508951092E401D7
:1024E00080911301813039F58091900287FF23C0DC
:1024F000E6E8F1E08EE1DF011D928A95E9F790E0D0
:1025000080E00E94F60690E080E00E94D1061092E2
:10251000BB010E948E0C86E0E4E8F2E0DF011D9230
:102520008A95E9F710927D0210927E0210927F0246
:102530000E9447120895EEE7F1E086E0DCCFAAE2C0
:10254000B0E0E5EAF2E10C94832584EA92E0209180
:10255000F100FC012193CF01F2E08C3A9F07B9F71B
:102560008091A502833009F470C0B8F4813009F479
:1025700047C0823009F4B5C08091E80083FF89C26A
:102580008091A4029091A5029A3008F082C2E92FAE
:10259000F0E0E958F94D0C94CB258A3009F490C04D
:1025A0008B3009F46FC0893039F78091A4028132F1
:1025B00019F78091A8029091A9020297E8F68091FC
:1025C000E800877F8093E8008091E80082FF38C0B0
:1025D0009091F3008091F200029731F48091F10024
:1025E000813011F0863021F48091F1008093120146
:1025F0008091E8008B778093E8000E944805BCCF6B
:102600008091A402813A09F0B7CF8091E800877FDA
:102610008093E8008091A8029091A902892B61F42F
:1026200068E088E992E070E00E94F4058091E8009B
:102630008B778093E800A0CF60E090E080E0F3CF5C
:102640008091A2028111C0CF97CF8091A402813ADC
:1026500009F092CF8091A8029091A902892B09F0EC
:102660008BCF8091E800877F8093E8008091E8001D
:1026700080FFFCCF809113018093F1008091E800EE
:102680008E77B9CF8091A402813209F075CF809105
:10269000A8029091A902892B09F06ECF8091E800E1
:1026A000877F8093E8000E94480581E09091A60210
:1026B000911101C080E0809313010E946E125CCFE3
:1026C0008091A402813209F057CF8091E800877F82
:1026D0008093E8000E9448058091A7028093110131
:1026E0004BCF8091A402813A09F046CF8091E80057
:1026F000877F8093E8008091E80080FFFCCF809185
:102700001101BACF803899F0823809F0C2C18091A6
:10271000A8028F70873008F0BCC18093E9008091D7
:10272000EB0085FB882780F91092E90006C08091B4
:10273000A0029091A102911182609091E800977F90
:102740009093E8008093F1001092F1008091E800EE
:102750008E779BC1882309F489C1823009F099C121
:102760008091A60281118CC18091A8028F702FEFF9
:10277000280F263008F08DC18093E9002091EB00EE
:1027800020FF7EC1933031F48091EB008062809312
:10279000EB0076C19091EB0090619093EB0021E00B
:1027A00030E001C0220F8A95EAF72093EA001092E8
:1027B000EA008091EB008860EACF81116AC1109134
:1027C000A6021F778091E3008078812B8093E3003D
:1027D0008091E800877F8093E8000E9448058091FF
:1027E000E80080FFFCCF8091E30080688093E300E5
:1027F00082E0111183E08093A2024BC180588230A5
:1028000008F047C18091A6029091A7028C3D23E079
:102810009207A1F583E08A838AE289834FB7F8940F
:10282000DE01139620E03EE051E2E32FF0E050930A
:102830005700E49120FF03C0E295EF703F5FEF7017
:102840008E2F90E0EA30C0F0C7968D939D932F5F56
:10285000243159F74FBF8091E800877F8093E800CB
:102860006AE270E0CE0101960E94F4058091E800D2
:102870008B778093E8000DC1C096E7CF4091A80206
:102880005091A902292F33272330310509F444C080
:1028900078F52130310509F46FC08BE390E0E3EB6C
:1028A000F3E02230310509F0F4C02091E800277FE1
:1028B0002093E8002091AA023091AB02821793077F
:1028C00008F49C0140E02115310509F064C0411174
:1028D00062C08091E80082FDC9CF8091A202882366
:1028E00029F2853019F28091E80083FFF2CFBECF44
:1028F00021323105A9F12232310509F0CAC0411552
:10290000510509F443C04130510509F0C2C086EBBE
:1029100090E0E9EBF2E0C9CF992781309105C1F051
:10292000009759F0029709F0B4C0E0E0F4E0E491B8
:102930008E2F90E0E0E0F4E007C0E0E3F4E0E49103
:102940008E2F90E0E0E3F4E0009709F4A2C0ADCF51
:10295000E6E1F4E0E4918E2F90E0E6E1F4E0F4CFDC
:102960004115510571F04130510509F092C089E0DF
:1029700090E0EEEDF3E099CF82E190E0EEEEF3E04F
:1029800094CF89E090E0E5ECF3E08FCF84E490E031
:10299000EFE6F3E08ACF8091A202882309F466CFA4
:1029A000853009F463CF8091E80083FD5FCF80918B
:1029B000E80082FD8ECF8091E80080FF84CF909167
:1029C000F3008091F2002115310519F0883091054E
:1029D00050F041E0089709F040E08091E8008E77E0
:1029E0008093E80070CF44914093F10031962150DC
:1029F00031090196E8CF803809F04BC08091E8009A
:102A0000877F8093E8008091A3028093F1009ECE9F
:102A100081113FC01091A6021230D8F58091E800D4
:102A2000877F8093E8001093A3020E94480511233A
:102A300011F084E005C08091E30087FDFACF81E0CA
:102A40008093A20242E061EC81E00E94670542E2CD
:102A500061EC82E00E9467058091A202843021F03F
:102A600081E08093140115C082E0FBCF8091A60223
:102A7000813079F481E0933009F080E08093A10205
:102A80001092E9008091E800877F8093E8000E941F
:102A900048058091E80083FF0AC08091E800877FA5
:102AA0008093E8008091EB0080628093EB00AA960F
:102AB000E3E00C949F251F920F920FB60F92112402
:102AC0002F933F934F935F936F937F938F939F9336
:102AD000AF93BF93CF93DF93EF93FF93D091E90030
:102AE000DF708091EC00C82FC17080FDC0E81092AB
:102AF000E9008091F000877F8093F00078940E9435
:102B00009F121092E9008091F00088608093F0009D
:102B1000CD2BCF70C093E900FF91EF91DF91CF9162
:102B2000BF91AF919F918F917F916F915F914F91E5
:102B30003F912F910F900FBE0F901F9018950E94FC
:102B40006E122FEF84E39CE0215080409040E1F72B
:102B500000C0000088E19AE00FB6F894A895809331
:102B600060000FBE90936000FFCF662309F45DC044
:102B70008D3C41F40E944A078195809387020E9410
:102B8000471208958E3C19F40E944A07F6CF8F3CF5
:102B900031F40E944A07819580938602F0CF803DF0
:102BA00019F40E944A07F8CF893D29F40E942807AA
:102BB00080938802E4CF8A3D21F40E942807819502
:102BC000F7CF8B3D31F40E942807819580938902CD
:102BD000D6CF8C3D19F40E942807F8CF9FE2980FBA
:102BE000983070F4815D990B21E030E001C0220F34
:102BF0008A95EAF780918502822B80938502BFCF68
:102C00008D3D31F480917F02816080937F02B7CF48
:102C10008E3D21F480917F028260F7CF8F3D09F0D5
:102C2000AECF80917F028460F0CF409186028D3CD0
:102C300059F48091870287FF0DC0109287024111DD
:102C40000BC010927D0208C08E3C81F480918702F7
:102C500018169CF3442381F0809188029091890298
:102C6000892B09F08CCF10927E0289CF8F3C49F4DA
:102C700047FFF0CF10928602809187028111ECCF3E
:102C8000E0CF803D19F41416ACF3E4CF90918802A4
:102C9000893D29F41916F4F610928802DBCF8A3D9B
:102CA00019F497FFD7CFF8CF909189028B3D29F483
:102CB00097FFD0CF10928902CDCF8C3D19F4191611
:102CC000CCF3C8CF9FE2980F983090F4815D990BB8
:102CD00021E030E0B90102C0660F771F8A95E2F764
:102CE000CB01809590918502892380938502B2CF94
:102CF0008D3D31F480917F028E7F80937F02AACF39
:102D00008E3D21F480917F028D7FF7CF8F3D09F0BA
:102D1000A1CF80917F028B7FF0CF882381F19CEF40
:102D2000980F913A28F40E9472060E948E0C089522
:102D300090E2980F983050F4877091E001C0990F9D
:102D40008A95EAF7892F0E94410AEFCF9BE5980FF9
:102D5000933028F490E080E00E94F606089598E50C
:102D6000980F9B3128F490E080E00E94D1060895EE
:102D700093E3980F933118F460E00E94B51508951D
:102D8000CF93C82F8823B9F18CEF8C0F813AA8F527
:102D900080911301813001F58091900287FF1CC062
:102DA000EC2FE695E695E695F0E0EC57FE4F828134
:102DB00090E04C2F477021E030E002C0220F331F1B
:102DC0004A95E2F782239323892B81F08C2F0E946E
:102DD00072060E948E0C0AC0EEE7F1E084E891E0F2
:102DE0002191C21799F38E179F07D1F78C2F0E945C
:102DF0009D060E948E0CCF91089580E28C0F883042
:102E000068F4C77021E030E001C0220FCA95EAF7EC
:102E10008091E401822B8093E401EBCFEBE5EC0F92
:102E2000E33040F4F0E0EB5EFE4F808190E00E94E2
:102E3000F606E1CFE8E5EC0FEB3150F4F0E0EE0FF1
:102E4000FF1FE85EFE4F808191810E94D106D3CFA3
:102E500083E38C0F833178F661E08C2F0E94B515E7
:102E6000CACF0F931F93CF93DF93C62FD42F022F78
:102E7000FC0185818823A9F06093E8020E943B123F
:102E80009093E7028093E602C77081E001C0880F4B
:102E9000CA95EAF70E94E70CDF91CF911F910F913D
:102EA00008958091E802681335C08091E602909100
:102EB000E7020E942C12883C910560F510E21D0F7C
:102EC000CD17B9F080E28C0F883040F4C77081E0F4
:102ED00001C0880FCA95EAF70E94E00C183048F448
:102EE00081E09D2F977001C0880F9A95EAF70E94A4
:102EF000E70C802F0E94C016802F0E948D1618307C
:102F000058F6D77081E001C0880FDA95EAF70E9481
:102F1000E00CC2CFC77081E001C0880FCA95EAF704
:102F2000F6CFB0E0A0E0E7E9F7E10C947C258C0156
:102F3000FC0184818823B1F121E0408151816281CB
:102F4000738195810E94A60BEC01F801958199236C
:102F500071F1C034FEE7DF0709F058C48091EA013F
:102F600090E0019663E070E00E94B7258093EA014B
:102F700021E030E0A90102C0440F551F8A95E2F715
:102F8000CA010E94400B8091B901877059F0F80185
:102F90008581882339F08091910282FF03C082E00D
:102FA0000E94570BCDB7DEB7EAE00C949825FE01DE
:102FB000E851FC47E730F10508F01BC4EF57F94D25
:102FC0000C94CB2526E241EE61EEC8010E94311738
:102FD000DACF27E245EE65EEF8CF26E241EE60EE6D
:102FE000F4CF27E245EE64EEF0CF26E241EE62EE4A
:102FF000ECCF27E245EE66EEE8CF28E241E0EBCFEA
:103000008091900281608093900295C0809191029E
:103010008860809391028FC0809190028260F3CF8C
:10302000809190028460EFCF809190028860EBCF16
:10303000809191028160EDCF809191028260E9CF11
:10304000809190028061DFCF809190028062DBCF1F
:10305000809190028064D7CF0E946E12809190027E
:103060008068D1CF809190028C60CDCF8091910209
:103070008360CFCF809190028E7FC5CF80919102E7
:10308000877FC7CF809190028D7FBDCF80919002C6
:103090008B7FB9CF80919002877FB5CF80919102CD
:1030A0008E7FB7CF809191028D7FB3CF80919002B8
:1030B0008F7EA9CF809190028F7DA5CF80919002C5
:1030C0008F7BA1CF0E946E12809190028F779BCF51
:1030D00080919002837F97CF809191028C7F99CFCE
:1030E0008091900282FB992790F921E0922790FB32
:1030F00082F990FB83F987CF80919102982F909568
:1031000091708E7F892B90FB81F983CF90919002F3
:10311000892F8F7B96FF806476CF0E946E129091EC
:103120009002892F97FB87F980586DCF61E08EE080
:1031300090E00E944126609190027091910284E09B
:1031400090E00E945F260E946E121DCF60E0EFCFDC
:1031500090919002892F8F7E94FF806154CF90913F
:103160009002892F8E7F90FF81604DCF90919102C8
:10317000892F877F93FF88604CCF85E335C385E334
:1031800042C38272FE01E052F847EB30F10508F0CD
:103190005AC0E857F94D0C94CB258091FF0180FF70
:1031A00017C0282F2E7F2093FF01309100024091FD
:1031B0000102509102026091030270910402809119
:1031C0000502909106020E94720F0E94CA07DBCE90
:1031D00081608093FF0161E0869586950E94D610FC
:1031E000D2CE882329F00E94FA10CDCE8823D9F3BD
:1031F0000E940511C8CE882329F00E948E10C3CEEC
:103200008823D9F30E949810BECE882329F00E940B
:103210007410B9CE8823D9F30E948110B4CE8823CC
:1032200029F00E945A10AFCE8823D9F30E9467106C
:10323000AACE882329F00E94A210A5CE8823D9F314
:103240000E94BC10A0CE9E01205E32452032310586
:10325000A8F4911115C0CF7181E090E0FC0102C08B
:10326000EE0FFF1FCA95E2F7EF016E2F83E090E0AB
:103270000E944126CE010E947E0B85CE992381F0CB
:10328000C330FCE7DF0709F478C008F05BC0C11564
:103290003CE7D30709F464C0C130DC4709F473C0CC
:1032A000F8018581C081D181882309F47AC0CE01DB
:1032B0000E94790AF82E682FCE010E94270BBE01CA
:1032C0008F2D0E94EA080E942309D82FC92FA82E0B
:1032D000F801C580B680B2943FE0B3228091B90175
:1032E000877009F1EC2CCC20F9F0892F807F803495
:1032F00069F080E28D0F8830B0F0892F807E8032B7
:1033000029F4F1E0FD1778F4BB2069F08091910277
:1033100082FF09C082E00E94570B8091B90187703B
:10332000EE24E3948111E12CDC2ED2942FE0D22202
:103330002BE02D1508F49AC0ED2DF0E0ED56F94D77
:103340000C94CB25CB355CE7D50749F1CC358CE720
:10335000D807D9F0CA35DC4709F0A2CF81E01CC0FC
:103360000E946E12EFEFF4E32CE0E150F0402040B9
:10337000E1F700C000000E9452066FEF7FEF90E07F
:1033800080E00E945F260E949F158091910282FB3F
:10339000882780F991E089270E940A1181CF80E077
:1033A000FBCFCE010E94E10AF82E89CF3C2F3F705F
:1033B000F32EC07F19F0F29490EFF922CC20B9F0EF
:1033C000FF2069F080E28D0F883010F0A11009C055
:1033D0008091E401F82AF092E4010E948E0C8D2F76
:1033E00043C08091BB01F82AF092BB01F6CF8D2F2C
:1033F0000E948D16FF20D1F1D05ED83010F0A110C0
:1034000004C08F2D0E94410A06C0F0948091BB0138
:10341000F822F092BB010E948E0C28C04C2F4F70F6
:10342000F42EC07FC03219F0F29480EFF822AA2067
:1034300059F051E0A51609F479C0CC2009F485C0F3
:10344000BB2009F447C0CBCF8091910282FD3EC0E2
:10345000CC20B1F1FF2039F08091E401F82AF092FC
:10346000E4010E948E0C80E00E94C0162D2D285091
:10347000330B2430310510F40E941B07EE20A9F015
:103480008091B90180FD11C0F8011582869586955D
:1034900086950E946E0BC8010E9491178091B90118
:1034A0008695869586950E94450B20E0F80140811F
:1034B000518162817381848195810E94A60B72CDB6
:1034C00080E00E948D16FF2089F29BCFCC20A1F0D6
:1034D000B11004C08F2D0E94E70CC8CF81E0B81254
:1034E000C5CF8091BA019F2D9823F91609F4BECF5C
:1034F000F82AF092BA01BACFB110B8CF8F2D0E943E
:10350000E00C9091BA018F2D892329F08F2D8095A1
:1035100089238093BA018091A5019F2D982309F4F6
:10352000A5CFF094F822F092A501A0CFCC2029F0ED
:1035300095E09B1508F49ACFCDCFE4E0EB1508F4A5
:1035400095CF8F2D0E94E00C91CFBB20D1F3F9E3F2
:10355000AF1209C02FEF37EE43E02150304040401A
:10356000E1F700C000008D2F0E948D167FCF8C2FB9
:1035700086958695837069F0813009F077CF8D2F1D
:103580009C2F9370C11002C080E090E00E94D10691
:103590006DCF8D2F9C2F9370C11002C080E090E002
:1035A0000E94F60663CF6C2D8D2F0E94B5155ECF5D
:1035B0008C2F837009F03FC0C11058CF4D2F42951A
:1035C00046954770440F440F2D2F2F7030E0042E86
:1035D00002C0220F331F0A94E2F790E080E0D4FF8C
:1035E00009C08FE090E002C0880F991F4A95E2F76A
:1035F00080959095C695C695C370C23099F078F4C1
:103600004091EE015091EF01C13039F0822B932BA4
:10361000842395230E947E0B29CF242B352B822BCC
:10362000932BF8CF822B932B2091EE013091EF0159
:1036300082279327EFCF8695CC2011F08C2F8170B5
:10364000882309F413CF4D2F429546954770440FB8
:10365000440F2D2F2F7030E0042E02C0220F331F95
:103660000A94E2F790E080E0D4FF09C08FE090E098
:1036700002C0880F991F4A95E2F780959095C695EC
:10368000C695C370C23099F078F44091070250910A
:103690000802C13039F0822B932B842395230E949A
:1036A000400BE4CE242B352B822B932BF8CF822B8F
:1036B000932B209107023091080282279327EFCFA6
:1036C000CF70CC2029F08C2F0E946E0B8D2F03CF52
:1036D0008D2F0E94E00C8C2F0E94450BC7CE8D2FA2
:1036E00052EFA51699F15A1570F090EFA916D1F086
:1036F000E1EFAE1691F0CC2009F456C0B1106FCEB8
:103700008C2F8F7127C0F3EFAF1639F124EFA2127F
:10371000F2CF9091910292FD2EC08C2F8F71CC2010
:10372000D9F218C0CC2069F034E03B1508F49ECEE5
:10373000CF7181E090E002C0880F991FCA95E2F72F
:10374000B8CF45E04B1508F491CEF2CF8C2F8F7196
:10375000C110C2CF0E946E0B89CE90E080E0CC20D9
:1037600009F49DCFCF7181E090E002C0880F991FCE
:10377000CA95E2F794CFCC2061F08C2F8F7192FF25
:10378000E9CF58E0859F9001112423602093B9016F
:10379000E1CF81E00E94570B81E08B1508F066CEE7
:1037A00082E00E94570B62CEBB2059F0893309F0AA
:1037B000DACE9FEFE7EEF3E09150E040F040E1F722
:1037C000D0CE8C2F8F7188CF8091E401C631FCE779
:1037D000DF0709F0D6CC8A7A91E009F490E0909363
:1037E000A4018111CACC89E20E949D060E948E0C20
:1037F000CACBC6312CE7D20709F025CD8091A401B0
:103800008111BDCC89E20E947206F0CFFE01E85121
:10381000FC47E730F10508F4D1CB1092E8029E0195
:1038200030572332310580F684E090E00E942B2649
:103830009093910280939002FE01E150F047E232B2
:10384000F10508F0DDCBE156F94D0C94CB25CF9373
:10385000DF938091B801807F09F04DC08091B7015E
:10386000882309F448C0E091E5025091AC02C09170
:10387000B301D091B2016091B4017091B50147E0FC
:103880005E17C9F18E2F90E0E49FF0011124E355FB
:10389000FD4F2481222391F1489FF001499FF00DB3
:1038A0001124DF01A355BD4F11962C9111972C13B4
:1038B00025C02C912D1322C015962C9115972111FE
:1038C0001DC012962D913C91261B370B283C3105CB
:1038D000A8F48091B8018F7080618093B801ED5495
:1038E000FD4F80818F708061808382EB91E00E9428
:1038F00091170E946F0ADF91CF910895FC013196D4
:10390000E770BECFA4E1B0E0E8E8FCE10C947A25D2
:103910008C0186E0F801DE011F9601900D928A95D8
:10392000E1F7F8018481E58092EBA92E91E0B92EB0
:103930009091B601911128C0882319F1EE20F1F081
:10394000C8010E94830BF82E8823C1F087E0F8019C
:10395000D50101900D928A95E1F78091B6018130F1
:1039600031F48091B2019091B3010E94AD0A0E949E
:10397000271C8F2D6496ECE00C949625C8010E94BC
:103980009117FF24F394F5CFD080C180828093807B
:10399000F090B7012091B4013091B501A401421B10
:1039A000530BFF2009F4D9C0483C510508F092C0E0
:1039B0008823F9F29091B3018091B801282F207FDC
:1039C00009F056C0C91214C09091B201D91210C0AA
:1039D000E11048C08F7080618093B80182EB91E064
:1039E0000E9491178091B801F8018683F12CC1CF14
:1039F000E11038C06C2D8D2D0E94D9046C2D8D2DB9
:103A00000E94D904E82E8111F1CFDF86C88A8F8504
:103A100098890E94AD0A292F22952F70243058F4DE
:103A20009F70223088F0992399F0F8019681907F59
:103A300079F4FE2C9ECF2A5F2F70223068F0C801E7
:103A40000E949117EF2CF5CF992311F0882389F369
:103A5000805E883070F3F3CF803F58F3815F83300E
:103A600070F7E7CF8091B80181608093B801BECF35
:103A7000C91207C09091B201D91203C0EE2009F417
:103A80008DC0C8010E94830B882309F477CFEE20F4
:103A900009F474CF8091B801803288F02091B2018E
:103AA0003091B301398728879B868A869091B60129
:103AB0009C871D868E87CE0108960E94911787E00D
:103AC000F801A2EBB1E001900D928A95E1F70E9416
:103AD000271C57CF9091B801292F207F51F482EBFA
:103AE00091E00E94911787E0F50111928A95E9F71C
:103AF0007DCF882309F43DCF8091B3018C1110C094
:103B00008091B201D8120CC0E1100AC09683C8019E
:103B10000E94911787E0F50111928A95E9F729CF64
:103B2000C8010E94830B882309F428CFEE2009F4F2
:103B300025CF8091B801803210F22091B2013091EE
:103B4000B3013A8329839C828B829091B6019D8335
:103B50001E828F83CE010196B0CF483C5105D0F62E
:103B6000882309F40ECFFE2CEE2009F407CF8091B4
:103B7000B3018C1120C08091B201D8121CC0809179
:103B8000B80180FD0FC0982F907F61F08683903F31
:103B900031F0982F907F905F8F70892B8683C801BA
:103BA0000E94911787E0F801A2EBB1E001900D921D
:103BB0008A95E1F7DECEC8010E94830B81117FCF89
:103BC0008091B80181608093B801C8010E9491176B
:103BD000D0CEABE1B0E0EFEEFDE10C9482254E8B50
:103BE0005F8B688F798F8A8F9B8F192F911110921D
:103BF000BB011D8A86E0FE017696DE011F960190CC
:103C00000D928A95E1F70A8D002341F021E04F855E
:103C1000588969897A89C8010E94A60B0B8B1C8B75
:103C200087E0FE013F96DE01189601900D928A957D
:103C3000E1F7CE0108960E94821C81110CC087E03A
:103C4000FE013896DE01119601900D928A95E1F7FA
:103C50008C8581110BC017E08091E5029091AC0238
:103C6000891331C06B96E4E00C949E252091AC0240
:103C700030E0C9010196877099274091E502481705
:103C8000190699F097E0929FD001939FB00D1124EF
:103C9000A355BD4FFE01319601900D929A95E1F723
:103CA0008093AC020E946F0AD6CF0E946E121092CF
:103CB000AC021092E50287E0E2EBF1E0DF011D9239
:103CC0008A95E9F7C8CF819FC001112483559D4F84
:103CD0000E94821C882331F28091E50290E00196D7
:103CE000877099278093E502B7CFA3E0B0E0EBE7B8
:103CF000FEE10C947E2519821A821B82FE01319608
:103D00008EE4C82E81E0D82E7E0184E0E80EF11CFE
:103D1000BF01860154E040E031E0D8012D918D01D2
:103D20002F3FE1F1822F82958F7090E0DC01909619
:103D30008C9190E02F7002C0959587952A95E2F7B7
:103D400080FD2CC0832F482B330F515031F7419306
:103D5000B4E0CB0ED11CEE16FF06D9F643E050E0DE
:103D60008BEE91E00E941026892BE1F089819A81E7
:103D7000AB818093EB019093EC01A093ED0181E086
:103D80008093E9010E943B129093E8018093E70140
:103D900010E0812F2396E8E00C949A2580E0D3CFA1
:103DA00010E022C01091E901112391F38091E70105
:103DB0009091E8010E942C12059750F343E050E0E7
:103DC0006BEE71E083EF91E00E941026892B41F3A6
:103DD0008091EB019091EC01A091ED018093F301B2
:103DE0009093F401A093F5011092E901D2CFA6E0DF
:103DF000B0E0EDEFFEE10C9482250E943B128C01B5
:103E00008091E5019091E6018017910781F0198278
:103E10001A820E943B12682F49815A81792F80E0D3
:103E200090E00E94E91D1093E6010093E5012696BB
:103E3000E4E00C949E251F921FB61F9211248F93CD
:103E40009F93AF93BF9380919202811113C0809191
:103E5000930290919402A0919502B091960241969E
:103E6000A11DB11D8093930290939402A09395029B
:103E7000B0939602BF91AF919F918F911F901FBEFB
:103E80001F901895CDB7DEB76A970FB6F894DEBFCE
:103E90000FBECDBF85B7806885BF85B7806885BFF9
:103EA00084B7877F84BF0FB6F894A895809160008F
:103EB000886180936000109260000FBE80E890E0FF
:103EC0000FB6F89480936100909361000FBE81E07B
:103ED0008093140187EF97E090937B0180937A01A0
:103EE0000E94F8040E9499058091E200846080930A
:103EF000E20078948091A2028823A1F01091E90059
:103F00001F709091EC00892F817090FD80E8182B34
:103F10001092E9008091E80083FD0E949F121F70BB
:103F20001093E90082E084BD93E095BD9AEF97BDC0
:103F300080936E00E1E5F2E088E0DF011D928A9552
:103F4000E9F781E08093FC0160E080E00E94920745
:103F500061E080E00E949207EFE8F1E03197F1F72D
:103F600000C0000010E08091FC01181708F4D0C0D8
:103F70002EE431E061E070E0D90150E040E08D9145
:103F80008F3F91F0E82FE295EF70F0E0F1A08F7095
:103F90008B0101C0000F8A95EAF7902F90959F2121
:103FA00091A382A1802B82A34F5F5F4F44305105C4
:103FB00031F72C5F3F4FF1E02A353F07E9F683E008
:103FC000E3EFF1E0DF01282F1D922A95E9F7EBEEF0
:103FD000F1E0DF011D928A95E9F78091EA0101E0A5
:103FE00010E0F80102C0EE0FFF1F8A95E2F7CF0143
:103FF0000E94400B90E080E00E942B26853E9E4F61
:1040000009F45FC065EE7EEF90E080E00E945F26DD
:1040100060E082E090E00E9441261093EF0100935F
:10402000EE0161E083E090E00E94412660E074E1EF
:1040300084E090E00E945F2660E086E090E00E94CD
:10404000412660E087E090E00E94412640E050E099
:10405000BA0188E090E00E94532660E083E290E09D
:104060000E94412660E08CE090E00E94412660E0E2
:104070008DE090E00E94412619821A821B821C82E8
:104080001D821E821F82188648E050E067E170E0C2
:10409000CE0101960E94312640E050E0BA018FE146
:1040A00090E00E94532640E050E0BA018FE090E09B
:1040B0000E94532640E050E0BA0183E190E00E9464
:1040C000532682E090E00E941D268093F60184E052
:1040D00090E00E942B2690939102809390020E9480
:1040E000751E2FEF36E781E0215030408040E1F728
:1040F00000C000000E94751E8091F30180FF1AC06D
:104100006FEF7FEF90E080E00E945F260E945206F2
:1041100060E0812F0E948507082F61E0812F0E94B7
:104120008507E12FF0E0E550FE4F880F802B80835C
:104130001F5F19CF83E090E00E941D2690E00E944F
:104140007E0B82E08093490280E88093E9020E941E
:1041500058246BE070E087E191E00E947B0D88239A
:10416000E9F18091490265E070E081FD3FC182E1A3
:1041700091E00E947B0D882389F16DE070E080E082
:1041800091E00E947B0D882349F10E9463066054F0
:10419000784D864F9F4F60934B0270934C028093F3
:1041A0004D0290934E02ECEEF2E080E094E0DF01ED
:1041B0009C011D9221503040E1F7F093F306E0930B
:1041C000F2068FEF9FEF9093EB028093EA0281E07B
:1041D0008093500280934F0210924A028091F00126
:1041E00081117FC088E090E00E9425264B015C0190
:1041F00083E290E00E941D26282F30E040E050E04E
:1042000060E070E080E090E000E20E94D125282983
:1042100039294A295B292093FF01309300024093FA
:104220000102509302026093030270930402809390
:104230000502909306022C7F09F043C025E02093ED
:10424000FF01109200022FEF209301022CE3209334
:1042500002021092030225E030E04FEF5CE360E0E1
:104260000E94720F88E090E00E9425266B017C017D
:1042700083E290E00E941D26282F30E040E050E0CD
:1042800060E070E080E090E00E94D125B22FA32F83
:10429000F42FE52F5B0197018601BC29A12BFE2994
:1042A000E32BB093FF01A0930002F0930102E0938F
:1042B000020260930302B09204028093050290937D
:1042C00006020E94E1070E9483078091FF0180FFA0
:1042D00005C060E0869586950E94D61081E08093A7
:1042E000F00180E091E090938D0280938C02E8E1F0
:1042F000CE2ED12C11E0F4E0AF2EB12C4424439407
:1043000072E1572E8091A2028530C9F48091A202F9
:10431000853009F46EC00E946E120E941B07109235
:10432000F2018091F101882351F08091FF018160B9
:104330008093FF0160E0869586950E94D6100E94CA
:10434000751E9091F3018091F7019813B4C090917C
:10435000F4018091F8019813AEC09091F901809119
:10436000F5019813A8C00E94F71E912C8091FD01C1
:10437000882351F01092FD018091530280935402E2
:10438000809151028093520200E08091FC01081755
:1043900008F4CDC090E08CEFE82E23E0822E3DEFB4
:1043A000732E42E0642E809154022091530228170C
:1043B00009F43DC1E82FF0E0EB5AFD4F008107FB07
:1043C000FF24F0F80F778F5F837080935402809101
:1043D00052028F5F80935202F110E5C00E943B129F
:1043E0000987EA869C878B878D86E4C08DE091E003
:1043F000C0CE8091A202843009F435C08091F201D0
:1044000081110DC01093F2018091FF01982F9170DE
:104410009093F1018E7F8093FF010E94CA070E9452
:10442000880D1092920230E40FB6F894A895C092CD
:1044300060000FBE3093600083B7817F846083BFCC
:1044400083B7816083BF7894889583B78E7F83BF5D
:104450000FB6F894A8958091600088618093600001
:10446000109260000FBE0E94751E8091F401909121
:10447000F301892B9091F501892B09F447CF8091A5
:10448000A102882309F442CF80E189BD59BC09B457
:1044900000FEFDCF8091D8008F7D8093D800809161
:1044A000E00082608093E0008091E00081FDFCCF1D
:1044B0000E946E122BCF53EF852E51E0952E67EFA1
:1044C000E62E61E0F62E00E0D4017D904D01F7016B
:1044D00021907F01271419F12724612C3324339470
:1044E000822D8321A1F06D8A0E8B0E943B12988F42
:1044F0008F8B498E91E0872D832109F490E09A8F6C
:104500004D895E896F89788D898D0E94E91D63943C
:10451000330CF4E06F12E4CFF701319770820F5F34
:10452000033091F60E946306992493941FCF61E0B3
:10453000802F0E948507F82E60E0802F0E9485075B
:10454000EF2DEE0FE82B202F30E0D901A550BE4F04
:104550009C91892F8370E81721F1990F990FE92B0E
:10456000EC93EF70F0E0E65AFE4FC90186509E4F83
:104570007C018081D7018C90880E8C92B3E060E042
:10458000B81524F0EDEF8E1624F461E0802F0E9420
:10459000A507882D880C990BB5010E94B725D70176
:1045A0008C930F5FF2CE0E943B1209877A869C871C
:1045B0008B876D861E8749855A856B857C858D85A1
:1045C0009E850E94E91DFF2091F00E943B120F87FB
:1045D000788A9A8B898B6B8A1C8A4F85588969895E
:1045E0007A898B899C890E94E91D91E0DCCE0E942A
:1045F0003B120F87E88A9A8B898B8B8AEDCF0E94BA
:1046000063060E94CB0D0E94A30D17C01093860273
:1046100070C01093870275C010938802B3C01093C6
:104620008902B8C0822B892B09F4D1C0CEC0911168
:10463000E6CF0E94CB0D9110E6CF86E0E4E8F2E0F1
:10464000DE01119601900D928A95E1F78090850226
:1046500000918602E090870290908802F090890293
:10466000109286021092870210928802109289029C
:10467000802F8E2909F445C0809182029091830297
:104680000E942C129C0190917D02992309F4B9C0DB
:1046900025313105B0F19F3F19F09F5F90937D0266
:1046A000002359F00E944A079FEF10160CF491E086
:1046B000899F802D112480938602EE2059F00E945C
:1046C0004A0791E01E140CF09FEF899F802D112462
:1046D0008093870280918602882399F070908702E8
:1046E000772079F00E946A07882309F48FCF80939E
:1046F0008602872D0E946A07882309F48ACF809357
:1047000087028F2D892909F445C0809180029091FC
:1047100081020E942C129C0190917E02992309F43F
:104720006BC021353105B0F19F3F19F09F5F909329
:104730007E02992059F00E9428079FEF19140CF46B
:1047400091E0899F802D112480938802FF2059F0E9
:104750000E94280791E01F140CF09FEF899F802D85
:1047600011248093890280918802882399F0909087
:104770008902992079F00E946A07882309F44CCFB6
:1047800080938802892D0E946A07882309F447CF05
:104790008093890280918502881117C080918602DA
:1047A000882311F0081311C020918702222311F0F1
:1047B0002E110BC090918902992311F0F91205C0B6
:1047C00030918802332309F42DCF0E94471286E0EE
:1047D000FE013196A4E8B2E001900D928A95E1F7CE
:1047E0000E941B079091FE01891709F48BCD8093DD
:1047F000FE010E94630684CD2B30310508F096CF70
:10480000C9CF2B30310508F048CF7BCFEF92FF9214
:104810000F931F93CF93DF93182FEB011092BC00DF
:1048200084EA8093BC000E943B127C018091BC0012
:1048300087FF27C08091B900887F883029F0809158
:10484000B900887F803189F51093BB0084E880939C
:10485000BC000E943B128C018091BC0087FF1EC0EF
:104860002091B900287F90E080E0283191F081E02C
:1048700090E0203411F490E080E0919581959109C9
:1048800008C0C7010E942C12C817D90778F68EEF0E
:104890009FEFCDB7DEB7E6E00C949C25C8010E94DF
:1048A0002C12C817D907C0F6F2CF8FEF9FEFF1CFC8
:1048B0001092B9008CE08093B80008950F931F9375
:1048C000CF93DF93EB018093BB0084E88093BC001F
:1048D0000E943B128C018091BC0087FF11C0209187
:1048E000B900287F81E090E0283211F490E080E068
:1048F000919581959109DF91CF911F910F91089525
:10490000CF3FDC0741F3C8010E942C12C817D9071A
:1049100010F78EEF9FEFEFCFB0E0A0E0E2E9F4E216
:104920000C947925782E5B016A0189010E943B1263
:104930004C01C1E0D0E00431110558F0C5E0D0E0F1
:104940000F3F100731F0C80164E170E00E9460255C
:10495000EB01BE01872D0E9406247C0197FF09C050
:104960000F3F1007B1F3C4010E942C12081719075A
:1049700080F7E501CA0CDB1CCC15DD0511F0F7FE54
:1049800009C084E98093BC00C701CDB7DEB7EDE074
:104990000C949525B80189910E945E247C01ECCF8E
:1049A000B0E0A0E0E6EDF4E20C947925782E5B010E
:1049B0006A0189010E943B124C01C1E0D0E0043140
:1049C000110558F0C5E0D0E00F3F100731F0C801E5
:1049D00064E170E00E946025EB01BE01872D0E941A
:1049E00006247C0197FF09C00F3F1007B1F3C401F3
:1049F0000E942C120817190780F7E501CA0CDB1C6E
:104A0000CC15DD0511F0F7FE09C084E98093BC00E8
:104A1000C701CDB7DEB7EDE00C949525FE0184917A
:104A2000B8010E945E247C012196EACFB0E0A0E0AC
:104A3000ECE1F5E20C947825682E762E5A01690196
:104A40000E943B124C01C1E0D0E00431110558F046
:104A5000C5E0D0E00F3F100731F0C80164E170E01D
:104A60000E946025EB01BE01862D0E9406247C0178
:104A700097FF1DC00F3F1007B1F3C4010E942C1215
:104A80000817190780F784E98093BC00C701CDB7E8
:104A9000DEB7EEE00C949425B80189910E945E2463
:104AA0007C01CC16DD0679F3F7FEF6CFECCFB8012A
:104AB000872D0E945E247C01E501CA0CDB1CF1CF2E
:104AC000AA1BBB1B51E107C0AA1FBB1FA617B70734
:104AD00010F0A61BB70B881F991F5A95A9F7809550
:104AE0009095BC01CD0108952F923F924F925F9215
:104AF0006F927F928F929F92AF92BF92CF92DF92EE
:104B0000EF92FF920F931F93CF93DF93CDB7DEB752
:104B1000CA1BDB0B0FB6F894DEBF0FBECDBF0994E6
:104B20002A88398848885F846E847D848C849B843D
:104B3000AA84B984C884DF80EE80FD800C811B814B
:104B4000AA81B981CE0FD11D0FB6F894DEBF0FBE7A
:104B5000CDBFED010895991B79E004C0991F961708
:104B600008F0961B881F7A95C9F78095089597FBE2
:104B7000072E16F4009407D077FD09D00E94602517
:104B800007FC05D03EF4909581959F4F0895709550
:104B900061957F4F0895EE0FFF1F0590F491E02D72
:104BA0000994002E083090F0982F872F762F652FCC
:104BB000542F432F322F22270850F4CF220F331FB8
:104BC000441F551F661F771F881F991F0A95B2F74C
:104BD000002D089597FD1094002E083098F008508D
:104BE000232F342F452F562F672F782F892F912D64
:104BF000F4CF159497958795779567955795479531
:104C0000379527950A95AAF71124002D0895FB01E1
:104C1000DC0102C005900D9241505040D8F7089534
:104C2000FB01DC0104C08D910190801921F44150F9
:104C30005040C8F7881B990B0895F999FECF92BD93
:104C400081BDF89A992780B50895A6E1B0E044E0C7
:104C500050E00C946726A8E1B0E042E050E00C94EC
:104C60006726DC01A40FB51F4150504048F0CB012E
:104C7000840F951F2E910E94422641505040D0F73C
:104C80000895262FF999FECF92BD81BDF89A01971C
:104C900000B4021639F01FBA20BD0FB6F894FA9A84
:104CA000F99A0FBE08950396272F0E9442260E946C
:104CB0004126252F0E944226242F0C94422601963D
:104CC000272F0E9442260C944126DC01CB01FC01D7
:104CD000F999FECF06C0F2BDE1BDF89A319600B455
:104CE0000D9241505040B8F70895F894FFCF8213C9
:104CF000AA134915AA134915DD13FE134915FB1410
:104D00000815ED17F117E217E917F517F917FD1751
:104D1000CD18F118F618FB18001905190A190F1902
:104D2000141919191E19D619D6190E1A0E1AB71AEE
:104D3000D31A361A361AD81A601B6F1B6F1B3A1813
:104D4000AF1842180C181018461814184A1856189C
:104D50002018A81824185A1828185E1886182C1815
:104D600062188D1832186818701818184E181C1808
:104D7000521836186C187C189618A61806183E1883
:024D8000B61863
:104D82006F06410D3A0D330D2C0D0021007F2200DC
:104D92000700000100818283E200E900EA00B50019
:104DA200B600B700CD008301CC008A0192019401C4
:104DB2002102230224022502260227022A02B3002C
:104DC200B4006F0070009F01CB019F02A00294FF0C
:104DD200F43334FFF53231F7F63600FF01000100FB
:104DE20000FFFF0000010001FF000008101820284A
:0A4DF200303838302820181008006F
:00000001FF
